:020000040800F2
:1000000000500020051700083596000837960008B4
:10001000399600083B9600083D9600080000000055
:100020000000000000000000000000003F960008F3
:100030004196000800000000439600089D38000823
:10004000B5170008B5170008B5170008B517000860
:10005000B5170008B5170008B5170008B517000850
:10006000B5170008B5170008B5170008B517000840
:10007000B5170008B517000895270008B517000840
:10008000B5170008B5170008B5170008B517000820
:10009000B5170008B5170008B5170008B517000810
:1000A000B5170008B5170008B5170008B517000800
:1000B00049330008B5170008B5170008B517000840
:1000C000B5170008AD2A0008AD300008B5170008C4
:1000D000B5170008653600080D360008B51700088A
:1000E000B5170008B5170008B51700080000000094
:1000F0000000000000000000000000000000000000
:0C01000000000000000000005FF808F1A3
:1001100010B5054C237833B9044810B10448AFF347
:1001200000800121217010BDA40900200000000002
:10013000B871010808B5064B1BB106480649AFF374
:1001400000800648016811B1054A02B1904708BD18
:1001500000000000B8710108A8090020A4090020CF
:100160000000000081F0004102E000BF83F0004386
:1001700030B54FEA41044FEA430594EA050F08BF42
:1001800090EA020F1FBF54EA000C55EA020C7FEA06
:10019000645C7FEA655C00F0E2804FEA5454D4EB83
:1001A0005555B8BF6D420CDD2C4480EA020281EA4D
:1001B000030382EA000083EA010180EA020281EA85
:1001C0000303362D88BF30BD11F0004F4FEA0131D7
:1001D0004FF4801C4CEA113102D0404261EB4101E6
:1001E00013F0004F4FEA03334CEA133302D052426C
:1001F00063EB430394EA050F00F0A780A4F1010428
:10020000D5F1200E0DDB02FA0EFC22FA05F2801861
:1002100041F1000103FA0EF2801843FA05F3594147
:100220000EE0A5F120050EF1200E012A03FA0EFCC6
:1002300028BF4CF0020C43FA05F3C01851EBE371F0
:1002400001F0004507D54FF0000EDCF1000C7EEB0D
:1002500000006EEB0101B1F5801F1BD3B1F5001F4B
:100260000CD349085FEA30004FEA3C0C04F101046A
:100270004FEA445212F5800F80F09A80BCF1004F93
:1002800008BF5FEA500C50F1000041EB045141EA15
:10029000050130BD5FEA4C0C404141EB010111F416
:1002A000801FA4F10104E9D191F0000F04BF0146C1
:1002B0000020B1FA81F308BF2033A3F10B03B3F19F
:1002C00020020CDA0C3208DD02F1140CC2F10C022F
:1002D00001FA0CF021FA02F10CE002F11402D8BF8D
:1002E000C2F1200C01FA02F120FA0CFCDCBF41EA59
:1002F0000C019040E41AA2BF01EB0451294330BD28
:100300006FEA04041F3C1CDA0C340EDC04F1140404
:10031000C4F1200220FA04F001FA02F340EA0300DB
:1003200021FA04F345EA030130BDC4F10C04C4F121
:10033000200220FA02F001FA04F340EA0300294601
:1003400030BD21FA04F0294630BD94F0000F83F44B
:10035000801306BF81F480110134013D4EE77FEA2E
:10036000645C18BF7FEA655C29D094EA050F08BF7A
:1003700090EA020F05D054EA000C04BF194610465B
:1003800030BD91EA030F1EBF0021002030BD5FEA9F
:10039000545C05D14000494128BF41F0004130BDC7
:1003A00014F580043CBF01F5801130BD01F000451B
:1003B00045F0FE4141F470014FF0000030BD7FEA8E
:1003C000645C1ABF194610467FEA655C1CBF0B4689
:1003D000024650EA013406BF52EA033591EA030FA0
:1003E00041F4002130BD00BF90F0000F04BF002198
:1003F000704730B54FF4806404F132044FF00005CB
:100400004FF0000150E700BF90F0000F04BF002143
:10041000704730B54FF4806404F1320410F00045A9
:1004200048BF40424FF000013EE700BF42004FEAA4
:10043000E2014FEA31014FEA02701FBF12F07F4321
:1004400093F07F4F81F06051704792F0000F14BF1E
:1004500093F07F4F704730B54FF4607401F0004562
:1004600021F0004120E700BF50EA010208BF7047B9
:1004700030B54FF000050AE050EA010208BF7047AE
:1004800030B511F0004502D5404261EB41014FF417
:10049000806404F132045FEA915C3FF4DCAE4FF01B
:1004A00003025FEADC0C18BF03325FEADC0C18BF02
:1004B000033202EBDC02C2F1200300FA03FC20FA53
:1004C00002F001FA03FE40EA0E0021FA02F11444A0
:1004D000C1E600BF70B54FF0FF0C4CF4E06C1CEAB5
:1004E00011541DBF1CEA135594EA0C0F95EA0C0F2A
:1004F00000F0DEF82C4481EA030621EA4C5123EA9D
:100500004C5350EA013518BF52EA033541F48011CB
:1005100043F4801338D0A0FB02CE4FF00005E1FB7E
:1005200002E506F00042E0FB03E54FF00006E1FBC8
:1005300003569CF0000F18BF4EF0010EA4F1FF040B
:10054000B6F5007F64F5407404D25FEA4E0E6D414B
:1005500046EB060642EAC62141EA55514FEAC5205C
:1005600040EA5E504FEACE2EB4F1FD0C88BFBCF5D8
:10057000E06F1ED8BEF1004F08BF5FEA500E50F189
:10058000000041EB045170BD06F0004646EA01014F
:1005900040EA020081EA0301B4EB5C04C2BFD4EB81
:1005A0000C0541EA045170BD41F480114FF0000E7A
:1005B000013C00F3AB8014F1360FDEBF002001F0E8
:1005C000004170BDC4F10004203C35DA0C341BDC62
:1005D00004F11404C4F1200500FA05F320FA04F034
:1005E00001FA05F240EA020001F0004221F0004168
:1005F00010EBD37021FA04F642EB06015EEA430EDB
:1006000008BF20EAD37070BDC4F10C04C4F120050A
:1006100000FA04F320FA05F001FA04F240EA0200BD
:1006200001F0004110EBD37041F100015EEA430E8E
:1006300008BF20EAD37070BDC4F1200500FA05F2AE
:100640004EEA020E20FA04F301FA05F243EA02032D
:1006500021FA04F001F0004121FA04F220EA02003C
:1006600000EBD3705EEA430E08BF20EAD37070BD82
:1006700094F0000F0FD101F00046400041EB010162
:1006800011F4801F08BF013CF7D041EA060195F044
:10069000000F18BF704703F00046520043EB0303FE
:1006A00013F4801F08BF013DF7D043EA06037047EB
:1006B00094EA0C0F0CEA135518BF95EA0C0F0CD0F6
:1006C00050EA410618BF52EA4306D1D181EA03013C
:1006D00001F000414FF0000070BD50EA410606BF36
:1006E0001046194652EA430619D094EA0C0F02D17B
:1006F00050EA013613D195EA0C0F05D152EA0336C0
:100700001CBF104619460AD181EA030101F00041DD
:1007100041F0FE4141F470014FF0000070BD41F026
:10072000FE4141F4780170BD70B54FF0FF0C4CF400
:10073000E06C1CEA11541DBF1CEA135594EA0C0F1F
:1007400095EA0C0F00F0A7F8A4EB050481EA030E6C
:1007500052EA03354FEA013100F088804FEA033353
:100760004FF0805545EA131343EA12634FEA022221
:1007700045EA111545EA10654FEA00260EF00041E2
:100780009D4208BF964244F1FD0404F5407402D234
:100790005B084FEA3202B61A65EB03055B084FEAC5
:1007A00032024FF480104FF4002CB6EB020E75EBC2
:1007B000030E22BFB61A754640EA0C005B084FEAEA
:1007C0003202B6EB020E75EB030E22BFB61A754667
:1007D00040EA5C005B084FEA3202B6EB020E75EBB2
:1007E000030E22BFB61A754640EA9C005B084FEA2A
:1007F0003202B6EB020E75EB030E22BFB61A754637
:1008000040EADC0055EA060E18D04FEA051545EA25
:1008100016754FEA06164FEAC30343EA52734FEACE
:10082000C2025FEA1C1CC0D111F4801F0BD141EA47
:1008300000014FF000004FF0004CB6E711F4801FAC
:1008400004BF01430020B4F1FD0C88BFBCF5E06F8C
:100850003FF6AFAEB5EB030C04BFB6EB020C5FEA9C
:10086000500C50F1000041EB045170BD0EF0004EF1
:100870004EEA113114EB5C04C2BFD4EB0C0541EA23
:10088000045170BD41F480114FF0000E013C90E620
:1008900045EA060E8DE60CEA135594EA0C0F08BFE4
:1008A00095EA0C0F3FF43BAF94EA0C0F0AD150EAE3
:1008B00001347FF434AF95EA0C0F7FF425AF104676
:1008C00019462CE795EA0C0F06D152EA03353FF49E
:1008D000FDAE1046194622E750EA410618BF52EA1B
:1008E00043067FF4C5AE50EA41047FF40DAF52EAEF
:1008F00043057FF4EBAE12E74FF0FF3C06E000BF8C
:100900004FF0010C02E000BF4FF0010C4DF804CD98
:100910004FEA410C7FEA6C5C4FEA430C18BF7FEA58
:100920006C5C1BD001B050EA410C0CBF52EA430C86
:1009300091EA030F02BF90EA020F0020704710F106
:10094000000F91EA030F58BF994208BF90422CBF95
:10095000D8176FEAE37040F0010070474FEA410C8E
:100960007FEA6C5C02D150EA013C07D14FEA430CAC
:100970007FEA6C5CD6D152EA033CD3D05DF8040B1D
:10098000704700BF8446104662468C46194663464F
:1009900000E000BF01B5FFF7B7FF002848BF10F126
:1009A000000F01BD4DF808EDFFF7F4FF0CBF01206B
:1009B00000205DF808FB00BF4DF808EDFFF7EAFFE7
:1009C00034BF012000205DF808FB00BF4DF808EDA2
:1009D000FFF7E0FF94BF012000205DF808FB00BF97
:1009E0004DF808EDFFF7CEFF94BF012000205DF821
:1009F00008FB00BF4DF808EDFFF7C4FF34BF01202E
:100A000000205DF808FB00BF4FEA4102B2F1E0436D
:100A100024BFB3F5001CDCF1FE5C0DD901F0004CE5
:100A20004FEAC0024CEA5070B2F1004F40EB830035
:100A300008BF20F00100704711F0804F21D113F161
:100A40003872BCBF01F00040704741F480114FEA9A
:100A50005252C2F11802C2F1200C10FA0CF320FA23
:100A600002F018BF40F001004FEAC1234FEAD32340
:100A700003FA0CFC40EA0C0023FA02F34FEA4303AA
:100A8000CCE77FEA625307D150EA01331EBF4FF033
:100A9000FE4040F44000704701F0004040F0FE404E
:100AA00040F40000704700BF80F0004002E000BF4B
:100AB00081F0004142001FBF5FEA410392EA030F49
:100AC0007FEA226C7FEA236C6AD04FEA1262D2EB93
:100AD0001363C1BFD218414048404140B8BF5B4298
:100AE000192B88BF704710F0004F40F4000020F031
:100AF0007F4018BF404211F0004F41F4000121F047
:100B00007F4118BF494292EA030F3FD0A2F1010290
:100B100041FA03FC10EB0C00C3F1200301FA03F1CE
:100B200000F0004302D5494260EB4000B0F5000FF1
:100B300013D3B0F1807F06D340084FEA310102F1B0
:100B40000102FE2A51D2B1F1004F40EBC25008BF62
:100B500020F0010040EA03007047490040EB00002C
:100B600010F4000FA2F10102EDD1B0FA80FCACF15B
:100B7000080CB2EB0C0200FA0CF0AABF00EBC2505A
:100B800052421843BCBFD0401843704792F0000F48
:100B900081F4000106BF80F400000132013BB5E79B
:100BA0004FEA41037FEA226C18BF7FEA236C21D011
:100BB00092EA030F04D092F0000F08BF0846704776
:100BC00090EA010F1CBF0020704712F07F4F04D144
:100BD000400028BF40F00040704712F100723CBF57
:100BE00000F50000704700F0004343F0FE4040F481
:100BF000000070477FEA226216BF08467FEA23633F
:100C00000146420206BF5FEA412390EA010F40F429
:100C1000800070474FF0000304E000BF10F0004375
:100C200048BF40425FEA000C08BF704743F096435C
:100C300001464FF000001CE050EA010208BF704777
:100C40004FF000030AE000BF50EA010208BF7047FE
:100C500011F0004302D5404261EB41015FEA010C13
:100C600002BF84460146002043F0B64308BFA3F10B
:100C70008053A3F50003BCFA8CF2083AA3EBC253ED
:100C800010DB01FA02FC634400FA02FCC2F120020C
:100C9000BCF1004F20FA02F243EB020008BF20F043
:100CA0000100704702F1200201FA02FCC2F12002A9
:100CB00050EA4C0021FA02F243EB020008BF20EA9E
:100CC000DC7070474FF0FF0C1CEAD0521EBF1CEACC
:100CD000D15392EA0C0F93EA0C0F6FD01A4480EABA
:100CE000010C400218BF5FEA41211ED04FF00063A3
:100CF00043EA501043EA5111A0FB01310CF00040CF
:100D0000B1F5000F3EBF490041EAD3715B0040EAF4
:100D1000010062F17F02FD2A1DD8B3F1004F40EBC4
:100D2000C25008BF20F00100704790F0000F0CF097
:100D3000004C08BF49024CEA502040EA51207F3A5B
:100D4000C2BFD2F1FF0340EAC250704740F4000036
:100D50004FF00003013A5DDC12F1190FDCBF00F027
:100D600000407047C2F10002410021FA02F1C2F1D5
:100D7000200200FA02FC5FEA310040F1000053EA71
:100D80004C0308BF20EADC70704792F0000F00F0BF
:100D9000004C02BF400010F4000F013AF9D040EAC5
:100DA0000C0093F0000F01F0004C02BF490011F459
:100DB000000F013BF9D041EA0C018FE70CEAD15357
:100DC00092EA0C0F18BF93EA0C0F0AD030F0004CD7
:100DD00018BF31F0004CD8D180EA010000F000408B
:100DE000704790F0000F17BF90F0004F084691F049
:100DF000000F91F0004F14D092EA0C0F01D1420283
:100E00000FD193EA0C0F03D14B0218BF084608D14B
:100E100080EA010000F0004040F0FE4040F4000095
:100E2000704740F0FE4040F4400070474FF0FF0C28
:100E30001CEAD0521EBF1CEAD15392EA0C0F93EA6F
:100E40000C0F69D0A2EB030280EA010C49024FEAC1
:100E5000402037D04FF0805343EA111143EA10137A
:100E60000CF000408B4238BF5B0042F17D024FF432
:100E7000000C8B4224BF5B1A40EA0C00B3EB510F0D
:100E800024BFA3EB510340EA5C00B3EB910F24BFF6
:100E9000A3EB910340EA9C00B3EBD10F24BFA3EB7B
:100EA000D10340EADC001B0118BF5FEA1C1CE0D143
:100EB000FD2A3FF650AF8B4240EBC25008BF20F0F6
:100EC000010070470CF0004C4CEA50207F32C2BF4A
:100ED000D2F1FF0340EAC250704740F400004FF0E7
:100EE0000003013A37E792F0000F00F0004C02BF18
:100EF000400010F4000F013AF9D040EA0C0093F0E2
:100F0000000F01F0004C02BF490011F4000F013B3B
:100F1000F9D041EA0C0195E70CEAD15392EA0C0FA3
:100F200008D142027FF47DAF93EA0C0F7FF470AFDB
:100F3000084676E793EA0C0F04D14B023FF44CAF1E
:100F400008466EE730F0004C18BF31F0004CCAD1B3
:100F500030F000427FF45CAF31F000437FF43CAFEF
:100F60005FE700BF4FF0FF3C06E000BF4FF0010C11
:100F700002E000BF4FF0010C4DF804CD4FEA4002F3
:100F80004FEA41037FEA226C18BF7FEA236C11D03D
:100F900001B052EA530C18BF90EA010F58BFB2EBF0
:100FA000030088BFC81738BF6FEAE17018BF40F070
:100FB000010070477FEA226C02D15FEA402C05D124
:100FC0007FEA236CE4D15FEA412CE1D05DF8040BA9
:100FD000704700BF844608466146FFE70FB5FFF73C
:100FE000C9FF002848BF10F1000F0FBD4DF808EDF4
:100FF000FFF7F4FF0CBF012000205DF808FB00BFE5
:101000004DF808EDFFF7EAFF34BF012000205DF83E
:1010100008FB00BF4DF808EDFFF7E0FF94BF01208B
:1010200000205DF808FB00BF4DF808EDFFF7D2FF88
:1010300094BF012000205DF808FB00BF4DF808EDCB
:10104000FFF7C8FF34BF012000205DF808FB00BF98
:101050004FEA4002B2F1FE4F0FD34FF09E03B3EBC5
:1010600012620DD94FEA002343F0004310F0004F05
:1010700023FA02F018BF404270474FF0000070475B
:1010800012F1610F01D1420205D110F0004008BFFA
:101090006FF0004070474FF00000704742000ED2E2
:1010A000B2F1FE4F0BD34FF09E03B3EB126209D4A3
:1010B0004FEA002343F0004323FA02F070474FF059
:1010C0000000704712F1610F01D1420202D14FF0CE
:1010D000FF3070474FF00000704700BF4FEA4102F9
:1010E00012F5001215D211D56FF47873B3EB62527A
:1010F00012D94FEAC12343F0004343EA505311F0A1
:10110000004F23FA02F018BF404270474FF0000032
:10111000704750EA013005D111F0004008BF6FF070
:10112000004070474FF00000704700BF4BB942B914
:10113000002908BF002802D04FF0FF31084600F018
:101140003BB882B0EC462DE9005000F01DF8DDF808
:1011500004E002B00CBC70472DE9F04116469846F9
:1011600004460D4600F02AF806FB01FCA6FB00230E
:1011700000FB08C7FB18A21A65EB0303069CC4E931
:101180000023BDE8F08100BF2DE9F04190460646FE
:101190000F461D4600F070F900FB05F3A0FB084563
:1011A00008FB0138069B4544341B67EB0505C3E982
:1011B0000045BDE8F08100BF704700BF00292DE960
:1011C000F00F1D46C0F29D800024002DC0F29480D7
:1011D00080460F4694461E46E3BB8A4255D9B2FA72
:1011E00082F747B1C7F1200520FA05F601FA07F1A9
:1011F000BA40B8403143170CB1FBF7F61FFA82FC36
:1012000007FB16110CFB06F5030C43EA01439D4254
:1012100008D9711E9B1880F013819D4240F2108105
:10122000023E9B18591BB1FBF7F507FB15130CFB8E
:1012300005FC80B240EA03418C4507D96B1E8A1831
:1012400080F00081944540F2FD80023D45EA064170
:10125000002503E08B420CD9002529460A462B467F
:1012600014B1524263EB430310461946BDE8F00F38
:101270007047B3FA83F5002D40F087808B4201D38D
:101280008242EAD800250121E8E712B90126B6FB1F
:10129000F2F2B2FA82F6002E39D18E1A130C1FFA2E
:1012A00082FC0125B6FBF3F703FB17610CFB07F883
:1012B0004FEA104949EA0146B04506D9791EB618E9
:1012C00002D2B04500F2D3800F46C8EB0606B6FB4B
:1012D000F3F103FB11630CFB01FC80B240EA034312
:1012E0009C4506D94E1E9A1802D2944500F2C2803F
:1012F000314641EA0741B1E7E443524263EB43031D
:1013000066E7404261EB41014FF0FF345DE7B240D8
:10131000C6F1200921FA09F720FA09F901FA06F1C4
:10132000130CB7FBF3F81FFA82FC03FB18770CFBD6
:1013300008F549EA01094FEA194141EA0747B04077
:10134000BD420AD9BF1808F1FF3680F08E80BD4239
:1013500040F28B80A8F10208BF18791BB1FBF3F5AE
:1013600003FB15170CFB05F61FFA89F949EA07413B
:101370008E4206D96F1E891871D28E426FD9023DF6
:1013800089188E1B45EA08458CE7C5F1200122FA31
:1013900001F306FA05F627FA01F207FA05F720FA33
:1013A00001F11E434FEA1649B2FBF9F81FFA86FA1B
:1013B00009FB18220AFB08FB0F433B0C43EA0242DD
:1013C00093450CFA05FC08D9921908F1FF314AD26D
:1013D000934548D9A8F102089219CBEB0203B3FB5D
:1013E000F9F109FB11320AFB01FABFB247EA0243E5
:1013F0009A4506D94A1E9B1933D29A4531D90239EA
:101400009B1941EA08410F0C1FFA8CF808FB07F6FC
:101410008AB24FEA1C4C08FB02F80CFB02620CFB80
:1014200007FC02EB1842964288BF0CF5803CCAEBE1
:1014300003030CEB124C63450ED305D000250DE7DA
:101440000E46EFE61D4601E700FA05F01FFA88F8A0
:1014500008EB0245A842F1D201390025FEE63D46DF
:101460008FE71146CDE78846B7E7B04675E7023FFC
:10147000B6182AE702393CE72DE9F007144605467D
:101480000E46002B3DD18A4249D9B2FA82F747B1C4
:10149000C7F1200120FA01F206FA07F6BC40BD4070
:1014A0001643220CB6FBF2F0A1B202FB106601FB60
:1014B00000F32F0C47EA0646B34208D9471E3619F7
:1014C00080F0FA80B34240F2F78002383619F61AFB
:1014D000B6FBF2F302FB136201FB03F1ADB245EA86
:1014E0000242914207D95E1E121980F0E7809142B4
:1014F00040F2E480023B43EA00400021BDE8F007EF
:1015000070478B4243D8B3FA83F4002C42D18B420C
:1015100002D3824200F2E18000210120EEE712B9FD
:101520000127B7FBF2F4B4FA84F2002A40F0898074
:101530000A1B230CA7B20121B2FBF3F603FB162210
:1015400007FB06F04FEA154C4CEA0242904207D9DD
:10155000121906F1FF3C02D2904200F2D08066469A
:10156000121AB2FBF3F003FB102307FB00F7ADB236
:1015700045EA03439F4207D9421E1B1980F0A08011
:101580009F4240F29D80023840EA0640B6E70021C3
:101590000846B3E7C4F1200622FA06F703FA04F37B
:1015A00021FA06F501FA04F120FA06F63B434FEA68
:1015B000134CB5FBFCF71FFA83F80CFB175508FB1F
:1015C00007F946EA010A4FEA1A4141EA0545A945E9
:1015D00002FA04F204D97E1EED18C0F0818037466D
:1015E000C9EB0501B1FBFCF60CFB161508FB06F870
:1015F0001FFA8AFA4AEA0541884503D9751EC918B7
:1016000074D32E4646EA0746370C1FFA82FC0CFBC1
:1016100007F5120CB3B20CFB03FC02FB035302FBF5
:1016200007F203EB1C439D4288BF02F58032C8EBF2
:10163000010102EB134291424CD343D030460021CA
:101640005CE79440C2F1200521FA05F620FA05F581
:1016500001FA02F1230CB6FBF3FCA7B203FB1C66F4
:1016600007FB0CF829430D0C45EA0646B04500FA85
:1016700002F508D936190CF1FF303ED2B0453CD9FD
:10168000ACF1020C3619C8EB0602B2FBF3F003FB17
:10169000102607FB00F889B241EA0642904506D9B8
:1016A000461E121927D2904525D902381219C8EBC7
:1016B000020240EA0C413FE7384608E733461AE7A2
:1016C000104661E700FA04F01FFA8CFC0CEB0343B0
:1016D0009842B3D2701E002110E7214620460DE744
:1016E000A9457FF67CAF023FED1879E7884588D998
:1016F000023EC91886E73046D9E78446C3E7023E72
:1017000012192DE71D481E49026800608A4200F048
:101710001F80002100F004B81A4B5B58435004317D
:1017200019481A4B42189A42FFF4F6AF184A00F0D3
:1017300003B8002342F8043B164B9A42FFF4F9AF7A
:1017400007F080FF0CF0CCFF07F0C6F8FFF7FEBFF4
:10175000114E124830601248016821F0706101603A
:10176000410201600F4C182020600F490F480860AB
:101770000F48D0F800D0406800470000F04F00202C
:10178000EFBEADDEE471010800000020A4090020D6
:10179000A4090020F02100201810024009000000D8
:1017A00004000140140C0140000C01404434434447
:1017B00000F0FF1FFFF7FEBF07B5322106226B4680
:1017C000532001F0A9FB0A4B9DF800209DF8010071
:1017D0009DF802109A70D87019709DF803209DF83A
:1017E00004009DF805105A70187159710EBD00BFA4
:1017F000A60D00202DE9F843394B002501221A706F
:101800004FF4FA662F46A946DFF8E480354CFFF71F
:10181000D3FFB8F90000FFF701FA6168FFF748F954
:101820002169FFF74FFA01464846FFF743F9814621
:10183000B8F90200FFF7F2F9A168FFF739F9616919
:10184000FFF740FA01463846FFF734F90746B8F982
:101850000400FFF7E3F9E168FFF72AF9A169FFF750
:1018600031FA01462846FFF725F9013E0546B6B292
:101870004FF47A7002F020F9002EC5D11A4948467B
:10188000FFF7D4FA184904463846FFF7CFFA16494D
:1018900007462846FFF7CAFA214605462046FFF7C5
:1018A00011FA394604463846FFF70CFA014620463D
:1018B000FFF700F9294604462846FFF703FA0146D8
:1018C0002046FFF7F7F8FEF7B1FD09F0AFFDFFF78F
:1018D0009BF80649086002480670BDE8F88300BF1F
:1018E000C0090020641F00200000FA44000000200E
:1018F000A60D002008B52D210822532001F0CEFBB3
:101900000A2002F0F5F831210922532001F0C6FB2C
:101910000A2002F0EDF82C210E22532001F0BEFB2C
:10192000642002F0E5F8BDE80840FFF763BF00005F
:1019300007B5F621022201AB772001F0EDFA064B44
:101940009DF804209DF805005A701870F421772046
:10195000742201F0A3FB0EBD2C0D002007B5F6216B
:10196000032201AB772001F0D7FA094B9DF8042040
:101970009DF805009DF80610587019709A701A6845
:10198000F421D01118602E22772001F087FB0EBDC4
:10199000440D00200D4B0E4A188811680B1A0D4893
:1019A0000D4902880D485343B0F900200C48DB1361
:1019B0000B60D102B0F90020981891FBF0F20949B0
:1019C00009489B180A600360704700BF120D002091
:1019D000FC0C0020140D0020380D0020280D0020E4
:1019E000200D00201C0D0020300D00200000000004
:1019F0003F4B10B518683F4AA0F57A6303FB03F12B
:101A00003D4C08133D491360B4F90020B1F9004082
:101A10003B494443B1F900105943C91201EBE42199
:101A200001EB820251008A1C9110364A1160364A3D
:101A3000B2F900205343354AB2F900205043001454
:101A400000EB63339A1C9010314B324A18601388B4
:101A500000F500405843304A304BC00B10601A6804
:101A600046F2A813511A4B432D4A002B136003DB97
:101A70005900B1FBF0F302E0B3FBF0F043001812A1
:101A8000404340F6DE325043264A27495A43001469
:101A900008601214254980180A6000F6CF6203EB33
:101AA0002210234B1860FFF7B9F82249FFF7BEF95F
:101AB000FEF7BCFC0AA3D3E9002309F02FFB024682
:101AC0000B4600201C49FEF751FB07A3D3E9002376
:101AD000FEF700FDFEF798FF1849C86310BD00BF70
:101AE00000000020965BC83F0000000040A5E540D4
:101AF000300D0020400D00200E0D0020040D0020B0
:101B0000160D00203C0D0020480D0020100D002077
:101B1000340D0020220D0020180D0020080D00209B
:101B2000240D002043E3FFFF380D00201C0D002092
:101B3000000D002080E6C5470000F03F241F002074
:101B40007FB50F2001F0D4FFAA2116226B46772023
:101B500001F0E2F99DF800209DF80100344B354971
:101B60005A7018709DF803209DF802300A704B706F
:101B700031489DF804109DF80530417003709DF8C0
:101B800006209DF807102D482D4B427001709DF8DE
:101B900009209DF808001A7058702A499DF80A30EB
:101BA0009DF80B004B7008709DF80C209DF80D30CF
:101BB000254926484A700B709DF80F209DF80E109D
:101BC00002704170224B9DF8100058709DF8111062
:101BD0009DF8122019709DF813001E4B1E495A7073
:101BE00018709DF815209DF814300A704B702E2245
:101BF000F421772001F052FA0A2001F079FFFFF773
:101C000097FE0A2001F074FFFFF7A8FE0A2001F0FA
:101C10006FFF1248124B0168124A1960106812498E
:101C20000860FFF7B7FEFFF7E3FE07B000BD00BF97
:101C30000E0D0020160D0020480D0020220D002062
:101C4000140D0020120D0020100D0020040D0020A6
:101C50000C0D0020280D0020200D00202C0D002050
:101C6000FC0C0020440D0020080D002007B50321C6
:101C700006221E206B4601F04FF9134B9DF8002001
:101C80009DF801005A709DF8032018709DF802100D
:101C90001A71B3F9002059719DF804009DF80510E0
:101CA00012F5805FD87099700BD0B3F9020010F56F
:101CB000805F06D0B3F9043013F5805018BF0120BF
:101CC00000E000200EBD00BF4C0D00202DE9F341C7
:101CD000792200211E208DF8041001F0DFF9322056
:101CE00001F006FF202201211E2001F0D7F9142067
:101CF00001F0FEFE394B00221A605A609A600A25F4
:101D00001E200221012201F0C9F9142001F0F0FE89
:101D10009DF80400C30706D41E200921012201AB4F
:101D200001F0FAF8F4E72E4EFFF7A0FFB6F9000035
:101D3000FEF774FF294C01462A48FFF777F821681F
:101D4000FEF7B8FE20608046B6F90200FEF766FF97
:101D500001462448FFF76AF86168FEF7ABFE606051
:101D60000746B6F90400FEF759FF01461E48FFF783
:101D70005DF8A168FEF79EFE013D15F0FF050646E1
:101D8000A060BDD140461949FFF750F820F000414E
:101D9000216038461549FFF749F8144920F00043FF
:101DA00030466360FFF742F820F000422946A26007
:101DB0001E20782201F072F9142001F099FE022110
:101DC0002A461E2001F06AF9142001F091FEFFF767
:101DD0004DFF142001F08CFEBDE8FC81540D002065
:101DE0004C0D0020CD0C9E446726934400002041FA
:101DF00007B51B2108226B46682001F08DF80D4BBA
:101E00009DF800209DF801000B495A7018709DF84C
:101E100003209DF802309DF804004B700A70C870D2
:101E20009DF805309DF806209DF807008B704A71DB
:101E300008710EBD900D0020BE0D002070B5154B31
:101E4000154CB3F90000154D00F54E501030FEF75B
:101E5000E5FE1349FEF7EAFF1249FEF72BFE124991
:101E600006460860616BFEF72DFF216CFEF722FE2F
:101E7000A16B28603046FEF725FF616CFEF71AFE65
:101E8000E16B68603046FEF71DFFA16CFEF712FEA5
:101E9000A86070BD900D0020641F0020940D0020EC
:101EA00000008C4300000C428C0D00202DE9F8430B
:101EB000274B002401221A704FF4FA652746A146E9
:101EC000DFF89C80234EFFF793FFFFF7B7FFB8F9C9
:101ED0000000FEF7A3FE3168FEF7EAFD0146484622
:101EE000FEF7E8FD8146B8F90200FEF797FE71683B
:101EF000FEF7DEFD01463846FEF7DCFD0746B8F981
:101F00000400FEF78BFEB168FEF7D2FD01462046C5
:101F1000FEF7D0FD013D0446ADB24FF47A7001F0FA
:101F2000CBFD002DCCD10C494846FEF77FFF0B4E70
:101F3000094930603846FEF779FF0749706020464E
:101F4000FEF774FFB06002480570BDE8F88300BF7B
:101F5000D1090020940D00200000FA44AC0D0020AF
:101F6000BE0D002008B53E218022682001F096F8C1
:101F70003E210022682001F091F8162118226820E5
:101F800001F08CF815210722682001F087F817214D
:101F90000022682001F082F8642001F0A9FDBDE86C
:101FA0000840FFF783BF00001FB53B210E226B46A0
:101FB000682000F0B1FF174B9DF800209DF801004C
:101FC0009DF802105A701870D9709DF803209DF882
:101FD00004009DF805109A70587119719DF806203B
:101FE0000D4B9DF807000D495A7018709DF8092097
:101FF0009DF808309DF80A004B700A70C8709DF873
:102000000B309DF80C209DF80D008B704A71087103
:1020100005B000BDA60D0020900D0020BE0D0020D3
:1020200070B5204B204CB3F90000FEF7F7FD1F49B7
:10203000FEF7FCFE1E49FEF73DFD1E490546086001
:10204000E169FEF73FFEA16AFEF734FD1A4E216AF0
:1020500030602846FEF736FEE16AFEF72BFD616A26
:1020600070602846FEF72EFE216BFEF723FD616BA4
:10207000B0602846FEF726FE216CFEF71BFD0F4ED2
:10208000A16B30602846FEF71DFE616CFEF712FD65
:10209000E16B70602846FEF715FEA16CFEF70AFDA5
:1020A000B06070BD900D0020641F00200000AA43A6
:1020B00000000C428C0D0020C4090020940D00206B
:1020C0002DE9F043002200238DB0CDE90023CDE9B6
:1020D0000223CDE90423CDE90623CDE90823CDE988
:1020E0000A236B4B01221A7041F28834694E6A4D03
:1020F000FFF75AFFFFF794FFB6F90000FEF78EFDD9
:102100002968FEF7D5FCFEF791F902460B46DDE99A
:102110000001FEF72DF8CDE90001B6F90200FEF747
:102120007DFD6968FEF7C4FCFEF780F902460B46A8
:10213000DDE90201FEF71CF8CDE90201B6F9040061
:10214000FEF76CFDA968FEF7B3FCFEF76FF90246D7
:102150000B46DDE90401FEF70BF8504F504ECDE978
:102160000401B7F90000FEF759FD3168FEF7A0FC45
:10217000FEF75CF902460B46DDE90601FDF7F8FFC4
:10218000CDE90601B7F90200FEF748FD7168FEF7D8
:102190008FFCFEF74BF902460B46DDE90801FDF71F
:1021A000E7FFCDE90801B7F90400FEF737FDB16894
:1021B000FEF77EFCFEF73AF902460B46DDE90A011E
:1021C000FDF7D6FF013CCDE90A01A4B24FF47A70C5
:1021D00001F072FC002C89D1324D00A80719D7E913
:1021E000000127A3D3E90023FEF79EFA26A3D3E933
:1021F0000023FEF76FF9C7E900010CA90A1952E99B
:1022000006011FA3D3E90023FEF78EFAFEF7FCFBBD
:102210000834182C45F8040FDFD1DDE9000102462F
:102220000B46FEF757F9DDE90289DDE9046704464C
:102230000D4642464B4640464946FEF74BF902469C
:102240000B4620462946FDF793FF324604460D46CD
:102250003B4630463946FEF73DF90B4602462946D5
:102260002046FDF785FF09F0E1F8FEF7CDFB0E4BA8
:1022700007491860002008700DB0BDE8F08300BF6A
:10228000000000000088B340000000E0EA9C533FDB
:10229000D1090020A60D0020C4090020BE0D002099
:1022A000940D0020A80D002000000020AFF3008056
:1022B00008B56B218022682000F0F0FE962001F026
:1022C00017FC6B210322682000F0E8FE6C2100223D
:1022D000682000F0E3FE19210022682000F0DEFEF5
:1022E0000B4B1A2193F87420682000F0D7FE1C21B4
:1022F0000822682000F0D2FE1B210822682000F08E
:10230000CDFE642001F0F4FBBDE80840FFF7D8BE25
:10231000641F002007B50021032201AB772000F0E5
:10232000FBFD084B9DF804209DF805009DF8061064
:102330009A70587019707720FF21482200F0AEFE85
:102340000EBD00BF840D002007B50021032201ABA4
:10235000772000F0E1FD084B9DF804209DF8050072
:102360009DF806109A70587019707720FF21582236
:1023700000F094FE0EBD00BF680D0020094B0A4915
:102380001A880B68094910021A1A09480B8802605A
:1023900082FB0323D20D42EA4320064B00F5FA618B
:1023A00019607047740D0020700D0020600D002032
:1023B000640D0020780D00202DE9F8434849494B71
:1023C0000E681888484A86FB00011488C50945EA4A
:1023D0004160CB114FEA04484449454C0A8825889E
:1023E00018EB00084FF0000949EB0309E80386FBEE
:1023F0000245230A43EA05622C123E4D0021D5F81E
:1024000000E0801841EB0401BEF5FA6F31DA764343
:102410004FEAE67CAEF5FA667643F3179A00B4000D
:10242000A41942EA967545EB0305A3086F104FEA1D
:10243000340643EA8572AB102F4DAE450EDA0EF22C
:10244000DC5464430725C5FB04670B2584FB054565
:102450006D104FEA3404121943EB0503254CCCEB05
:102460000E052560B8EB060869EB0709801A61EBD9
:102470000301224A1368A3FB004503FB0155610DCC
:1024800041EAC5226B15B2EB080863EB09094FEA74
:10249000D83040EA4940FEF7C1FB1949FEF7C6FCB7
:1024A000FDF7C4FF0AA3D3E9002308F037FE024674
:1024B0000B4600201349FDF759FE07A3D3E900237B
:1024C000FEF708F8FEF7A0FA0F4AD063BDE8F883DC
:1024D000000000C0955BC83F0000000040A5E5403B
:1024E000640D0020620D00206C0D0020880D00207E
:1024F000800D0020780D002024FAFFFF7C0D0020C5
:1025000080E6C5470000F03F241F0020AFF30080A5
:1025100007B5FF211E22772000F0C0FD0A2001F040
:10252000E7FAA221022201AB772000F0F5FC9DF82A
:1025300004209DF80500314BA4215A701870022226
:1025400001AB772000F0E8FC9DF804309DF80520F1
:102550002B4977204B700A7001ABA621022200F0B4
:10256000DBFC9DF804109DF80530264802224170DE
:102570000370A82101AB772000F0CEFC9DF8042069
:102580009DF80510204801AB427001700222AA217B
:10259000772000F0C1FC9DF804009DF805201B4B3E
:1025A000AC2158701A707720022201AB00F0B4FC05
:1025B0009DF804309DF80500154958224B700870AD
:1025C000FF21772000F06AFD0A2001F091FAFFF761
:1025D000A1FE0A2001F08CFAFFF7B6FE0A2001F0F6
:1025E00087FA0C4A0C4B11680C48196002680C49B8
:1025F0000A60FFF7C3FEFFF7DFFE0EBD800D00206F
:102600006C0D0020880D0020620D0020740D00204C
:10261000600D0020680D00207C0D0020840D00203E
:10262000700D0020F0B593B00025102301A90227FA
:102630003948ADF804308DF806708DF8075007F072
:10264000B9FF364807F076FE3548364907900891BD
:1026500020204FF4005104244FF4806380224FF473
:1026600080760F9010912D4807A90E930C920D962D
:1026700009950A940B95119507F0D4FE012127487E
:1026800007F0F0FE4FF4004008F0FCF801264FF48C
:102690006022254802A9049202958DF80C608DF8FD
:1026A0000D6005958DF8184007F0A6FD1E482146DF
:1026B0003246052307F0F1FD1B4821463A46052323
:1026C00007F0EBFD184821460322052307F0E5FD3E
:1026D000224605231448214607F0DFFD1248314603
:1026E00007F0B7FD1048314607F0AAFD0E4807F085
:1026F000B9FD0D4807F0BBFD0028FAD10A4807F0E4
:10270000BAFD094807F0BCFD0028FAD106480121AE
:1027100007F0BAFD13B0F0BD000801400800024008
:102720004C240140D40900200024014008B5084B86
:1027300058881A8881189888DB880A18D11888B2B6
:10274000FEF768FA4FF07A51FEF7BCFA08BD00BFF9
:10275000D40900200B4A0C4813680C491818C860AB
:102760000B480068984203D9C31A4B60106004E01C
:10277000C3F500634B60002111600448012107F09C
:1027800071BE00BFE0090020C415002044000240D3
:10279000E409002008B54FF4005007F079FE00214D
:1027A000064807F05FFE064B06481A6801688A4231
:1027B00003D0BDE80840FFF7CDBF08BD440002408C
:1027C000E4090020E00900202DE9F043474C93B0D4
:1027D0000646182103204FF400738DF806008DF88B
:1027E0000710204601A9ADF80430482507F0E2FEA5
:1027F0004FF4806201A92046ADF804208DF80750FF
:102800000E2707F0D7FE012502A88DF808708DF875
:1028100009508DF80A508DF80B5007F0B9FC03965B
:10282000334E0C23334F00240DEB03013046ADF83B
:102830001630ADF81040ADF81240ADF81440ADF8C8
:10284000184008F06DFB384607F074FD2A49DFF8A0
:10285000B4904FF4805020234FF080084FF4006272
:1028600010900891384607A90F930A921194CDF859
:102870001C9009940B940D94CDF830800E9407F0C1
:10288000D1FD3846294607F0EDFD2A464021304665
:1028900008F0C4FB384607F0F8FD1849143F0860FB
:1028A000384607F047FD1020099007A93846CDF8B3
:1028B0001C900B940D94CDF830800E940F9407F07B
:1028C000B1FD384602212A4607F0D7FD3046414681
:1028D0002A467C6008F0A2FB3046294608F078FBC7
:1028E000074805F003FC13B0BDE8F0830008014081
:1028F0000038014058000240C40D0020DC090020CF
:10290000AD2900080438014008B5044807F0BDFDB2
:10291000034B1968401A18BF012008BD5800024037
:10292000DC090020054B06481A68C2F50061013A2F
:1029300008BF4FF40062405C1A607047DC09002059
:10294000C40D0020074B08491A688854501C4205E2
:10295000510D1960054B1868C20701D4FFF7FABE84
:10296000704700BFE4090020C41500204400024065
:1029700010B5441E14F8010F10B1FFF7E3FFF9E79B
:1029800010BD0FB400B5C3B044AB53F8042B02A87C
:102990004FF4807101930CF0DBF802A8FFF7E8FF19
:1029A00043B05DF804EB04B070470000F0B585B0AB
:1029B00004AB03E90300BDF80C60304605F0E4FB0E
:1029C00007460298FEF726F9FDF730FD00220A4B74
:1029D000FDF7AAFE044630460D4605F0DDFB0090EB
:1029E000BDF80E0039460190224604482B46FFF7F9
:1029F000C8FF05B0F0BD00BF00408F40943501080E
:102A0000884206D250F8042B92FAA2F2014B1A60C7
:102A1000F6E770470030024070B506460D4640208C
:102A20000121094C07F086FF0123A36000BF00BF0E
:102A300000BF00BF30462946FFF7E2FF206890FA4A
:102A4000A0F1C84370BD00BF00300240F7B5144F7D
:102A50000121144807F00CFE134C03234FF4805659
:102A60001025384601A98DF80630ADF804608DF8C0
:102A7000075007F09FFD1820ADF8040001A920467B
:102A800007F098FD3846314607F0EAFD2046082158
:102A900007F0E6FD2046294607F0E2FDFEBD00BF37
:102AA0000008014000023000000C01402DE9F74F02
:102AB000974CA38A98B210F0010237D0208820F4F6
:102AC00000610B041A0C22802046012107F0B8FE99
:102AD000904B91491A7800200870CAB18F4801784C
:102AE00019B98F4B1A78FF2A12D1012202708D4832
:102AF0000178022905D1864B1A8890B240F4006112
:102B00001980894B82481978012207F0B3FE38E119
:102B10008548002201787E4807F0ACFE80490B789A
:102B2000FF2B00F02E81FF207B4BEFE000F0020135
:102B3000C9B200294DD0BFF35F8F7A4D2E78012E98
:102B400035461AD1734B1978B9B174480378A3B1DB
:102B50002046114607F074FEBFF35F8F218B20469D
:102B6000CBB231468DF8073007F05EFE6F4A204643
:102B700016704FF48061324618E0654C228BD1B25A
:102B80008DF80710BFF35F8F66480378022B10D1D2
:102B9000604A117869B1614B1A7852B12046002120
:102BA00007F04EFE20464FF48061002207F054FEED
:102BB000E7E00078032807D156490B7823B1574A3C
:102BC000107808B15248EEE751484FF48061012275
:102BD000ECE700F00406F6B2002E72D04D4BDFF8A1
:102BE0004C811A78012688F800604C48002A4ED0A3
:102BF0000378002B4BD04B4D20462F78464D022FAB
:102C00004B4F29D907F01CFE204695F80090D7F8C5
:102C100000A007F02CFE4FFA89FB0AF80B0009EB25
:102C2000060031462870204607F0FEFD204688F851
:102C300000603F6895F8008007F019FE4FFA88F9A8
:102C400007F80900B04420464FF48061324685F809
:102C5000008007F001FE2CE0314607F0E5FD20463C
:102C60002E78D7F8008007F002FE4FFA86F9721C22
:102C700008F80900D1B220464FFA81F83F68297060
:102C800007F0F5FD033607F808002E7011E0027812
:102C900001211F4812B9274B1A782AB107F0C4FD49
:102CA0001D480378591C03E007F0B2FD1B480121C1
:102CB0000170174B1A8802F4807188B20028F8D18D
:102CC0005FE010F04001144D36D0194B20462F78AC
:102CD000D3F8008007F0CBFD7A1CD1B24FFA87F908
:102CE0002970104D08F8090028784FB20337B84210
:102CF00005D120464FF48061324607F0ADFD064B0A
:102D000028781A7851B288423BD1501C187038E0AC
:102D100000580040F5090020EB090020EE090020D2
:102D2000EC090020ED090020FD090020F409002035
:102D3000F0090020EA090020030622D52B785AB2B8
:102D4000501C0ED01B49013308682B70815C204653
:102D500007F08BFD184A95F900001178814210D1D7
:102D600030E7164829700178204607F07EFD1449A7
:102D70000B78002B7FF426AF0F4A107800283FF421
:102D800021AF0D4A0F49107891F90020431C9A4257
:102D90000DD10D490D480B780022027023B10C486B
:102DA0004FF4407107F058FD0A4800220270BDE858
:102DB000FE8F00BFF8090020ED090020EC0900207B
:102DC000F5090020EB090020F4090020EE0900209D
:102DD00000580040FC09002030B5142087B04FF4A3
:102DE000406403238DF8070001A94848ADF804406A
:102DF0008DF8063007F0DEFB2146444807F030FC32
:102E0000082442484FF4806107F024FC18B90320DD
:102E100000F052FEF5E74FF480613C4807F022FCD9
:102E2000032000F049FE4FF48061384807F018FC99
:102E3000032000F041FE611E11F0FF04E1D14FF4C8
:102E40000061324807F00EFC032000F035FE4FF41D
:102E500080612E4807F006FC032000F02DFE4FF4A1
:102E600080612A4807F0FCFB032000F025FE4FF4A8
:102E70000061264807F0F4FB032000F01DFE032547
:102E80001C234FF4406201A920488DF80730ADF8AB
:102E900004208DF8065007F08DFB1D4807F01AFC42
:102EA00002A807F09BFC224619484FF4407107F036
:102EB000D3FC184A4BF6FF704FF48041ADF80E007A
:102EC000ADF81410124802A90292ADF80C4007F0B8
:102ED0001BFC01210E4807F08FFC012022238DF8F6
:102EE000030068468DF800308DF801408DF80240EF
:102EF00007F04EF92121684625468DF800108DF81F
:102F0000014007F045F907B030BD00BF000C01409B
:102F100000580040801A060010B54000214CC0B295
:102F200020702148017021490020087020480121AB
:102F300001702048036020480360204B1A70204A2B
:102F400011702049888800F400739AB2A2B90988E8
:102F500001F4807083B24BB91A48028802F4007100
:102F60008BB2002BF8D1012107F052FC15484FF429
:102F70004071012207F070FC47F23051104802788E
:102F800012B10139FAD100E049B90F4B1888421C3F
:102F900091B20C481980FFF71FFF002010BD0120DF
:102FA00010BD00BFFD090020EC090020EA09002047
:102FB000F5090020F0090020F8090020ED090020A3
:102FC000FC09002000580040E809002030B540000E
:102FD000284CC5B228482570284D294C0170012184
:102FE0000020297085B02070264C0DEB000525606F
:102FF000254C102A2560254C2270254C217036D88E
:10300000C1B2914204D2195C0DF800100130F7E70B
:10301000204B9A8802F4007081B2A1B91B8803F496
:10302000807290B248B91B48018801F400739AB2CB
:10303000002AF8D1012107F0EBFB16484FF440714C
:10304000012207F009FC47F230531148017811B111
:10305000013BFAD100E04BB90F480288511C8BB2FA
:1030600003800C48FFF7B8FE002000E0012005B007
:1030700030BD00BFFD090020EC090020EA09002056
:10308000F5090020F8090020F0090020ED090020D2
:10309000FC09002000580040E809002007B502ABF9
:1030A00003F8012D0122FFF791FF0EBD37B5244C27
:1030B000A38A98B20090009B009911F4E06F33D07E
:1030C000228B204693B24FF480610022019307F0D7
:1030D000C3FB0098820527D4218801F4007293B2C3
:1030E00013BB258805F4807085B29DB11448018812
:1030F00001F4807293B2002BF8D1012107F094FB08
:103100000F48018801F4007293B2002BF8D1FFF749
:1031100063FE09E02046012107F086FB20464FF4BC
:1031200040712A4607F098FB0548818A21F47062B5
:103130001304190C034A8182002010703EBD00BFA9
:1031400000580040FC09002070B5002088B02A4AD1
:10315000431C40F6B83122F81010D8B20728F6D92F
:10316000264C28210125032220708DF803102448C5
:10317000694600248DF80220ADF8005007F01AFAD5
:103180001C2301A88DF804308DF805408DF80650F9
:103190008DF8075006F0FCFF23204FF6FF72ADF8C4
:1031A000140005A94FF08040ADF81820ADF8164086
:1031B000ADF81A408DF81C4007F064FC02A94FF0EE
:1031C0008040ADF80840ADF80A40ADF80C50ADF8BD
:1031D0000E40ADF8104007F0F1FD02214FF08040A5
:1031E0002A4607F0B1FD4FF0804029462E4607F0F1
:1031F00091FD08B070BD00BFC61D0020C41D002099
:1032000000080140014B33F810007047C61D002034
:10321000F0B5182089B003214FF410638DF8030036
:103220008DF802103A4869463A4DADF8003007F083
:10323000C1F94FF4707238486946ADF80020374E36
:1032400007F0B8F9B5F89240232096FBF4F77B1EFF
:103250000024ADF8040001A93148ADF80830ADF8FC
:103260000A40ADF806408DF80C4007F00BFC022038
:103270004FF4807170224FF4FA630127ADF8180003
:10328000ADF81C10264804A9ADF81020ADF8163092
:10329000ADF81270ADF81440ADF81A40ADF81E400C
:1032A00007F03AFC1E4804A907F07AFC1C4804A960
:1032B00007F0BAFC1A4804A907F0F8FC1848394688
:1032C00007F028FD95F8AC2062B9B5F8B430D5F810
:1032D000BC0096FBF3F6013EADF80860FDF7DEFE9C
:1032E000ADF8160001A90F4807F0CCFB04A90D4862
:1032F00007F012FC04A90B4807F0D8FC012109488B
:1033000007F014FD0748012107F004FD09B0F0BDE6
:1033100000080140641F0020000C014080841E0052
:1033200000080040002C0140024B53F820000180AF
:10333000704700BFB0350108024B53F820000180F0
:10334000704700BFC835010838B5234B4FF08040A7
:1033500093F88810012908D107F0CFFD1F48427863
:10336000002A37D0511E417038BD022107F0C9FD37
:10337000012804460AD11A4D1A482A8802804FF0C3
:10338000804007F0B7FD184928800C7002214FF0EB
:10339000804007F0C1FD124B12481A880188531A69
:1033A0009BB241F218529342104A02D90023137083
:1033B00038BDA3F2DD5080B240F6B631884205D860
:1033C0001278072A9CBF0A4921F81230074B187857
:1033D000411C197038BD00BF641F0020040000208C
:1033E000000A0020FE090020030A0020020A002033
:1033F000C61D002048F20100002104F05BBE48F227
:103400000300002104F056BEF0B5284B2849187877
:10341000284A0726284C464328480D781188002260
:10342000237804781046B04228DA254901EB40039E
:10343000998915B1012D1DD109E0C1F383230B2B0F
:1034400002D90F2B12D116E04FEA815C05E0C1F3DF
:10345000C3230B2BF5D84FEA415C4FEA5C5707F5C5
:10346000FA6C184F013227F813C0D2B29C4238BF11
:103470001C4600E00F230130C0B2D4E70D4D94424A
:1034800029800D490B70104B0C491A700F4B0C70B2
:1034900018700F4807DA0F4B012101701868BDE85A
:1034A000F04006F05FBE00220270F0BD070A002067
:1034B000040A0020E01D0020061E0020080A00204B
:1034C00004000020EA1D0020E81D0020C41D00208B
:1034D000030A0020D81D0020024B00229A72FFF739
:1034E00093BF00BF0400002038B50C46497823780C
:1034F000D1F1010138BF0021012B0D4602D0A37884
:1035000083B941B90020462120706170A070E0703D
:103510002071A07138BD02B1000220810123A37087
:10352000032321E019B10122227046231CE0012B64
:1035300011D12E4B32B1218942182D4822810178B8
:10354000197006E02B4AC0F3001100F0030011705F
:1035500018700223E3E7022B08D1E27860710AB900
:10356000C109A1710323A370637038BD032B10D16F
:1035700002256370A172E378A179A570072505FB88
:103580000131657904EB410140EA0520013388816E
:10359000E370E17806291ED92079431C1348D9B27B
:1035A00003782171994203D101210020A172207179
:1035B0003AB91049104A08780D4910700B700F4A3B
:1035C00000E00F4A106806F0CDFD00234620A370EE
:1035D000E370A37160700B4A917A11B90A4B987A23
:1035E00018B1BDE83840FFF777BF38BD050A0020A5
:1035F000070A0020060A0020040A0020DC1D002023
:10360000E41D0020040000202C000020134A08B50F
:10361000938903F0800081B251B1138803F08000D8
:1036200081B229B1938923F0800001040B0C9381AE
:1036300092890A4802F020018BB26BB1028802F035
:1036400020018BB243B107F0F2FC0549C0B2002261
:10365000BDE80840FFF748BF08BD00BF0044004078
:1036600004000020134A08B5938903F0800081B25A
:1036700051B1138803F0800081B229B1938923F0FE
:10368000800001040B0C938192890A4802F020010A
:103690008BB26BB1028802F020018BB243B107F00C
:1036A000C6FC0549C0B20122BDE80840FFF71CBFB7
:1036B00008BD00BF003801402C00002070B53E4816
:1036C0008AB001243D4B00251C210226047002A86B
:1036D0001C708DF808108DF809608DF80A508DF86F
:1036E0000B4006F055FD102047236322ADF80E0075
:1036F00003A94FF08040ADF80C30ADF81020ADF8C4
:1037000012508DF8145007F0BDF9224621464FF0B3
:10371000804007F019FB21464FF0804007F0EDFB99
:1037200021464FF0804007F0F5FA26218DF8096018
:1037300002A808268DF808108DF80A508DF80B4065
:1037400006F026FDADF80460042603220DEB060109
:103750001B488DF806208DF8076006F02BFFADF8AA
:103760001C50ADF81E50ADF82050ADF82450154D4A
:103770004FF4E133284606A90693ADF8226007F01E
:10378000CFFB2246284640F2255107F02DFC284663
:10379000214607F01DFC23464FF47A710A4A0B4874
:1037A00006F09AFC4FF47A71094A2346094806F05C
:1037B00093FC0AB070BD00BF2C0000200400002064
:1037C0000008014000440040F5330008DC1D0020E3
:1037D000FF330008D81D0020014B33F8100070475C
:1037E000EA1D002037B54823012403251B4801A901
:1037F0008DF80730ADF804408DF8065006F0DAFE7B
:103800001648214606F026FFA04225D010200824A5
:103810008DF8070001A91148ADF804408DF8065055
:1038200006F0C8FE21460D4806F01AFF3C2000F0C5
:103830005FF905240821094806F014FF782000F0FC
:103840003BF90821054806F00BFF782000F034F919
:10385000611E11F0FF04EDD13EBD00BF0008014024
:1038600010B50A4A52E8003F09490A480C68006846
:1038700042E800310029F4D1074A201A1168B0FB50
:10388000F1F24FF47A7101FB032010BD100A002001
:10389000041000E01C0A0020180A0020F8B55F4B55
:1038A0005F481A685F4902600B685A1C0A6006F09C
:1038B00033FC5D480278012A40F0AF805B490B7809
:1038C000002B40F0AA805A480178002940F0A580DA
:1038D000584B1878002840F0A08057490B78002BEF
:1038E00040F09B8055480178002940F09680544D67
:1038F0002B88581C81B2B1F57A7F94BF29802A8029
:10390000FFF7AEFF4F4B05461A681D604C4B801AFF
:103910001A884D49D30708601DD44C4B01205A78B2
:103920004B498242087002D1FEF73EFB03E0FDF7EF
:1039300043FFFEF75DFA474B47485A881988428093
:103940009B88464A01808380118845485388928825
:103950000180438082803A480A230288B2FBF3F157
:1039600003FB112082B2DAB9384F3E4C0126BF78F2
:1039700026703D4CB742237809D11BB9FEF7CAFC2B
:1039800027700DE0FEF7E0FC3848077008E01BB92F
:10399000FDF7CEFF267003E0FDF7E0FF33490E7020
:1039A000274A14201388B3FBF0F100FB113290B2C8
:1039B00010B92F4A012111700133642093FBF0F1FB
:1039C00000FB11321AB9FEF751F92A4B18701C4846
:1039D00064220388B3FBF2F102FB113082B212B908
:1039E000254801210170C822B3FBF2F102FB11301E
:1039F00082B212B92148012101704FF47A72B3FBEF
:103A0000F2F102FB113398B210B91D4901220A707C
:103A1000FFF726FF1B4B401B1860F8BD041000E0A9
:103A20001C0A0020100A0020090A0020250A002094
:103A3000C0090020260A0020270A0020D109002002
:103A4000220A00203C1E0020181E0020641F0020B7
:103A50000A0A0020A60D0020B80D0020BE0D00208F
:103A6000A00D0020150A0020D0090020D209002056
:103A70000C0A0020C2090020210A0020200A002090
:103A8000140A0020081E0020014B1868704700BF70
:103A9000100A002008B5074B596A11F0E05F0CBF0F
:103AA0004FF480400120090E04F004FBBDE80840FB
:103AB00006F070BF0010024010B50B4B1A680023CF
:103AC000094909688A1AD318084A1468B3FBF4F440
:103AD000844207D21268001BB3FBF2F402FB1433DA
:103AE0000A46EDE710BD00BF041000E0180A0020F0
:103AF00010B504462CB14FF47A70FFF7DDFF013C9E
:103B0000F8E710BD10B586B001A806F0C5FE019B10
:103B10007A4A7B49B3FBF2F07A4C0860E2687A4853
:103B200042F08073E3600168784A41F00104046068
:103B300010684FF47A73B0FBF3F14C1EB4F1807F40
:103B400009D27348734A4460F0230021072482F8A5
:103B50002330816004601D20012106F0F7FE012161
:103B60004FF4006006F0F2FE0120014606F0FAFE76
:103B70000220012106F0F6FE0420012106F0F2FEEB
:103B800001214FF4007006F0E1FE01214FF4804066
:103B900006F0DCFE01214FF4003006F0E3FE0121C7
:103BA0004FF4800006F0DEFE0120014606F0C2FE62
:103BB0000121022006F0BEFE002004F077F803F099
:103BC000BDFF554890F88830012B01D1FFF70AFE60
:103BD000FFF760FF4FF4A06006F0D0FA05F0E2F9BD
:103BE0004FF4E130FEF7F0FDFEF730FFFEF71AFD6F
:103BF00008214A4806F036FD42F21070FFF778FFC0
:103C00004748FEF7BEFE47484749FEF7BAFE474A17
:103C10003A4C11688A034CBF45484648FEF7A8FE57
:103C200001A806F039FE059B4348B3FBF4F1FEF70B
:103C3000A8FE029A4148B2FBF4F1FEF7A2FE0399F6
:103C40003F48B1FBF4F1FEF79CFE049B3D48B3FBFB
:103C5000F4F1FEF796FE019A3B48B2FBF4F1FEF751
:103C600090FE2D484478012C04460CBF3748384854
:103C7000FEF77EFEA17801290CBF36483648FEF7D4
:103C800077FE254B93F888200AB9344800E0344881
:103C9000FEF76EFE42F21070FFF72AFF1F48102158
:103CA00006F0E0FC03F06EFD1B4890F88840012C04
:103CB000044602D1FFF702FD01E0FFF745FA29486B
:103CC000FFF78AF804F07AFA05F0B2FB617801296F
:103CD00002D1FEF7EDFA03E0FDF70CFEFEF742F924
:103CE000FDF7F4FF0C4B9A78012A02D1FEF710FC85
:103CF00001E0FDF725FF06B010BD00BF40420F00F8
:103D0000180A0020F0ED00E0001000E0140100208F
:103D100010E000E000ED00E0641F0020000C014016
:103D2000D835010829360108633601080010024021
:103D3000673601088B360108B6360108C936010816
:103D4000DB360108ED360108FF3601082957010866
:103D50009E570108F85901080C5A0108123701084A
:103D60002B3701080058004010B1034A034B1A607A
:103D700003480449C8607047EFBEADDEF04F002035
:103D80000400FA0500ED00E0F8B5002506460F46F0
:103D90002C46FEF7B9FD28B90A200135FFF7A8FE29
:103DA000EDB205E0FEF7BEFD30550134E4B200256A
:103DB00024B1331913F8010C3B2803D0042D01D88A
:103DC000BC42E6D3002131553046F8BD30B5002560
:103DD00085B001A82946092200950AF079FD2C46F4
:103DE000FEF792FD30B90A200135FFF781FEEDB2F2
:103DF000BCB10CE0FEF796FD04AA1319013414F0CF
:103E0000FF0403F8100C01D12546E9E7002504A8BA
:103E1000011911F8112C3B2A05D0042D03D80B2CC5
:103E200000E0042DDCD904AB00201C1904F8100CB0
:103E3000684606F021F805B030BD000038B5104BDB
:103E4000282505FB0035FFF7C1FF6860FFF7BEFFBF
:103E5000A860FFF7BBFFE860FFF7B8FF2861FFF736
:103E6000B5FFA86100206861E86128626862FFF719
:103E7000ADFFFDF713F92C1D85F8280038BD00BFF4
:103E8000742000202DE9F04F8FB0FEF73DFD30B1DA
:103E9000754B197819B9FEF745FD744A1070734CCB
:103EA00023783F3B3B2B00F20B85DFE813F07E04C9
:103EB0000905B403B903C103C603CB0331040905E3
:103EC00009053604090509053E04090546044904A7
:103ED0004C0409054F04570459045C045F04710441
:103EE00076047B047B040905090509050905090514
:103EF00009053C00ED008E01C701F9010C02220208
:103F000024023A0255029D02BB02D1020905D302E6
:103F1000DB027604F1021C034D0363037D030905F4
:103F200078049F03A203DFF85481DFF854A1D8F886
:103F30001401FCF77BFA0446D8F818010B940A9197
:103F4000FCF774FA0646D8F81C010F46FCF76EFA27
:103F50000446D8F820010D46FCF768FACDE90C01BB
:103F6000D8F82801FCF762FADFF8189198F838C100
:103F70000B9ABCF1000F0CBFD646CE46CDF820E020
:103F80000A9BCDE90245CDE90601CDE90067DDE9EF
:103F90000C673748CDE90467FEF7F3FCD8F83C011D
:103FA000FCF744FA0746D8F840010B970A91FCF752
:103FB0003DFA0446D8F844010D46FCF737FA0646A8
:103FC000D8F848010F46FCF731FACDE90C01D8F8D2
:103FD0005001FCF72BFA98F86031CDE90045002B31
:103FE0000CBFD446CC46CDF820C0DDE90C23CDE98A
:103FF0000267CDE90423CDE906010B9A0A9B1D480F
:10400000FEF7BFFCD8F86401FCF710FA0446D8F8B4
:1040100068010B940A91FCF709FA0446D8F86C0180
:104020000D46FCF703FA0646D8F870010F46FCF778
:10403000FDF9CDE90C01D8F87801FCF7F7F998F80B
:1040400088E1CDE90045DDE90C45BEF1000F08BF70
:10405000D146CDE90601CDE90267CDE90445CDF8A9
:1040600020900548AEE000BF240A00205400002044
:104070006B370108A3370108DA370108641F0020F5
:104080005937010853370108DFF8F482DFF8F8A246
:10409000D8F88C01FCF7CAF90646D8F890010B96BF
:1040A0000A91FCF7C3F90646D8F894010F46FCF7CD
:1040B000BDF90446D8F898010D46FCF7B7F9CDE9EB
:1040C0000C01D8F8A001FCF7B1F9DFF8B89298F824
:1040D000B0E10B9ABEF1000F0CBFD446CC46CDF830
:1040E00020C00A9BCDE90067CDE90601CDE9024574
:1040F000DDE90C459F48CDE90445FEF742FCD8F8C0
:10410000B401FCF793F90546D8F8B8010B950A916C
:10411000FCF78CF90446D8F8BC010D46FCF786F98B
:104120000646D8F8C0010F46FCF780F9CDE90C012E
:10413000D8F8C801FCF77AF998F8D8210A9B002A28
:104140000CBFD646CE46CDF820E00B9ACDE900450F
:10415000CDE90601CDE90267DDE90C678648CDE9C6
:104160000467FEF70EFCD8F8DC01FCF75FF90746A0
:10417000D8F8E0010B970A91FCF758F90446D8F8F3
:10418000E4010D46FCF752F90646D8F8E8010F465F
:10419000FCF74CF9CDE90C01D8F8F001FCF746F931
:1041A00098F80022CDE90045DDE90C45CDE902672C
:1041B000CDE90445002A08BFD146CDE906016F4884
:1041C000CDF820900B9A0A9B32E06D4CD4F8040293
:1041D000FCF72CF98246D4F808028B46FCF726F946
:1041E0008046D4F80C028946FCF720F90646D4F83C
:1041F00010020F46FCF71AF9CDE90C01D4F81802A9
:10420000FCF714F994F828C25E4A5F4BDDE90C45CF
:10421000CDE90089CDE90267CDE90445BCF1000F85
:1042200018BF1346CDE906015848089352465B462D
:10423000FEF7A7FB564978200870B0E2504C514D6C
:10424000D4F82C02FCF7F2F88246D4F830028B4600
:10425000FCF7ECF88046D4F834028946FCF7E6F81F
:104260000646D4F838020F46FCF7E0F8CDE90C0119
:10427000D4F84002FCF7DAF894F850E2424BCDE96A
:104280000601BEF1000F18BF2B46CDE90089DDE91C
:104290000C45CDE90267CDE9044508933D48C5E7E3
:1042A0003D493E4A08683E49009013683D4A0193E3
:1042B00008683D49029013683C4A03933C480968EA
:1042C00012683C4B11E03C4A3C4913683C4A00935D
:1042D00008683C49019013683B4A029308683B4BCD
:1042E0000390116832481A68394B1B68FEF749FB86
:1042F00055E2384E00E0384E3068FCF797F8044637
:1043000070680D46FCF792F8CDE90001B068FCF743
:104310008DF82246CDE902012B463048FEF731FBED
:104320003DE22C4E2E49706AFCF7CCFCFCF77EF87F
:1043300004460D46B06A2A49FCF7C4FCFCF776F83F
:10434000CDE900012649F06AFCF7BCFCFCF76EF8E9
:10435000CDE9020123485AE01E4E306BFCF766F8A7
:104360000446706B0D46FCF761F8CDE90001B06BB7
:10437000CDE700BF113801084D3801088838010821
:10438000641F00205337010859370108C33801085A
:1043900054000020F6380108501E0020601E002046
:1043A000301E00200C1E0020181E0020341E00208D
:1043B00026390108281E0020541E0020201E00203F
:1043C000101E0020401E0020081E0020381E002065
:1043D000241E0020241F00207C0A0020955801087C
:1043E000E02E65428C0D00209A4DA868FCF71EF85F
:1043F000994B0446D86B0D46FCF718F8CDE900013F
:1044000096490868FCF712F8CDE902019448006863
:10441000FCF70CF82246CDE904012B469148FEF743
:10442000B0FABCE18C4E9049B069FCF74BFCFBF74D
:10443000FDFF04460D46F0698B49FCF743FCFBF792
:10444000F5FFCDE900018849306AFCF73BFC5EE7E7
:10445000864E51E7864A1068FBF7E8FF02460B4696
:10446000844884E08448C4890189827A83890094DD
:10447000048A0194448A0294848A0394C48A04942A
:10448000048B0594408B06907C48FEF77AFA86E10F
:104490007B4D297809B97B4802E0012902D17A488D
:1044A000FEF766FA794A1378012B0CBF78487948F1
:1044B000FEF75EFA7848FEF75BFA7848017804293F
:1044C00000F26D81DFE801F0030507090B00744875
:1044D00006E0744804E0744802E0744800E0744860
:1044E000FEF746FA5BE1734890F88810012917D16E
:1044F000714A137893B100246F48704B01784A1EBB
:10450000944207DA33F914106D480134FEF739FA92
:10451000E4B2F1E76B4833F9121012E06A48DFE7C2
:1045200000242046FEF76EFE01340146E4B26748DF
:10453000FEF727FA072CF4D12046FEF763FE01466A
:104540006348FEF71EFA2AE10024624D6059FBF72A
:104550006DFF043402460B465F48FEF712FA1C2C2E
:10456000F3D1E869FBF762FF02465C480B46FEF7B1
:1045700008FA14E15A4E5B4D5B4C31785B480029D8
:104580000CBF29462146FEF7FCF972785748002AED
:104590000CBF29462146FEF7F4F9B3785448002BA6
:1045A0000CBF29462146CCE7524C4548B4F8401090
:1045B00089B2FEF7E6F9A28F414891B2FEF7E1F920
:1045C000238F3F4899B2FEF7DCF9A18E3C4889B2AF
:1045D00004F59234FEF7D5F9B4F84020384891B28A
:1045E000FEF7CFF9A38E374899B2AAE701F05CFD38
:1045F000D8E0FEF79BF8FBF719FF1D4A0446106848
:104600000D46FBF713FF2246CDE900012B463A4841
:10461000FEF7B7F954E10020FFF710FC374803E03C
:104620000120FFF70BFC3648FEF7A2F96120B5E048
:104630000220FFF703FC3348F6E70320FFF7FEFBF9
:10464000314803E00420FFF7F9FB3048FEF790F90A
:104650006220A3E07C0A0020241F0020440B0020DD
:10466000E421002050390108E02E6542DC1E0020C4
:10467000B41E0020C5580108040000206C39010850
:10468000340B0020A8390108C1390108390B00207A
:10469000DA390108F6390108123A0108350B002011
:1046A0001E3A01083D3A01085F3A01087A3A0108CA
:1046B0009C3A0108641F0020080A0020EA1D00201F
:1046C000BE3A0108F5520108C53A0108EE3A010860
:1046D000F43A0108BC000020F93A0108013B010846
:1046E000DC000020653701085F370108083B01083E
:1046F000BF380108000800400D3B01081B3B0108C2
:10470000383B0108563B0108723B0108933B010806
:104710000520FFF793FB6C4898E70620FFF78EFB18
:104720006A48FEF725F9632038E00720FFF786FB8B
:104730006748FEF71DF9642030E000F02DFB2CE007
:1047400000F03AFD29E000F00BFF26E06148FEF79B
:104750000FF96420FFF7CCF9012014E05E480CE06B
:1047600001F0CCF919E000F04FF916E05B48FEF7D4
:10477000FFF8012003F09AFA5948FEF7F9F864208F
:10478000FFF7B6F900200FB0BDE8F04FFFF7ECBA25
:104790005448FEF7EDF803F01FFA7820207000214E
:1047A000514B8CE0782323708AE0504B0121504814
:1047B0001970FEF7DDF84F48FEF7DAF84E48FEF7BD
:1047C000D7F84E48FEF7D4F84D48FEF7D1F84D48DB
:1047D000FEF7CEF84C48FEF7CBF84C48FEF7C8F889
:1047E0004B48FEF7C5F84B48FEF7C2F84A48FEF7BB
:1047F000BFF84A48FEF7BCF84948FEF7B9F83C480C
:10480000FEF7B6F84748FEF7B3F8FEF77DF8002844
:10481000FBD0FEF787F8444A10701078202837D173
:104820003348FEF7A5F84148FEF7A2F84048FEF7E6
:104830009FF84048FEF79CF83F48FEF799F83F483C
:10484000FEF796F83E48FEF793F83E48FEF790F8DC
:104850003D48FEF78DF83D48FEF78AF83C48FEF7E4
:1048600087F83C48FEF784F83B48FEF781F820487B
:10487000FEF77EF82B48FEF77BF8FEF745F8002898
:10488000FBD0FEF74FF8284C20702178202903D068
:1048900015480122027010E01548FEF769F82F480C
:1048A000FEF766F82E48FEF763F82E48FEF760F82C
:1048B0000F48FEF75DF8782323700C4B0021197028
:1048C0000FB0BDE8F08F00BFB53B0108D03B010839
:1048D000E83B0108FD3B0108173C01082E3C01089C
:1048E0004C3C0108643C0108240A0020250A0020F1
:1048F00073630108843C0108ED3C0108563D010842
:10490000BF3D0108283E0108913E0108FA3E01081A
:10491000333F01086C3F0108D53F01080E400108F4
:1049200047400108B040010854000020E24001085F
:104930001B4101085541010892410108CD41010880
:10494000064201085142010887420108C542010898
:10495000004301084843010890430108C943010886
:10496000024401083B440108A0F13003D9B20929EF
:1049700001D8C8B20DE0A0F16102052A01D857386C
:1049800004E0A0F14103052B02D83738C0B200E0A3
:10499000FF2040B2704700002DE9F8430021044693
:1049A000D0F8747203F0C2F894F87132C4F874024B
:1049B000DB0704D544F20300002103F07BFB002554
:1049C000142D19D04FEA4519C9F51E79B9F1200FF8
:1049D000A8BF4FF0200904EB451800264E4506DA23
:1049E00018F806100648FDF7CCFF0136F6E7054833
:1049F000FDF7BEFF0135E3E7C4F87472BDE8F88344
:104A00007B440108736301082DE9F041A54B0122A5
:104A1000A548ADF51E7D1A70FDF7AAFFA348FDF766
:104A2000A7FFFDF771FF0028FBD0FDF77BFF0446D1
:104A30009F48FDF79DFF572C00F09F8137D8462CEB
:104A4000ECD029D8432C00F0A280452C00F08F81B7
:104A50003F2CE3D19648FDF794FF9648FDF791FF70
:104A60009548FDF78EFF9548FDF78BFF9448FDF7BD
:104A700088FF9448FDF785FF9348FDF782FF934830
:104A8000FDF77FFF8A48FDF77CFF9148FDF779FF2E
:104A90008748FDF776FFC1E7482C6DD0562CBDD175
:104AA0008C48FDF765FF012003F000F9B6E7652C9F
:104AB00000F0638104D8612C10D0632CAED141E0AA
:104AC000662CABD0782CA9D18348FDF751FF7549EE
:104AD000002008700DF51E7DBDE8F0817F4CD4F8F4
:104AE000746204F073FD04F095FD0021204603F08C
:104AF0001DF805467A48FDF744FF7A482178FDF70E
:104B000040FF79484FF41E71FDF73BFF774831466F
:104B1000FDF737FF76482946FDF733FFAE4202D056
:104B20007448FDF72EFF7448FDF72BFF94F871329F
:104B3000724A734913F0010F724818BF1146FDF70E
:104B400020FF6BE704F042FD04F064FD5848FDF7D8
:104B500018FF6248FFF720FF5548FDF712FF0121BB
:104B60005E4802F0E3FF684A90423FF457AF67485F
:104B7000FDF7FEFE66484FE76648FDF702FF574B1C
:104B800093F8710220F0010183F8711246E7FEF7F5
:104B90007BFF4FF41E710A464FF49E6380465E48C9
:104BA000FDF7EFFE5D48FDF7ECFE5D486421FDF783
:104BB000E8FE684600214FF41E7209F089FE0027C6
:104BC0003D466E46FDF7A0FE40B1FEF75DFF804614
:104BD000FDF79AFE48B1FDF7A5FE06E0FEF754FF8B
:104BE000C8EB00006328EDD9EFE70446FFF7BCFEF1
:104BF000202C0AD00A2C08D00D2C06D0B4F15F016D
:104C00004A4252EB010314B100E0012301375BB9C2
:104C1000421C0ED031780DB90001C0B240EA010249
:104C20003270761985F001059EA98E42CAD3ACB9BF
:104C300000E04CB96846311A05EB410139484FF4A0
:104C40009E62FDF79EFE82E09EAB9E4206D23648F3
:104C5000394622462346FDF794FE78E0002DF6D132
:104C60000121684602F062FF274CA04209D02F487C
:104C7000FDF787FE2E48FDF784FE6846FFF78CFEA1
:104C800065E004F0A3FC04F0C5FC14481DF8052001
:104C90002B5C9A4250D10135B5F51E7FF5D12548E0
:104CA00053E000BF250A0020804401089B4401080E
:104CB0007363010801480108284801087748010882
:104CC000BC4801080C49010856490108A5490108DA
:104CD000E4490108D447010899470108641F0020EE
:104CE000AA440108C9440108E0440108F744010846
:104CF0001045010829450108604501086037010891
:104D0000653701086D4501081CDF44218445010811
:104D1000CD45010807460108234601085F46010802
:104D20009A460108CA4601080347010839470108A5
:104D3000694701082A4A010869464FF41E7209F0C2
:104D400019FD1148FDF71DFE1048FDF71AFEFEF78C
:104D50009BFE0446FEF798FE021B632A3FF65EAEFA
:104D6000FDF7D2FD0028F5D0FDF7DCFDF2E708489D
:104D7000FDF7FEFD02F0E2FE50E60648FDF7F8FD05
:104D800002F02AFF4AE600BF644A01087F4A010890
:104D900085470108B34701082DE9FF41AB4B0122CC
:104DA000AB481A70FDF7E4FD00247826A948FDF70A
:104DB000DFFDFDF7A9FD10B9002CFAD003E014B90E
:104DC000FDF7B0FD0646A448FDF7D2FD482E00F0E1
:104DD000128113D8442E00F0DE8008D8412E00F056
:104DE000C280422E00F0C9803F2EDFD191E1462ED5
:104DF0009A4C00F0EE8000F2F580DAE04B2E00F0E5
:104E00005D8105D8492E00F006814A2ECED10EE1F3
:104E1000612E0BD0782E00F09E80572EC6D1904880
:104E2000FDF7A6FD02F0D8FE0024BFE78B4C8D48AD
:104E3000FDF79EFD94F8AC0003280CD8DFE800F0E5
:104E400002040608884804E0884802E0884800E038
:104E50008848FDF78DFD884988480978FDF791FD60
:104E6000B4F892108648FDF78CFDB4F8941085488C
:104E7000FDF787FDD4F8B0404FF07E512046FCF797
:104E8000B5F808B1804807E020468049FCF7AEF845
:104E900008B17F4800E07F48704CFDF772FD94F840
:104EA000AC202ABBB4F8B4107B48FDF76AFDD4F8F7
:104EB000B800FCF7F3F881B27848FDF762FDD4F84A
:104EC000BC00FCF7EBF881B27548FDF75AFDD4F849
:104ED000C000FCF7E3F881B27248FDF752FDD4F848
:104EE000C400FBF7A3FA02460B466F48FDF749FDE5
:104EF0005A4B93F8AC00032896D16C4893F8C8102D
:104F0000FDF73FFD0027554991F8C840BC421ED926
:104F10004FF00C0808FB0718D8F8CC00FBF786FA0E
:104F20000446D8F8D0000D46FBF780FACDE9000121
:104F3000D8F8D400FBF77AFA2246CDE902012B46D5
:104F400039465B480137FDF71CFDFFB2DBE74248FD
:104F5000FDF70EFD68E75748FDF70AFD3B4B0022C1
:104F60001A70BDE8FF81FEF731FFFCF797F83B4E62
:104F700086F8AC0004F016F824E0FEF727FFFCF7F3
:104F80008DF8364CA4F89200FEF720FFFCF786F867
:104F9000A4F8940016E0FEF719FF0021FCF744F88E
:104FA00010B14FF07E5300E0384B2C4EC6F8B030B5
:104FB000ACE094F8AC0040B9FEF708FFFCF76EF8DF
:104FC000A4F8B400FEF724F9A0E0FEF7FFFE3A488B
:104FD0009AE094F8AC20002AF7D1FEF7F7FEC4F867
:104FE000B80011E094F8AC100029EED1FEF7EEFE07
:104FF000C4F8BC0008E0194C94F8AC60002EE4D171
:10500000FEF7E4FEC4F8C000FCF748F881B20520C2
:10501000FEF78AF97AE0114E96F8AC100029D4D147
:10502000FEF7D4FEC6F8C40003F0C8F86EE00B4CDF
:1050300094F8AC00032864D1FEF7C8FEFCF72EF804
:1050400084F8C80003F0AEFF60E000BF250A00202E
:10505000B64A0108D04A010873630108641F0020A2
:10506000B3470108DE4A0108F64A0108084B010867
:105070001A4B01082C4B0108DC2100203E4B010893
:10508000684B0108914B0108BB4B0108000080BF31
:10509000E44B01080D4C0108364C01085F4C010837
:1050A000874C0108AF4C0108D84C0108024D01089B
:1050B000444D0108634D01087C4D01082F4C94F8C4
:1050C000AC50032D19D1FEF781FE8046FEF77EFE1F
:1050D0000746FEF77BFE06463846FBF7DFFF421E1B
:1050E0004046D7B2FBF7DAFF431ED8B205FB007586
:1050F00004EB8501C1F8CC6008E0FEF767FEFEF71F
:1051000065FEFEF763FE1E48FDF73BFC01246126A9
:105110004CE61C48FDF72CFC1B48FDF729FC1B48FE
:10512000FDF726FC1A48FDF723FC144890F8AC1054
:1051300071B91848FDF71CFC1748FDF719FC174812
:10514000FDF716FC1648FDF713FC1648FDF710FC9A
:105150000A4A92F8AC30032B05D11348FDF708FC3E
:105160001248FDF705FC1248FDF702FC1148FDF757
:10517000FFFB0448FDF7FCFB18E600BF641F00209E
:10518000A14D010873630108BE4D0108304E0108AE
:10519000904E0108EF4E01084A4F0108A44F010844
:1051A000FE4F010858500108BB5001081651010874
:1051B0007A510108C25101087FB5B54B0122B548AB
:1051C0001A70FDF7D5FB00257824B348FDF7D0FB16
:1051D000FDF79AFB10B9002DFAD003E015B9FDF7E1
:1051E000A1FB0446AD48FDF7C3FB452C00F01D8133
:1051F00024D8422C00F00C8105D83F2C00F07C8193
:10520000412CE2D1DFE0432C00F00A81442CDCD1B8
:10521000FEF7DCFDA24DC5F89800FEF7D7FDC5F8F6
:105220009C00FEF7D3FDC5F8A000FEF7CFFDC5F842
:10523000A400FEF7CBFDC5F8A80017E1572C00F03D
:10524000188110D8462C00F0FE80472CBDD1FEF707
:10525000BDFD9449FBF7EAFD9349FBF733FD904B05
:10526000C3F8800002E1612C08D0782CADD18F48C2
:10527000FDF77EFB8649002008707FBD884E8C4874
:10528000FDF776FB96F888501DB1012D04D18948B1
:1052900000E08948FDF76CFB8848FDF769FB0023B7
:1052A0007F4D04A95A1992F88A00854A0E18985C15
:1052B0000133082B06F80C0CF2D1002601A88DF85A
:1052C0000C60FDF755FB7548FDF752FB7D48FDF777
:1052D00058FB7D48FDF755FBD5F89800FBF7DEFE3F
:1052E00081B27A48FDF74DFBD5F89C00FBF7D6FE5E
:1052F00081B27748FDF745FBD5F8A000FBF7CEFE5D
:1053000081B27448FDF73DFBD5F8A400FBF7C6FE5B
:1053100081B27148FDF735FBD5F8A800FBF7BEFE5A
:1053200081B26E48FDF72DFBA86FFBF77FF854A301
:10533000D3E90023FBF7CEF853A3D3E90023FBF70F
:10534000F3F9FBF761FBFBF771F802460B46644883
:10535000FDF717FBE86FFBF769F849A3D3E90023D2
:10536000FBF7B8F848A3D3E90023FBF7DDF9FBF717
:105370004BFBFBF75BF802460B465A48FDF701FB77
:10538000D5F88000FBF752F83DA3D3E90023FBF7E3
:10539000A1F83DA3D3E90023FBF7C6F9FBF734FBE3
:1053A000FBF744F802460B464F48FDF7EAFA95F83A
:1053B0006C124E48FDF7E5FA95F86D124C48FDF772
:1053C000E0FA354601E71C20354E8DF80000002438
:1053D000684601258DF801408DF802508DF8034094
:1053E00004F0D6FE96F888204FF080403AB90221AA
:1053F00005F0AAFC86F88850FEF760F937E02946E8
:10540000224605F0A1FC86F88840FDF79DFE2EE0BF
:1054100001A80821FEF7B8FC01A802F06FFB25E007
:105420001F4A002182F8891020E0FEF7CFFCFBF72D
:1054300035FE1B4C84F86C02FEF7C8FCFBF72EFE11
:1054400084F86D0212E0FEF7C1FC1649FBF7EEFC92
:105450001549FBF737FC124CA067FEF7B7FC114962
:10546000FBF7E4FC1049FBF72DFCE0670125612404
:10547000ABE62048FDF77CFA02F0AEFBA5E600BFE4
:105480000000000000F9054100000060FB21094018
:10549000250A0020015201081E5201087363010809
:1054A000641F002000C82F48DB0F49404D540108FD
:1054B0002F5201085652010851520108605201084A
:1054C000BD69010881520108A2520108AF520108CA
:1054D000D5520108FB520108215301084753010826
:1054E0006E53010899530108C4530108F45301088D
:1054F00020540108B34701080F48FDF739FA0F4857
:10550000FDF736FA0E48FDF733FA0E48FDF730FA8C
:105510000D48FDF72DFA0D48FDF72AFA0C48FDF766
:1055200027FA0C48FDF724FA0B48FDF721FA024848
:10553000FDF71EFA49E600BF7363010869540108CC
:10554000B65401081555010892550108FD5501088A
:10555000715601087A510108BE560108AFF3008068
:10556000F0B59F4B012285B09E481A70FDF700FAF6
:10557000002478269C48FDF7FBF9FDF7C5F910B922
:10558000002CFAD003E014B9FDF7CCF90646974891
:10559000FDF7EEF9572E00F03B821ED8442E00F0A6
:1055A00007820AD8422E00F0F68100F2F9813F2EE0
:1055B00000F03582412EDDD1CDE14E2E00F000828B
:1055C000562E00F01382452ED4D1FEF7FFFB884CF7
:1055D000E066FEF7FBFB206717E2642E00F08B818C
:1055E00007D8622E00F07A8100F28281612EC1D14B
:1055F00013E0702E00F0968102D86D2EBAD182E1B0
:10560000762E00F09C81782EB4D17A48FDF7B0F95F
:10561000734B0020187005B0F0BD754F7D78012DDB
:1056200027D17548FDF7A4F9F869FAF7FFFE04469B
:10563000386A0D46FAF7FAFECDE90001786AFAF702
:10564000F5FE22462B46CDE902016C48FDF799F99B
:10565000B86AFAF7EBFE0446F86A0D46FAF7E6FE7A
:10566000CDE90001386BFAF7E1FECDE902016448AB
:1056700026E06448FDF77CF93869FAF7D7FE04465E
:1056800078690D46FAF7D2FECDE90001B869FAF75C
:10569000CDFE22462B46CDE902015B48FDF771F9AC
:1056A0007868FAF7C3FE0446B8680D46FAF7BEFEFE
:1056B000CDE90001F868FAF7B9FECDE902015348D7
:1056C0004B4F22462B46FDF75CF9786BFAF7AEFE9E
:1056D0000446B86B0D46FAF7A9FECDE90001F86B58
:1056E000FAF7A4FE22462B46CDE902014848FDF711
:1056F00048F9386CFAF79AFE0446786C0D46FAF7CA
:1057000095FECDE90001B86CFAF790FE22462B46D3
:10571000CDE902013F48FDF734F9F86CFAF786FE4F
:105720000446386D0D46FAF781FECDE90001786D2B
:10573000FAF77CFE2246CDE902012B463648FDF7FA
:1057400020F936480068FAF771FE02460B463448E5
:10575000FDF717F9B86DFAF769FE02460B463148B6
:10576000FDF70FF9F86DFAF761FE02460B462E4879
:10577000FDF707F9386EFAF759FE02460B462B483B
:10578000FDF7FFF8786EFAF751FE02460B462848FF
:10579000FDF7F7F8B86EFAF749FE02460B462548C2
:1057A000FDF7EFF8F86EFAF741FE02460B46224885
:1057B000FDF7E7F8386FFAF739FE02460B461F4847
:1057C000FDF7DFF87B78012B45D11D48FDF7D0F8B8
:1057D00097F8741003293ED8DFE801F03436383AE0
:1057E000250A0020FE5601081957010873630108B5
:1057F000641F0020445B0108285701083D57010839
:105800006D5701089D570108BA570108EA5701086A
:105810001A5801084A5801087A5801080000002067
:10582000AA580108CC580108EE580108105901087F
:10583000325901085459010876590108985901084C
:10584000BA5901088E4804E08E4802E08E4800E014
:105850008E48FDF78DF8BA788D4C012A0CBF8D4823
:105860008D48FDF785F894F8700201280CBF8B482D
:105870008B48FDF77DF8D4F85802FAF7D7FD0246B9
:105880000B468848FDF77DF8D4F85C02FAF7CEFDA8
:1058900002460B468448FDF774F894F85412834886
:1058A000FDF76FF8D4F86002FAF7C0FD02460B4628
:1058B0007F48FDF766F8D4F86402FAF7B7FD0246B0
:1058C0000B467C48FDF75DF8D4F86802FAF7AEFDA8
:1058D00002460B467848FDF754F89EE06C4E74780B
:1058E000012C02D100F0B8FE90E000F079FD8CE0D0
:1058F00000F0F0FC89E066494A78002A7FF43AAE6D
:1059000000F02EFA81E0624B597831B100225A70D2
:10591000FBF7F0FFFCF726FB77E001245C70FCF757
:10592000C7FC73E05A480124837823B100268670AF
:10593000FCF706F96AE08470FCF7EAFD66E0544E75
:10594000012496F8701219B1002286F870225DE0E9
:1059500086F870425AE04E4D687801287FF40AAE0E
:10596000FEF734FAFBF79AFBC1B203290CD8DFE843
:1059700001F002040608002404E0012402E00224ED
:1059800000E0032485F8744068201A2195F87420FB
:10599000FDF784FB39E0FEF719FA3D49886534E0EC
:1059A000FEF714FA3A4EF065FEF710FA30662CE076
:1059B000FEF70CFA364E7066FEF708FAB06624E081
:1059C000FEF704FA324CC4F86002FEF7FFF9C4F89F
:1059D0006402FEF7FBF9394BD4F86022D4F8641264
:1059E000C4F868021A60996018610EE0FEF7EEF9DB
:1059F000274EC6F85802FEF7E9F9C6F85C02FEF732
:105A0000E5F9FBF74BFB86F8540201246126B1E56A
:105A10002B48FCF7ADFF02F0DFF80024AAE51C4D8F
:105A20002848FCF7A5FF6A78012A0CBF26482748BA
:105A3000FCF79EFF2648FCF79BFF2648FCF798FFE3
:105A40006B78012B0CBF24482448FCF791FF2448B5
:105A5000FCF78EFF2348FCF78BFF2348FCF788FFF9
:105A60002248FCF785FF2248FCF782FF2148FCF71B
:105A70007FFF2148FCF77CFF1248FCF779FF79E5AE
:105A8000D9590108E1590108E9590108F0590108FB
:105A9000641F0020F75901080B5A01081F5A01081A
:105AA0003D5A0108635A0108855A0108A75A01089E
:105AB000CB5A0108F35A01081B5B01089C1E002009
:105AC000B3470108736301085E5B0108BD5B010811
:105AD000D65B0108385C01089A5C0108FC5C01088F
