:020000040800F2
:100000000050002005170008F9900008FB90000838
:10001000FD900008FF90000801910008000000001A
:100020000000000000000000000000000391000834
:100030000591000800000000079100089D380008A5
:10004000B5170008B5170008B5170008B517000860
:10005000B5170008B5170008B5170008B517000850
:10006000B5170008B5170008B5170008B517000840
:10007000B5170008B517000895270008B517000840
:10008000B5170008B5170008B5170008B517000820
:10009000B5170008B5170008B5170008B517000810
:1000A000B5170008B5170008B5170008B517000800
:1000B00049330008B5170008B5170008B517000840
:1000C000B5170008AD2A0008AD300008B5170008C4
:1000D000B5170008653600080D360008B51700088A
:1000E000B5170008B5170008B51700080000000094
:1000F0000000000000000000000000000000000000
:0C01000000000000000000005FF808F1A3
:1001100010B5054C237833B9044810B10448AFF347
:1001200000800121217010BDA40900200000000002
:100130008068010808B5064B1BB106480649AFF3B5
:1001400000800648016811B1054A02B1904708BD18
:100150000000000080680108A8090020A409002010
:100160000000000081F0004102E000BF83F0004386
:1001700030B54FEA41044FEA430594EA050F08BF42
:1001800090EA020F1FBF54EA000C55EA020C7FEA06
:10019000645C7FEA655C00F0E2804FEA5454D4EB83
:1001A0005555B8BF6D420CDD2C4480EA020281EA4D
:1001B000030382EA000083EA010180EA020281EA85
:1001C0000303362D88BF30BD11F0004F4FEA0131D7
:1001D0004FF4801C4CEA113102D0404261EB4101E6
:1001E00013F0004F4FEA03334CEA133302D052426C
:1001F00063EB430394EA050F00F0A780A4F1010428
:10020000D5F1200E0DDB02FA0EFC22FA05F2801861
:1002100041F1000103FA0EF2801843FA05F3594147
:100220000EE0A5F120050EF1200E012A03FA0EFCC6
:1002300028BF4CF0020C43FA05F3C01851EBE371F0
:1002400001F0004507D54FF0000EDCF1000C7EEB0D
:1002500000006EEB0101B1F5801F1BD3B1F5001F4B
:100260000CD349085FEA30004FEA3C0C04F101046A
:100270004FEA445212F5800F80F09A80BCF1004F93
:1002800008BF5FEA500C50F1000041EB045141EA15
:10029000050130BD5FEA4C0C404141EB010111F416
:1002A000801FA4F10104E9D191F0000F04BF0146C1
:1002B0000020B1FA81F308BF2033A3F10B03B3F19F
:1002C00020020CDA0C3208DD02F1140CC2F10C022F
:1002D00001FA0CF021FA02F10CE002F11402D8BF8D
:1002E000C2F1200C01FA02F120FA0CFCDCBF41EA59
:1002F0000C019040E41AA2BF01EB0451294330BD28
:100300006FEA04041F3C1CDA0C340EDC04F1140404
:10031000C4F1200220FA04F001FA02F340EA0300DB
:1003200021FA04F345EA030130BDC4F10C04C4F121
:10033000200220FA02F001FA04F340EA0300294601
:1003400030BD21FA04F0294630BD94F0000F83F44B
:10035000801306BF81F480110134013D4EE77FEA2E
:10036000645C18BF7FEA655C29D094EA050F08BF7A
:1003700090EA020F05D054EA000C04BF194610465B
:1003800030BD91EA030F1EBF0021002030BD5FEA9F
:10039000545C05D14000494128BF41F0004130BDC7
:1003A00014F580043CBF01F5801130BD01F000451B
:1003B00045F0FE4141F470014FF0000030BD7FEA8E
:1003C000645C1ABF194610467FEA655C1CBF0B4689
:1003D000024650EA013406BF52EA033591EA030FA0
:1003E00041F4002130BD00BF90F0000F04BF002198
:1003F000704730B54FF4806404F132044FF00005CB
:100400004FF0000150E700BF90F0000F04BF002143
:10041000704730B54FF4806404F1320410F00045A9
:1004200048BF40424FF000013EE700BF42004FEAA4
:10043000E2014FEA31014FEA02701FBF12F07F4321
:1004400093F07F4F81F06051704792F0000F14BF1E
:1004500093F07F4F704730B54FF4607401F0004562
:1004600021F0004120E700BF50EA010208BF7047B9
:1004700030B54FF000050AE050EA010208BF7047AE
:1004800030B511F0004502D5404261EB41014FF417
:10049000806404F132045FEA915C3FF4DCAE4FF01B
:1004A00003025FEADC0C18BF03325FEADC0C18BF02
:1004B000033202EBDC02C2F1200300FA03FC20FA53
:1004C00002F001FA03FE40EA0E0021FA02F11444A0
:1004D000C1E600BF70B54FF0FF0C4CF4E06C1CEAB5
:1004E00011541DBF1CEA135594EA0C0F95EA0C0F2A
:1004F00000F0DEF82C4481EA030621EA4C5123EA9D
:100500004C5350EA013518BF52EA033541F48011CB
:1005100043F4801338D0A0FB02CE4FF00005E1FB7E
:1005200002E506F00042E0FB03E54FF00006E1FBC8
:1005300003569CF0000F18BF4EF0010EA4F1FF040B
:10054000B6F5007F64F5407404D25FEA4E0E6D414B
:1005500046EB060642EAC62141EA55514FEAC5205C
:1005600040EA5E504FEACE2EB4F1FD0C88BFBCF5D8
:10057000E06F1ED8BEF1004F08BF5FEA500E50F189
:10058000000041EB045170BD06F0004646EA01014F
:1005900040EA020081EA0301B4EB5C04C2BFD4EB81
:1005A0000C0541EA045170BD41F480114FF0000E7A
:1005B000013C00F3AB8014F1360FDEBF002001F0E8
:1005C000004170BDC4F10004203C35DA0C341BDC62
:1005D00004F11404C4F1200500FA05F320FA04F034
:1005E00001FA05F240EA020001F0004221F0004168
:1005F00010EBD37021FA04F642EB06015EEA430EDB
:1006000008BF20EAD37070BDC4F10C04C4F120050A
:1006100000FA04F320FA05F001FA04F240EA0200BD
:1006200001F0004110EBD37041F100015EEA430E8E
:1006300008BF20EAD37070BDC4F1200500FA05F2AE
:100640004EEA020E20FA04F301FA05F243EA02032D
:1006500021FA04F001F0004121FA04F220EA02003C
:1006600000EBD3705EEA430E08BF20EAD37070BD82
:1006700094F0000F0FD101F00046400041EB010162
:1006800011F4801F08BF013CF7D041EA060195F044
:10069000000F18BF704703F00046520043EB0303FE
:1006A00013F4801F08BF013DF7D043EA06037047EB
:1006B00094EA0C0F0CEA135518BF95EA0C0F0CD0F6
:1006C00050EA410618BF52EA4306D1D181EA03013C
:1006D00001F000414FF0000070BD50EA410606BF36
:1006E0001046194652EA430619D094EA0C0F02D17B
:1006F00050EA013613D195EA0C0F05D152EA0336C0
:100700001CBF104619460AD181EA030101F00041DD
:1007100041F0FE4141F470014FF0000070BD41F026
:10072000FE4141F4780170BD70B54FF0FF0C4CF400
:10073000E06C1CEA11541DBF1CEA135594EA0C0F1F
:1007400095EA0C0F00F0A7F8A4EB050481EA030E6C
:1007500052EA03354FEA013100F088804FEA033353
:100760004FF0805545EA131343EA12634FEA022221
:1007700045EA111545EA10654FEA00260EF00041E2
:100780009D4208BF964244F1FD0404F5407402D234
:100790005B084FEA3202B61A65EB03055B084FEAC5
:1007A00032024FF480104FF4002CB6EB020E75EBC2
:1007B000030E22BFB61A754640EA0C005B084FEAEA
:1007C0003202B6EB020E75EB030E22BFB61A754667
:1007D00040EA5C005B084FEA3202B6EB020E75EBB2
:1007E000030E22BFB61A754640EA9C005B084FEA2A
:1007F0003202B6EB020E75EB030E22BFB61A754637
:1008000040EADC0055EA060E18D04FEA051545EA25
:1008100016754FEA06164FEAC30343EA52734FEACE
:10082000C2025FEA1C1CC0D111F4801F0BD141EA47
:1008300000014FF000004FF0004CB6E711F4801FAC
:1008400004BF01430020B4F1FD0C88BFBCF5E06F8C
:100850003FF6AFAEB5EB030C04BFB6EB020C5FEA9C
:10086000500C50F1000041EB045170BD0EF0004EF1
:100870004EEA113114EB5C04C2BFD4EB0C0541EA23
:10088000045170BD41F480114FF0000E013C90E620
:1008900045EA060E8DE60CEA135594EA0C0F08BFE4
:1008A00095EA0C0F3FF43BAF94EA0C0F0AD150EAE3
:1008B00001347FF434AF95EA0C0F7FF425AF104676
:1008C00019462CE795EA0C0F06D152EA03353FF49E
:1008D000FDAE1046194622E750EA410618BF52EA1B
:1008E00043067FF4C5AE50EA41047FF40DAF52EAEF
:1008F00043057FF4EBAE12E74FF0FF3C06E000BF8C
:100900004FF0010C02E000BF4FF0010C4DF804CD98
:100910004FEA410C7FEA6C5C4FEA430C18BF7FEA58
:100920006C5C1BD001B050EA410C0CBF52EA430C86
:1009300091EA030F02BF90EA020F0020704710F106
:10094000000F91EA030F58BF994208BF90422CBF95
:10095000D8176FEAE37040F0010070474FEA410C8E
:100960007FEA6C5C02D150EA013C07D14FEA430CAC
:100970007FEA6C5CD6D152EA033CD3D05DF8040B1D
:10098000704700BF8446104662468C46194663464F
:1009900000E000BF01B5FFF7B7FF002848BF10F126
:1009A000000F01BD4DF808EDFFF7F4FF0CBF01206B
:1009B00000205DF808FB00BF4DF808EDFFF7EAFFE7
:1009C00034BF012000205DF808FB00BF4DF808EDA2
:1009D000FFF7E0FF94BF012000205DF808FB00BF97
:1009E0004DF808EDFFF7CEFF94BF012000205DF821
:1009F00008FB00BF4DF808EDFFF7C4FF34BF01202E
:100A000000205DF808FB00BF4FEA4102B2F1E0436D
:100A100024BFB3F5001CDCF1FE5C0DD901F0004CE5
:100A20004FEAC0024CEA5070B2F1004F40EB830035
:100A300008BF20F00100704711F0804F21D113F161
:100A40003872BCBF01F00040704741F480114FEA9A
:100A50005252C2F11802C2F1200C10FA0CF320FA23
:100A600002F018BF40F001004FEAC1234FEAD32340
:100A700003FA0CFC40EA0C0023FA02F34FEA4303AA
:100A8000CCE77FEA625307D150EA01331EBF4FF033
:100A9000FE4040F44000704701F0004040F0FE404E
:100AA00040F40000704700BF80F0004002E000BF4B
:100AB00081F0004142001FBF5FEA410392EA030F49
:100AC0007FEA226C7FEA236C6AD04FEA1262D2EB93
:100AD0001363C1BFD218414048404140B8BF5B4298
:100AE000192B88BF704710F0004F40F4000020F031
:100AF0007F4018BF404211F0004F41F4000121F047
:100B00007F4118BF494292EA030F3FD0A2F1010290
:100B100041FA03FC10EB0C00C3F1200301FA03F1CE
:100B200000F0004302D5494260EB4000B0F5000FF1
:100B300013D3B0F1807F06D340084FEA310102F1B0
:100B40000102FE2A51D2B1F1004F40EBC25008BF62
:100B500020F0010040EA03007047490040EB00002C
:100B600010F4000FA2F10102EDD1B0FA80FCACF15B
:100B7000080CB2EB0C0200FA0CF0AABF00EBC2505A
:100B800052421843BCBFD0401843704792F0000F48
:100B900081F4000106BF80F400000132013BB5E79B
:100BA0004FEA41037FEA226C18BF7FEA236C21D011
:100BB00092EA030F04D092F0000F08BF0846704776
:100BC00090EA010F1CBF0020704712F07F4F04D144
:100BD000400028BF40F00040704712F100723CBF57
:100BE00000F50000704700F0004343F0FE4040F481
:100BF000000070477FEA226216BF08467FEA23633F
:100C00000146420206BF5FEA412390EA010F40F429
:100C1000800070474FF0000304E000BF10F0004375
:100C200048BF40425FEA000C08BF704743F096435C
:100C300001464FF000001CE050EA010208BF704777
:100C40004FF000030AE000BF50EA010208BF7047FE
:100C500011F0004302D5404261EB41015FEA010C13
:100C600002BF84460146002043F0B64308BFA3F10B
:100C70008053A3F50003BCFA8CF2083AA3EBC253ED
:100C800010DB01FA02FC634400FA02FCC2F120020C
:100C9000BCF1004F20FA02F243EB020008BF20F043
:100CA0000100704702F1200201FA02FCC2F12002A9
:100CB00050EA4C0021FA02F243EB020008BF20EA9E
:100CC000DC7070474FF0FF0C1CEAD0521EBF1CEACC
:100CD000D15392EA0C0F93EA0C0F6FD01A4480EABA
:100CE000010C400218BF5FEA41211ED04FF00063A3
:100CF00043EA501043EA5111A0FB01310CF00040CF
:100D0000B1F5000F3EBF490041EAD3715B0040EAF4
:100D1000010062F17F02FD2A1DD8B3F1004F40EBC4
:100D2000C25008BF20F00100704790F0000F0CF097
:100D3000004C08BF49024CEA502040EA51207F3A5B
:100D4000C2BFD2F1FF0340EAC250704740F4000036
:100D50004FF00003013A5DDC12F1190FDCBF00F027
:100D600000407047C2F10002410021FA02F1C2F1D5
:100D7000200200FA02FC5FEA310040F1000053EA71
:100D80004C0308BF20EADC70704792F0000F00F0BF
:100D9000004C02BF400010F4000F013AF9D040EAC5
:100DA0000C0093F0000F01F0004C02BF490011F459
:100DB000000F013BF9D041EA0C018FE70CEAD15357
:100DC00092EA0C0F18BF93EA0C0F0AD030F0004CD7
:100DD00018BF31F0004CD8D180EA010000F000408B
:100DE000704790F0000F17BF90F0004F084691F049
:100DF000000F91F0004F14D092EA0C0F01D1420283
:100E00000FD193EA0C0F03D14B0218BF084608D14B
:100E100080EA010000F0004040F0FE4040F4000095
:100E2000704740F0FE4040F4400070474FF0FF0C28
:100E30001CEAD0521EBF1CEAD15392EA0C0F93EA6F
:100E40000C0F69D0A2EB030280EA010C49024FEAC1
:100E5000402037D04FF0805343EA111143EA10137A
:100E60000CF000408B4238BF5B0042F17D024FF432
:100E7000000C8B4224BF5B1A40EA0C00B3EB510F0D
:100E800024BFA3EB510340EA5C00B3EB910F24BFF6
:100E9000A3EB910340EA9C00B3EBD10F24BFA3EB7B
:100EA000D10340EADC001B0118BF5FEA1C1CE0D143
:100EB000FD2A3FF650AF8B4240EBC25008BF20F0F6
:100EC000010070470CF0004C4CEA50207F32C2BF4A
:100ED000D2F1FF0340EAC250704740F400004FF0E7
:100EE0000003013A37E792F0000F00F0004C02BF18
:100EF000400010F4000F013AF9D040EA0C0093F0E2
:100F0000000F01F0004C02BF490011F4000F013B3B
:100F1000F9D041EA0C0195E70CEAD15392EA0C0FA3
:100F200008D142027FF47DAF93EA0C0F7FF470AFDB
:100F3000084676E793EA0C0F04D14B023FF44CAF1E
:100F400008466EE730F0004C18BF31F0004CCAD1B3
:100F500030F000427FF45CAF31F000437FF43CAFEF
:100F60005FE700BF4FF0FF3C06E000BF4FF0010C11
:100F700002E000BF4FF0010C4DF804CD4FEA4002F3
:100F80004FEA41037FEA226C18BF7FEA236C11D03D
:100F900001B052EA530C18BF90EA010F58BFB2EBF0
:100FA000030088BFC81738BF6FEAE17018BF40F070
:100FB000010070477FEA226C02D15FEA402C05D124
:100FC0007FEA236CE4D15FEA412CE1D05DF8040BA9
:100FD000704700BF844608466146FFE70FB5FFF73C
:100FE000C9FF002848BF10F1000F0FBD4DF808EDF4
:100FF000FFF7F4FF0CBF012000205DF808FB00BFE5
:101000004DF808EDFFF7EAFF34BF012000205DF83E
:1010100008FB00BF4DF808EDFFF7E0FF94BF01208B
:1010200000205DF808FB00BF4DF808EDFFF7D2FF88
:1010300094BF012000205DF808FB00BF4DF808EDCB
:10104000FFF7C8FF34BF012000205DF808FB00BF98
:101050004FEA4002B2F1FE4F0FD34FF09E03B3EBC5
:1010600012620DD94FEA002343F0004310F0004F05
:1010700023FA02F018BF404270474FF0000070475B
:1010800012F1610F01D1420205D110F0004008BFFA
:101090006FF0004070474FF00000704742000ED2E2
:1010A000B2F1FE4F0BD34FF09E03B3EB126209D4A3
:1010B0004FEA002343F0004323FA02F070474FF059
:1010C0000000704712F1610F01D1420202D14FF0CE
:1010D000FF3070474FF00000704700BF4FEA4102F9
:1010E00012F5001215D211D56FF47873B3EB62527A
:1010F00012D94FEAC12343F0004343EA505311F0A1
:10110000004F23FA02F018BF404270474FF0000032
:10111000704750EA013005D111F0004008BF6FF070
:10112000004070474FF00000704700BF4BB942B914
:10113000002908BF002802D04FF0FF31084600F018
:101140003BB882B0EC462DE9005000F01DF8DDF808
:1011500004E002B00CBC70472DE9F04116469846F9
:1011600004460D4600F02AF806FB01FCA6FB00230E
:1011700000FB08C7FB18A21A65EB0303069CC4E931
:101180000023BDE8F08100BF2DE9F04190460646FE
:101190000F461D4600F070F900FB05F3A0FB084563
:1011A00008FB0138069B4544341B67EB0505C3E982
:1011B0000045BDE8F08100BF704700BF00292DE960
:1011C000F00F1D46C0F29D800024002DC0F29480D7
:1011D00080460F4694461E46E3BB8A4255D9B2FA72
:1011E00082F747B1C7F1200520FA05F601FA07F1A9
:1011F000BA40B8403143170CB1FBF7F61FFA82FC36
:1012000007FB16110CFB06F5030C43EA01439D4254
:1012100008D9711E9B1880F013819D4240F2108105
:10122000023E9B18591BB1FBF7F507FB15130CFB8E
:1012300005FC80B240EA03418C4507D96B1E8A1831
:1012400080F00081944540F2FD80023D45EA064170
:10125000002503E08B420CD9002529460A462B467F
:1012600014B1524263EB430310461946BDE8F00F38
:101270007047B3FA83F5002D40F087808B4201D38D
:101280008242EAD800250121E8E712B90126B6FB1F
:10129000F2F2B2FA82F6002E39D18E1A130C1FFA2E
:1012A00082FC0125B6FBF3F703FB17610CFB07F883
:1012B0004FEA104949EA0146B04506D9791EB618E9
:1012C00002D2B04500F2D3800F46C8EB0606B6FB4B
:1012D000F3F103FB11630CFB01FC80B240EA034312
:1012E0009C4506D94E1E9A1802D2944500F2C2803F
:1012F000314641EA0741B1E7E443524263EB43031D
:1013000066E7404261EB41014FF0FF345DE7B240D8
:10131000C6F1200921FA09F720FA09F901FA06F1C4
:10132000130CB7FBF3F81FFA82FC03FB18770CFBD6
:1013300008F549EA01094FEA194141EA0747B04077
:10134000BD420AD9BF1808F1FF3680F08E80BD4239
:1013500040F28B80A8F10208BF18791BB1FBF3F5AE
:1013600003FB15170CFB05F61FFA89F949EA07413B
:101370008E4206D96F1E891871D28E426FD9023DF6
:1013800089188E1B45EA08458CE7C5F1200122FA31
:1013900001F306FA05F627FA01F207FA05F720FA33
:1013A00001F11E434FEA1649B2FBF9F81FFA86FA1B
:1013B00009FB18220AFB08FB0F433B0C43EA0242DD
:1013C00093450CFA05FC08D9921908F1FF314AD26D
:1013D000934548D9A8F102089219CBEB0203B3FB5D
:1013E000F9F109FB11320AFB01FABFB247EA0243E5
:1013F0009A4506D94A1E9B1933D29A4531D90239EA
:101400009B1941EA08410F0C1FFA8CF808FB07F6FC
:101410008AB24FEA1C4C08FB02F80CFB02620CFB80
:1014200007FC02EB1842964288BF0CF5803CCAEBE1
:1014300003030CEB124C63450ED305D000250DE7DA
:101440000E46EFE61D4601E700FA05F01FFA88F8A0
:1014500008EB0245A842F1D201390025FEE63D46DF
:101460008FE71146CDE78846B7E7B04675E7023FFC
:10147000B6182AE702393CE72DE9F007144605467D
:101480000E46002B3DD18A4249D9B2FA82F747B1C4
:10149000C7F1200120FA01F206FA07F6BC40BD4070
:1014A0001643220CB6FBF2F0A1B202FB106601FB60
:1014B00000F32F0C47EA0646B34208D9471E3619F7
:1014C00080F0FA80B34240F2F78002383619F61AFB
:1014D000B6FBF2F302FB136201FB03F1ADB245EA86
:1014E0000242914207D95E1E121980F0E7809142B4
:1014F00040F2E480023B43EA00400021BDE8F007EF
:1015000070478B4243D8B3FA83F4002C42D18B420C
:1015100002D3824200F2E18000210120EEE712B9FD
:101520000127B7FBF2F4B4FA84F2002A40F0898074
:101530000A1B230CA7B20121B2FBF3F603FB162210
:1015400007FB06F04FEA154C4CEA0242904207D9DD
:10155000121906F1FF3C02D2904200F2D08066469A
:10156000121AB2FBF3F003FB102307FB00F7ADB236
:1015700045EA03439F4207D9421E1B1980F0A08011
:101580009F4240F29D80023840EA0640B6E70021C3
:101590000846B3E7C4F1200622FA06F703FA04F37B
:1015A00021FA06F501FA04F120FA06F63B434FEA68
:1015B000134CB5FBFCF71FFA83F80CFB175508FB1F
:1015C00007F946EA010A4FEA1A4141EA0545A945E9
:1015D00002FA04F204D97E1EED18C0F0818037466D
:1015E000C9EB0501B1FBFCF60CFB161508FB06F870
:1015F0001FFA8AFA4AEA0541884503D9751EC918B7
:1016000074D32E4646EA0746370C1FFA82FC0CFBC1
:1016100007F5120CB3B20CFB03FC02FB035302FBF5
:1016200007F203EB1C439D4288BF02F58032C8EBF2
:10163000010102EB134291424CD343D030460021CA
:101640005CE79440C2F1200521FA05F620FA05F581
:1016500001FA02F1230CB6FBF3FCA7B203FB1C66F4
:1016600007FB0CF829430D0C45EA0646B04500FA85
:1016700002F508D936190CF1FF303ED2B0453CD9FD
:10168000ACF1020C3619C8EB0602B2FBF3F003FB17
:10169000102607FB00F889B241EA0642904506D9B8
:1016A000461E121927D2904525D902381219C8EBC7
:1016B000020240EA0C413FE7384608E733461AE7A2
:1016C000104661E700FA04F01FFA8CFC0CEB0343B0
:1016D0009842B3D2701E002110E7214620460DE744
:1016E000A9457FF67CAF023FED1879E7884588D998
:1016F000023EC91886E73046D9E78446C3E7023E72
:1017000012192DE71D481E49026800608A4200F048
:101710001F80002100F004B81A4B5B58435004317D
:1017200019481A4B42189A42FFF4F6AF184A00F0D3
:1017300003B8002342F8043B164B9A42FFF4F9AF7A
:1017400007F0E2FC0CF02CFD06F084FEFFF7FEBF74
:10175000114E124830601248016821F0706101603A
:10176000410201600F4C182020600F490F480860AB
:101770000F48D0F800D0406800470000F04F00202C
:10178000EFBEADDEAC68010800000020A409002017
:10179000A409002064210020181002400900000064
:1017A00004000140140C0140000C01404434434447
:1017B00000F0FF1FFFF7FEBF07B5322106226B4680
:1017C000532001F0A9FB0A4B9DF800209DF8010071
:1017D0009DF802109A70D87019709DF803209DF83A
:1017E00004009DF805105A70187159710EBD00BFA4
:1017F000920D00202DE9F843394B002501221A7083
:101800004FF4FA662F46A946DFF8E480354CFFF71F
:10181000D3FFB8F90000FFF701FA6168FFF748F954
:101820002169FFF74FFA01464846FFF743F9814621
:10183000B8F90200FFF7F2F9A168FFF739F9616919
:10184000FFF740FA01463846FFF734F90746B8F982
:101850000400FFF7E3F9E168FFF72AF9A169FFF750
:1018600031FA01462846FFF725F9013E0546B6B292
:101870004FF47A7002F020F9002EC5D11A4948467B
:10188000FFF7D4FA184904463846FFF7CFFA16494D
:1018900007462846FFF7CAFA214605462046FFF7C5
:1018A00011FA394604463846FFF70CFA014620463D
:1018B000FFF700F9294604462846FFF703FA0146D8
:1018C0002046FFF7F7F8FEF7B1FD09F00FFBFFF731
:1018D0009BF80649086002480670BDE8F88300BF1F
:1018E000C0090020341F00200000FA44000000203E
:1018F000920D002008B52D210822532001F0CEFBC7
:101900000A2002F0F5F831210922532001F0C6FB2C
:101910000A2002F0EDF82C210E22532001F0BEFB2C
:10192000642002F0E5F8BDE80840FFF763BF00005F
:1019300007B5F621022201AB772001F0EDFA064B44
:101940009DF804209DF805005A701870F421772046
:10195000742201F0A3FB0EBD180D002007B5F6217F
:10196000032201AB772001F0D7FA094B9DF8042040
:101970009DF805009DF80610587019709A701A6845
:10198000F421D01118602E22772001F087FB0EBDC4
:10199000300D00200D4B0E4A188811680B1A0D48A7
:1019A0000D4902880D485343B0F900200C48DB1361
:1019B0000B60D102B0F90020981891FBF0F20949B0
:1019C00009489B180A600360704700BFFE0C0020A6
:1019D000E80C0020000D0020240D0020140D002034
:1019E0000C0D0020080D00201C0D00200000000040
:1019F0003F4B10B518683F4AA0F57A6303FB03F12B
:101A00003D4C08133D491360B4F90020B1F9004082
:101A10003B494443B1F900105943C91201EBE42199
:101A200001EB820251008A1C9110364A1160364A3D
:101A3000B2F900205343354AB2F900205043001454
:101A400000EB63339A1C9010314B324A18601388B4
:101A500000F500405843304A304BC00B10601A6804
:101A600046F2A813511A4B432D4A002B136003DB97
:101A70005900B1FBF0F302E0B3FBF0F043001812A1
:101A8000404340F6DE325043264A27495A43001469
:101A900008601214254980180A6000F6CF6203EB33
:101AA0002210234B1860FFF7B9F82249FFF7BEF95F
:101AB000FEF7BCFC0AA3D3E9002309F08FF8024625
:101AC0000B4600201C49FEF751FB07A3D3E9002376
:101AD000FEF700FDFEF798FF1849C86310BD00BF70
:101AE00000000020965BC83F0000000040A5E540D4
:101AF0001C0D00202C0D0020FA0C0020F00C002002
:101B0000020D0020280D0020340D0020FC0C0020C8
:101B1000200D00200E0D0020040D0020F40C0020EC
:101B2000100D002043E3FFFF240D0020080D0020CE
:101B3000EC0C002080E6C5470000F03FF41E0020BA
:101B40007FB50F2001F0D4FFAA2116226B46772023
:101B500001F0E2F99DF800209DF80100344B354971
:101B60005A7018709DF803209DF802300A704B706F
:101B700031489DF804109DF80530417003709DF8C0
:101B800006209DF807102D482D4B427001709DF8DE
:101B900009209DF808001A7058702A499DF80A30EB
:101BA0009DF80B004B7008709DF80C209DF80D30CF
:101BB000254926484A700B709DF80F209DF80E109D
:101BC00002704170224B9DF8100058709DF8111062
:101BD0009DF8122019709DF813001E4B1E495A7073
:101BE00018709DF815209DF814300A704B702E2245
:101BF000F421772001F052FA0A2001F079FFFFF773
:101C000097FE0A2001F074FFFFF7A8FE0A2001F0FA
:101C10006FFF1248124B0168124A1960106812498E
:101C20000860FFF7B7FEFFF7E3FE07B000BD00BF97
:101C3000FA0C0020020D0020340D00200E0D0020B3
:101C4000000D0020FE0C0020FC0C0020F00C0020F9
:101C5000F80C0020140D00200C0D0020180D0020A1
:101C6000E80C0020300D0020F40C002007B5032103
:101C700006221E206B4601F04FF9134B9DF8002001
:101C80009DF801005A709DF8032018709DF802100D
:101C90001A71B3F9002059719DF804009DF80510E0
:101CA00012F5805FD87099700BD0B3F9020010F56F
:101CB000805F06D0B3F9043013F5805018BF0120BF
:101CC00000E000200EBD00BF380D00202DE9F341DB
:101CD000792200211E208DF8041001F0DFF9322056
:101CE00001F006FF202201211E2001F0D7F9142067
:101CF00001F0FEFE394B00221A605A609A600A25F4
:101D00001E200221012201F0C9F9142001F0F0FE89
:101D10009DF80400C30706D41E200921012201AB4F
:101D200001F0FAF8F4E72E4EFFF7A0FFB6F9000035
:101D3000FEF774FF294C01462A48FFF777F821681F
:101D4000FEF7B8FE20608046B6F90200FEF766FF97
:101D500001462448FFF76AF86168FEF7ABFE606051
:101D60000746B6F90400FEF759FF01461E48FFF783
:101D70005DF8A168FEF79EFE013D15F0FF050646E1
:101D8000A060BDD140461949FFF750F820F000414E
:101D9000216038461549FFF749F8144920F00043FF
:101DA00030466360FFF742F820F000422946A26007
:101DB0001E20782201F072F9142001F099FE022110
:101DC0002A461E2001F06AF9142001F091FEFFF767
:101DD0004DFF142001F08CFEBDE8FC81400D002079
:101DE000380D0020CD0C9E4467269344000020410E
:101DF00007B51B2108226B46682001F08DF80D4BBA
:101E00009DF800209DF801000B495A7018709DF84C
:101E100003209DF802309DF804004B700A70C870D2
:101E20009DF805309DF806209DF807008B704A71DB
:101E300008710EBD7C0D0020AA0D002070B5154B59
:101E4000154CB3F90000154D00F54E501030FEF75B
:101E5000E5FE1349FEF7EAFF1249FEF72BFE124991
:101E600006460860616BFEF72DFF216CFEF722FE2F
:101E7000A16B28603046FEF725FF616CFEF71AFE65
:101E8000E16B68603046FEF71DFFA16CFEF712FEA5
:101E9000A86070BD7C0D0020341F0020800D002044
:101EA00000008C4300000C42780D00202DE9F8431F
:101EB000274B002401221A704FF4FA652746A146E9
:101EC000DFF89C80234EFFF793FFFFF7B7FFB8F9C9
:101ED0000000FEF7A3FE3168FEF7EAFD0146484622
:101EE000FEF7E8FD8146B8F90200FEF797FE71683B
:101EF000FEF7DEFD01463846FEF7DCFD0746B8F981
:101F00000400FEF78BFEB168FEF7D2FD01462046C5
:101F1000FEF7D0FD013D0446ADB24FF47A7001F0FA
:101F2000CBFD002DCCD10C494846FEF77FFF0B4E70
:101F3000094930603846FEF779FF0749706020464E
:101F4000FEF774FFB06002480570BDE8F88300BF7B
:101F5000D1090020800D00200000FA44980D0020D7
:101F6000AA0D002008B53E218022682001F096F8D5
:101F70003E210022682001F091F8162118226820E5
:101F800001F08CF815210722682001F087F817214D
:101F90000022682001F082F8642001F0A9FDBDE86C
:101FA0000840FFF783BF00001FB53B210E226B46A0
:101FB000682000F0B1FF174B9DF800209DF801004C
:101FC0009DF802105A701870D9709DF803209DF882
:101FD00004009DF805109A70587119719DF806203B
:101FE0000D4B9DF807000D495A7018709DF8092097
:101FF0009DF808309DF80A004B700A70C8709DF873
:102000000B309DF80C209DF80D008B704A71087103
:1020100005B000BD920D00207C0D0020AA0D00200F
:1020200070B5204B204CB3F90000FEF7F7FD1F49B7
:10203000FEF7FCFE1E49FEF73DFD1E490546086001
:10204000E169FEF73FFEA16AFEF734FD1A4E216AF0
:1020500030602846FEF736FEE16AFEF72BFD616A26
:1020600070602846FEF72EFE216BFEF723FD616BA4
:10207000B0602846FEF726FE216CFEF71BFD0F4ED2
:10208000A16B30602846FEF71DFE616CFEF712FD65
:10209000E16B70602846FEF715FEA16CFEF70AFDA5
:1020A000B06070BD7C0D0020341F00200000AA43EA
:1020B00000000C42780D0020C4090020800D002093
:1020C0002DE9F043002200238DB0CDE90023CDE9B6
:1020D0000223CDE90423CDE90623CDE90823CDE988
:1020E0000A236B4B01221A7041F28834694E6A4D03
:1020F000FFF75AFFFFF794FFB6F90000FEF78EFDD9
:102100002968FEF7D5FCFEF791F902460B46DDE99A
:102110000001FEF72DF8CDE90001B6F90200FEF747
:102120007DFD6968FEF7C4FCFEF780F902460B46A8
:10213000DDE90201FEF71CF8CDE90201B6F9040061
:10214000FEF76CFDA968FEF7B3FCFEF76FF90246D7
:102150000B46DDE90401FEF70BF8504F504ECDE978
:102160000401B7F90000FEF759FD3168FEF7A0FC45
:10217000FEF75CF902460B46DDE90601FDF7F8FFC4
:10218000CDE90601B7F90200FEF748FD7168FEF7D8
:102190008FFCFEF74BF902460B46DDE90801FDF71F
:1021A000E7FFCDE90801B7F90400FEF737FDB16894
:1021B000FEF77EFCFEF73AF902460B46DDE90A011E
:1021C000FDF7D6FF013CCDE90A01A4B24FF47A70C5
:1021D00001F072FC002C89D1324D00A80719D7E913
:1021E000000127A3D3E90023FEF79EFA26A3D3E933
:1021F0000023FEF76FF9C7E900010CA90A1952E99B
:1022000006011FA3D3E90023FEF78EFAFEF7FCFBBD
:102210000834182C45F8040FDFD1DDE9000102462F
:102220000B46FEF757F9DDE90289DDE9046704464C
:102230000D4642464B4640464946FEF74BF902469C
:102240000B4620462946FDF793FF324604460D46CD
:102250003B4630463946FEF73DF90B4602462946D5
:102260002046FDF785FF08F041FEFEF7CDFB0E4B43
:1022700007491860002008700DB0BDE8F08300BF6A
:10228000000000000088B340000000E0EA9C533FDB
:10229000D1090020920D0020C4090020AA0D0020C1
:1022A000800D0020940D002000000020AFF300807E
:1022B00008B56B218022682000F0F0FE962001F026
:1022C00017FC6B210322682000F0E8FE6C2100223D
:1022D000682000F0E3FE19210022682000F0DEFEF5
:1022E0000B4B1A2193F87420682000F0D7FE1C21B4
:1022F0000822682000F0D2FE1B210822682000F08E
:10230000CDFE642001F0F4FBBDE80840FFF7D8BE25
:10231000341F002007B50021032201AB772000F015
:10232000FBFD084B9DF804209DF805009DF8061064
:102330009A70587019707720FF21482200F0AEFE85
:102340000EBD00BF700D002007B50021032201ABB8
:10235000772000F0E1FD084B9DF804209DF8050072
:102360009DF806109A70587019707720FF21582236
:1023700000F094FE0EBD00BF540D0020094B0A4929
:102380001A880B68094910021A1A09480B8802605A
:1023900082FB0323D20D42EA4320064B00F5FA618B
:1023A00019607047600D00205C0D00204C0D00206E
:1023B000500D0020640D00202DE9F8434849494B99
:1023C0000E681888484A86FB00011488C50945EA4A
:1023D0004160CB114FEA04484449454C0A8825889E
:1023E00018EB00084FF0000949EB0309E80386FBEE
:1023F0000245230A43EA05622C123E4D0021D5F81E
:1024000000E0801841EB0401BEF5FA6F31DA764343
:102410004FEAE67CAEF5FA667643F3179A00B4000D
:10242000A41942EA967545EB0305A3086F104FEA1D
:10243000340643EA8572AB102F4DAE450EDA0EF22C
:10244000DC5464430725C5FB04670B2584FB054565
:102450006D104FEA3404121943EB0503254CCCEB05
:102460000E052560B8EB060869EB0709801A61EBD9
:102470000301224A1368A3FB004503FB0155610DCC
:1024800041EAC5226B15B2EB080863EB09094FEA74
:10249000D83040EA4940FEF7C1FB1949FEF7C6FCB7
:1024A000FDF7C4FF0AA3D3E9002308F097FB024617
:1024B0000B4600201349FDF759FE07A3D3E900237B
:1024C000FEF708F8FEF7A0FA0F4AD063BDE8F883DC
:1024D000000000C0955BC83F0000000040A5E5403B
:1024E000500D00204E0D0020580D0020740D0020CE
:1024F0006C0D0020640D002024FAFFFF680D002001
:1025000080E6C5470000F03FF41E0020AFF30080D6
:1025100007B5FF211E22772000F0C0FD0A2001F040
:10252000E7FAA221022201AB772000F0F5FC9DF82A
:1025300004209DF80500314BA4215A701870022226
:1025400001AB772000F0E8FC9DF804309DF80520F1
:102550002B4977204B700A7001ABA621022200F0B4
:10256000DBFC9DF804109DF80530264802224170DE
:102570000370A82101AB772000F0CEFC9DF8042069
:102580009DF80510204801AB427001700222AA217B
:10259000772000F0C1FC9DF804009DF805201B4B3E
:1025A000AC2158701A707720022201AB00F0B4FC05
:1025B0009DF804309DF80500154958224B700870AD
:1025C000FF21772000F06AFD0A2001F091FAFFF761
:1025D000A1FE0A2001F08CFAFFF7B6FE0A2001F0F6
:1025E00087FA0C4A0C4B11680C48196002680C49B8
:1025F0000A60FFF7C3FEFFF7DFFE0EBD6C0D002083
:10260000580D0020740D00204E0D0020600D00209C
:102610004C0D0020540D0020680D0020700D00208E
:102620005C0D0020F0B593B00025102301A902270E
:102630003948ADF804308DF806708DF8075007F072
:1026400019FD364807F0D6FB354836490790089102
:1026500020204FF4005104244FF4806380224FF473
:1026600080760F9010912D4807A90E930C920D962D
:1026700009950A940B95119507F034FC0121274820
:1026800007F050FC4FF4004007F05CFE01264FF4C9
:102690006022254802A9049202958DF80C608DF8FD
:1026A0000D6005958DF8184007F006FB1E48214681
:1026B0003246052307F051FB1B4821463A460523C5
:1026C00007F04BFB184821460322052307F045FB82
:1026D000224605231448214607F03FFB12483146A5
:1026E00007F017FB1048314607F00AFB0E4807F0C9
:1026F00019FB0D4807F01BFB0028FAD10A4807F028
:102700001AFB094807F01CFB0028FAD106480121F2
:1027100007F01AFB13B0F0BD0008014008000240AA
:102720004C240140D40900200024014008B5084B86
:1027300058881A8881189888DB880A18D11888B2B6
:10274000FEF768FA4FF07A51FEF7BCFA08BD00BFF9
:10275000D40900200B4A0C4813680C491818C860AB
:102760000B480068984203D9C31A4B60106004E01C
:10277000C3F500634B60002111600448012107F09C
:10278000D1BB00BFE0090020B0150020440002408A
:10279000E409002008B54FF4005007F0D9FB0021F0
:1027A000064807F0BFFB064B06481A6801688A42D4
:1027B00003D0BDE80840FFF7CDBF08BD440002408C
:1027C000E4090020E00900202DE9F043474C93B0D4
:1027D0000646182103204FF400738DF806008DF88B
:1027E0000710204601A9ADF80430482507F042FC47
:1027F0004FF4806201A92046ADF804208DF80750FF
:102800000E2707F037FC012502A88DF808708DF817
:1028100009508DF80A508DF80B5007F019FA0396FD
:10282000334E0C23334F00240DEB03013046ADF83B
:102830001630ADF81040ADF81240ADF81440ADF8C8
:10284000184008F0CDF8384607F0D4FA2A49DFF8E6
:10285000B4904FF4805020234FF080084FF4006272
:1028600010900891384607A90F930A921194CDF859
:102870001C9009940B940D94CDF830800E9407F0C1
:1028800031FB3846294607F04DFB2A4640213046A9
:1028900008F024F9384607F058FB1849143F08603F
:1028A000384607F0A7FA1020099007A93846CDF856
:1028B0001C900B940D94CDF830800E940F9407F07B
:1028C00011FB384602212A4607F037FB30464146C5
:1028D0002A467C6008F002F93046294608F0D8F80C
:1028E000074805F023FA13B0BDE8F0830008014063
:1028F0000038014058000240B00D0020DC090020E3
:10290000AD2900080438014008B5044807F01DFB54
:10291000034B1968401A18BF012008BD5800024037
:10292000DC090020054B06481A68C2F50061013A2F
:1029300008BF4FF40062405C1A607047DC09002059
:10294000B00D0020074B08491A688854501C4205F6
:10295000510D1960054B1868C20701D4FFF7FABE84
:10296000704700BFE4090020B01500204400024079
:1029700010B5441E14F8010F10B1FFF7E3FFF9E79B
:1029800010BD0FB400B5C3B044AB53F8042B02A87C
:102990004FF4807101930BF03BFE02A8FFF7E8FFB4
:1029A00043B05DF804EB04B070470000F0B585B0AB
:1029B00004AB03E90300BDF80C60304605F004FAEF
:1029C00007460298FEF726F9FDF730FD00220A4B74
:1029D000FDF7AAFE044630460D4605F0FDF90090CD
:1029E000BDF80E0039460190224604482B46FFF7F9
:1029F000C8FF05B0F0BD00BF00408F405430010853
:102A0000884206D250F8042B92FAA2F2014B1A60C7
:102A1000F6E770470030024070B506460D4640208C
:102A20000121094C07F0E6FC0123A36000BF00BFB1
:102A300000BF00BF30462946FFF7E2FF206890FA4A
:102A4000A0F1C84370BD00BF00300240F7B5144F7D
:102A50000121144807F06CFB134C03234FF48056FC
:102A60001025384601A98DF80630ADF804608DF8C0
:102A7000075007F0FFFA1820ADF8040001A920461E
:102A800007F0F8FA3846314607F04AFB204608219D
:102A900007F046FB2046294607F042FBFEBD00BF7B
:102AA0000008014000023000000C01402DE9F74F02
:102AB000974CA38A98B210F0010237D0208820F4F6
:102AC00000610B041A0C22802046012107F018FC3B
:102AD000904B91491A7800200870CAB18F4801784C
:102AE00019B98F4B1A78FF2A12D1012202708D4832
:102AF0000178022905D1864B1A8890B240F4006112
:102B00001980894B82481978012207F013FC38E1BB
:102B10008548002201787E4807F00CFC80490B783C
:102B2000FF2B00F02E81FF207B4BEFE000F0020135
:102B3000C9B200294DD0BFF35F8F7A4D2E78012E98
:102B400035461AD1734B1978B9B174480378A3B1DB
:102B50002046114607F0D4FBBFF35F8F218B204640
:102B6000CBB231468DF8073007F0BEFB6F4A2046E6
:102B700016704FF48061324618E0654C228BD1B25A
:102B80008DF80710BFF35F8F66480378022B10D1D2
:102B9000604A117869B1614B1A7852B12046002120
:102BA00007F0AEFB20464FF48061002207F0B4FB33
:102BB000E7E00078032807D156490B7823B1574A3C
:102BC000107808B15248EEE751484FF48061012275
:102BD000ECE700F00406F6B2002E72D04D4BDFF8A1
:102BE0004C811A78012688F800604C48002A4ED0A3
:102BF0000378002B4BD04B4D20462F78464D022FAB
:102C00004B4F29D907F07CFB204695F80090D7F868
:102C100000A007F08CFB4FFA89FB0AF80B0009EBC8
:102C2000060031462870204607F05EFB204688F8F3
:102C300000603F6895F8008007F079FB4FFA88F94B
:102C400007F80900B04420464FF48061324685F809
:102C5000008007F061FB2CE0314607F045FB204681
:102C60002E78D7F8008007F062FB4FFA86F9721CC5
:102C700008F80900D1B220464FFA81F83F68297060
:102C800007F055FB033607F808002E7011E00278B4
:102C900001211F4812B9274B1A782AB107F024FBEB
:102CA0001D480378591C03E007F012FB1B48012163
:102CB0000170174B1A8802F4807188B20028F8D18D
:102CC0005FE010F04001144D36D0194B20462F78AC
:102CD000D3F8008007F02BFB7A1CD1B24FFA87F9AA
:102CE0002970104D08F8090028784FB20337B84210
:102CF00005D120464FF48061324607F00DFB064BAC
:102D000028781A7851B288423BD1501C187038E0AC
:102D100000580040F5090020FC090020FF090020B0
:102D2000EB090020EC090020FE090020F409002036
:102D3000F0090020EA090020030622D52B785AB2B8
:102D4000501C0ED01B49013308682B70815C204653
:102D500007F0EBFA184A95F900001178814210D17A
:102D600030E7164829700178204607F0DEFA14494A
:102D70000B78002B7FF426AF0F4A107800283FF421
:102D800021AF0D4A0F49107891F90020431C9A4257
:102D90000DD10D490D480B780022027023B10C486B
:102DA0004FF4407107F0B8FA0A4800220270BDE8FB
:102DB000FE8F00BFF8090020EC090020EB0900207D
:102DC000F5090020FC090020F4090020FF0900207B
:102DD00000580040FD09002030B5142087B04FF4A2
:102DE000406403238DF8070001A94848ADF804406A
:102DF0008DF8063007F03EF92146444807F090F977
:102E0000082442484FF4806107F084F918B9032080
:102E100000F052FEF5E74FF480613C4807F082F97C
:102E2000032000F049FE4FF48061384807F078F93C
:102E3000032000F041FE611E11F0FF04E1D14FF4C8
:102E40000061324807F06EF9032000F035FE4FF4C0
:102E500080612E4807F066F9032000F02DFE4FF444
:102E600080612A4807F05CF9032000F025FE4FF44A
:102E70000061264807F054F9032000F01DFE0325E9
:102E80001C234FF4406201A920488DF80730ADF8AB
:102E900004208DF8065007F0EDF81D4807F07AF988
:102EA00002A807F0FBF9224619484FF4407107F0D9
:102EB00033FA184A4BF6FF704FF48041ADF80E001C
:102EC000ADF81410124802A90292ADF80C4007F0B8
:102ED0007BF901210E4807F0EFF9012022238DF83C
:102EE000030068468DF800308DF801408DF80240EF
:102EF00006F0AEFE2121684625468DF800108DF8BB
:102F0000014006F0A5FE07B030BD00BF000C014037
:102F100000580040801A060010B54000214CC0B295
:102F200020702148017021490020087020480121AB
:102F300001702048036020480360204B1A70204A2B
:102F400011702049888800F400739AB2A2B90988E8
:102F500001F4807083B24BB91A48028802F4007100
:102F60008BB2002BF8D1012107F0B2F915484FF4CC
:102F70004071012207F0D0F947F230511048027831
:102F800012B10139FAD100E049B90F4B1888421C3F
:102F900091B20C481980FFF71FFF002010BD0120DF
:102FA00010BD00BFFE090020EB090020EA09002047
:102FB000F5090020F0090020F8090020EC090020A4
:102FC000FD09002000580040E809002030B540000D
:102FD000284CC5B228482570284D294C0170012184
:102FE0000020297085B02070264C0DEB000525606F
:102FF000254C102A2560254C2270254C217036D88E
:10300000C1B2914204D2195C0DF800100130F7E70B
:10301000204B9A8802F4007081B2A1B91B8803F496
:10302000807290B248B91B48018801F400739AB2CB
:10303000002AF8D1012107F04BF916484FF44071EE
:10304000012207F069F947F230531148017811B1B4
:10305000013BFAD100E04BB90F480288511C8BB2FA
:1030600003800C48FFF7B8FE002000E0012005B007
:1030700030BD00BFFE090020EB090020EA09002056
:10308000F5090020F8090020F0090020EC090020D3
:10309000FD09002000580040E809002007B502ABF8
:1030A00003F8012D0122FFF791FF0EBD37B5244C27
:1030B000A38A98B20090009B009911F4E06F33D07E
:1030C000228B204693B24FF480610022019307F0D7
:1030D00023F90098820527D4218801F4007293B265
:1030E00013BB258805F4807085B29DB11448018812
:1030F00001F4807293B2002BF8D1012107F0F4F8AB
:103100000F48018801F4007293B2002BF8D1FFF749
:1031100063FE09E02046012107F0E6F820464FF45F
:1031200040712A4607F0F8F80548818A21F4706258
:103130001304190C034A8182002010703EBD00BFA9
:1031400000580040FD09002070B5002088B02A4AD0
:10315000431C40F6B83122F81010D8B20728F6D92F
:10316000264C28210125032220708DF803102448C5
:10317000694600248DF80220ADF8005006F07AFF71
:103180001C2301A88DF804308DF805408DF80650F9
:103190008DF8075006F05CFD23204FF6FF72ADF866
:1031A000140005A94FF08040ADF81820ADF8164086
:1031B000ADF81A408DF81C4007F0C4F902A94FF091
:1031C0008040ADF80840ADF80A40ADF80C50ADF8BD
:1031D0000E40ADF8104007F051FB02214FF0804047
:1031E0002A4607F011FB4FF0804029462E4607F093
:1031F000F1FA08B070BD00BFB21D0020B01D002064
:1032000000080140014B33F810007047B21D002048
:10321000F0B5182089B003214FF410638DF8030036
:103220008DF802103A4869463A4DADF8003006F084
:1032300021FF4FF4707238486946ADF80020374ED0
:1032400006F018FFB5F89240232096FBF4F77B1E9A
:103250000024ADF8040001A93148ADF80830ADF8FC
:103260000A40ADF806408DF80C4007F06BF90220DB
:103270004FF4807170224FF4FA630127ADF8180003
:10328000ADF81C10264804A9ADF81020ADF8163092
:10329000ADF81270ADF81440ADF81A40ADF81E400C
:1032A00007F09AF91E4804A907F0DAF91C4804A9A6
:1032B00007F01AFA1A4804A907F058FA18483946CC
:1032C00007F088FA95F8AC2062B9B5F8B430D5F8B3
:1032D000BC0096FBF3F6013EADF80860FDF7DEFE9C
:1032E000ADF8160001A90F4807F02CF904A90D4804
:1032F00007F072F904A90B4807F038FA01210948D0
:1033000007F074FA0748012107F064FA09B0F0BD2C
:1033100000080140341F0020000C014080841E0082
:1033200000080040002C0140024B53F820000180AF
:10333000704700BF70300108024B53F82000018035
:10334000704700BF8830010838B5234B4FF08040EC
:1033500093F88810012908D107F02FFB1F48427805
:10336000002A37D0511E417038BD022107F029FBD9
:10337000012804460AD11A4D1A482A8802804FF0C3
:10338000804007F017FB184928800C7002214FF08D
:10339000804007F021FB124B12481A880188531A0B
:1033A0009BB241F218529342104A02D90023137083
:1033B00038BDA3F2DD5080B240F6B631884205D860
:1033C0001278072A9CBF0A4921F81230074B187857
:1033D000411C197038BD00BF341F002004000020BC
:1033E000020A0020040A0020060A0020000A002029
:1033F000B21D002048F20100002104F07BBC48F21D
:103400000300002104F076BCF0B5284B2849187859
:10341000284A0726284C464328480D781188002260
:10342000237804781046B04228DA254901EB40039E
:10343000998915B1012D1DD109E0C1F383230B2B0F
:1034400002D90F2B12D116E04FEA815C05E0C1F3DF
:10345000C3230B2BF5D84FEA415C4FEA5C5707F5C5
:10346000FA6C184F013227F813C0D2B29C4238BF11
:103470001C4600E00F230130C0B2D4E70D4D94424A
:1034800029800D490B70104B0C491A700F4B0C70B2
:1034900018700F4807DA0F4B012101701868BDE85A
:1034A000F04006F0BFBB00220270F0BD080A002009
:1034B000070A0020CC1D0020F21D00200B0A00206E
:1034C00004000020D61D0020D41D0020B01D0020C7
:1034D000060A0020C41D0020024B00229A72FFF74A
:1034E00093BF00BF0400002038B50C46497823780C
:1034F000D1F1010138BF0021012B0D4602D0A37884
:1035000083B941B90020462120706170A070E0703D
:103510002071A07138BD02B1000220810123A37087
:10352000032321E019B10122227046231CE0012B64
:1035300011D12E4B32B1218942182D4822810178B8
:10354000197006E02B4AC0F3001100F0030011705F
:1035500018700223E3E7022B08D1E27860710AB900
:10356000C109A1710323A370637038BD032B10D16F
:1035700002256370A172E378A179A570072505FB88
:103580000131657904EB410140EA0520013388816E
:10359000E370E17806291ED92079431C1348D9B27B
:1035A00003782171994203D101210020A172207179
:1035B0003AB91049104A08780D4910700B700F4A3B
:1035C00000E00F4A106806F02DFB00234620A37090
:1035D000E370A37160700B4A917A11B90A4B987A23
:1035E00018B1BDE83840FFF777BF38BD090A0020A1
:1035F000080A00200A0A0020070A0020C81D00202F
:10360000D01D0020040000202C000020134A08B523
:10361000938903F0800081B251B1138803F08000D8
:1036200081B229B1938923F0800001040B0C9381AE
:1036300092890A4802F020018BB26BB1028802F035
:1036400020018BB243B107F052FA0549C0B2002203
:10365000BDE80840FFF748BF08BD00BF0044004078
:1036600004000020134A08B5938903F0800081B25A
:1036700051B1138803F0800081B229B1938923F0FE
:10368000800001040B0C938192890A4802F020010A
:103690008BB26BB1028802F020018BB243B107F00C
:1036A00026FA0549C0B20122BDE80840FFF71CBF59
:1036B00008BD00BF003801402C00002070B53E4816
:1036C0008AB001243D4B00251C210226047002A86B
:1036D0001C708DF808108DF809608DF80A508DF86F
:1036E0000B4006F0B5FA102047236322ADF80E0018
:1036F00003A94FF08040ADF80C30ADF81020ADF8C4
:1037000012508DF8145006F01DFF224621464FF04E
:10371000804007F079F821464FF0804007F04DF9DE
:1037200021464FF0804007F055F826218DF80960BA
:1037300002A808268DF808108DF80A508DF80B4065
:1037400006F086FAADF80460042603220DEB0601AC
:103750001B488DF806208DF8076006F08BFCADF84D
:103760001C50ADF81E50ADF82050ADF82450154D4A
:103770004FF4E133284606A90693ADF8226007F01E
:103780002FF92246284640F2255107F08DF92846A8
:10379000214607F07DF923464FF47A710A4A0B4817
:1037A00006F0FAF94FF47A71094A2346094806F0FF
:1037B000F3F90AB070BD00BF2C0000200400002007
:1037C0000008014000440040F5330008C81D0020F7
:1037D000FF330008C41D0020014B33F81000704770
:1037E000D61D002037B54823012403251B4801A915
:1037F0008DF80730ADF804408DF8065006F03AFC1D
:103800001648214606F086FCA04225D01020082448
:103810008DF8070001A91148ADF804408DF8065055
:1038200006F028FC21460D4806F07AFC3C2000F00A
:103830005FF905240821094806F074FC782000F09F
:103840003BF90821054806F06BFC782000F034F9BC
:10385000611E11F0FF04EDD13EBD00BF0008014024
:1038600010B50A4A52E8003F09490A480C68006846
:1038700042E800310029F4D1074A201A1168B0FB50
:10388000F1F24FF47A7101FB032010BD100A002001
:10389000041000E01C0A0020180A0020F8B55F4B55
:1038A0005F481A685F4902600B685A1C0A6006F09C
:1038B00093F95D480278012A40F0AF805B490B78AC
:1038C000002B40F0AA805A480178002940F0A580DA
:1038D000584B1878002840F0A08057490B78002BEF
:1038E00040F09B8055480178002940F09680544D67
:1038F0002B88581C81B2B1F57A7F94BF29802A8029
:10390000FFF7AEFF4F4B05461A681D604C4B801AFF
:103910001A884D49D30708601DD44C4B01205A78B2
:103920004B498242087002D1FEF73EFB03E0FDF7EF
:1039300043FFFEF75DFA474B47485A881988428093
:103940009B88464A01808380118845485388928825
:103950000180438082803A480A230288B2FBF3F157
:1039600003FB112082B2DAB9384F3E4C0126BF78F2
:1039700026703D4CB742237809D11BB9FEF7CAFC2B
:1039800027700DE0FEF7E0FC3848077008E01BB92F
:10399000FDF7CEFF267003E0FDF7E0FF33490E7020
:1039A000274A14201388B3FBF0F100FB113290B2C8
:1039B00010B92F4A012111700133642093FBF0F1FB
:1039C00000FB11321AB9FEF751F92A4B18701C4846
:1039D00064220388B3FBF2F102FB113082B212B908
:1039E000254801210170C822B3FBF2F102FB11301E
:1039F00082B212B92148012101704FF47A72B3FBEF
:103A0000F2F102FB113398B210B91D4901220A707C
:103A1000FFF726FF1B4B401B1860F8BD041000E0A9
:103A20001C0A0020100A00200C0A0020250A002091
:103A3000C0090020260A0020270A0020D109002002
:103A4000220A0020281E0020041E0020341F00200F
:103A50000D0A0020920D0020A40D0020AA0D0020C8
:103A60008C0D0020150A0020D0090020D20900206A
:103A70000F0A0020C2090020210A0020200A00208D
:103A8000140A0020F41D0020014B1868704700BF85
:103A9000100A002008B5074B596A11F0E05F0CBF0F
:103AA0004FF480400120090E04F024F9BDE80840DD
:103AB00006F0D0BC0010024010B50B4B1A68002372
:103AC000094909688A1AD318084A1468B3FBF4F440
:103AD000844207D21268001BB3FBF2F402FB1433DA
:103AE0000A46EDE710BD00BF041000E0180A0020F0
:103AF00010B504462CB14FF47A70FFF7DDFF013C9E
:103B0000F8E710BD10B586B001A806F025FC019BB2
:103B1000784A7949B3FBF2F0784C0860E26878485B
:103B200042F08073E3600168764A41F0010404606A
:103B300010684FF47A73B0FBF3F14C1EB4F1807F40
:103B400009D27148714A4460F0230021072482F8A9
:103B50002330816004601D20012106F057FC012103
:103B60004FF4006006F052FC0120014606F05AFCBA
:103B70000220012106F056FC0420012106F052FC2F
:103B800001214FF4007006F041FC01214FF4804008
:103B900006F03CFC01214FF4003006F043FC01210B
:103BA0004FF4800006F03EFC0120014606F022FCA6
:103BB0000121022006F01EFC002003F0D7FE03F0D6
:103BC0003FFE534890F88830012B01D1FFF70AFEE1
:103BD000FFF760FF4FF4A06006F030F804F098FFA4
:103BE0004FF4E130FEF7F0FDFEF730FFFEF71AFD6F
:103BF0000821484806F096FA42F21070FFF778FF65
:103C000045484649FEF7BDFE454A3A4C11688A03CD
:103C10004CBF44484448FEF7ABFE01A806F09CFBAD
:103C2000059B4248B3FBF4F1FEF7ABFE029A404815
:103C3000B2FBF4F1FEF7A5FE03993E48B1FBF4F1A7
:103C4000FEF79FFE049B3C48B3FBF4F1FEF799FEA0
:103C5000019A3A48B2FBF4F1FEF793FE2C484478FF
:103C6000012C04460CBF36483648FEF781FEA17889
:103C700001290CBF34483548FEF77AFE244B93F8EF
:103C800088200AB9324800E03248FEF771FE42F25D
:103C90001070FFF72DFF1F48102106F043FA03F0C4
:103CA00043FC1B4890F88840012C044602D1FFF7E2
:103CB00005FD01E0FFF748FA2748FFF78DF804F00B
:103CC0009DF805F017F96178012902D1FEF7F0FAA5
:103CD00003E0FDF70FFEFEF745F9FDF7F7FF0C4B8C
:103CE0009A78012A02D1FEF713FC01E0FDF728FFC4
:103CF00006B010BD40420F00180A0020F0ED00E0B1
:103D0000001000E01401002010E000E000ED00E0F1
:103D1000341F0020000C014098300108D230010807
:103D200000100240D6300108FA30010825310108A0
:103D3000383101084A3101085C3101086E3101084F
:103D4000BA4E01082F4F0108895101089D51010801
:103D5000813101089A3101080058004010B1034A2E
:103D6000034B1A6003480449C8607047EFBEADDEDC
:103D7000F04F00200400FA0500ED00E0F8B5002542
:103D800006460F462C46FEF7BFFD28B90A2001352E
:103D9000FFF7AEFEEDB205E0FEF7C4FD305501348D
:103DA000E4B2002524B1331913F8010C3B2803D0E9
:103DB000042D01D8BC42E6D3002131553046F8BD70
:103DC00030B5002585B001A82946092200950AF0E2
:103DD000DFFA2C46FEF798FD30B90A200135FFF7CF
:103DE00087FEEDB2BCB10CE0FEF79CFD04AA1319EE
:103DF000013414F0FF0403F8100C01D12546E9E763
:103E0000002504A8011911F8112C3B2A05D0042D16
:103E100003D80B2C00E0042DDCD904AB00201C19C6
:103E200004F8100C684605F087FD05B030BD0000B1
:103E300038B5104B282505FB0035FFF7C1FF68603A
:103E4000FFF7BEFFA860FFF7BBFFE860FFF7B8FF12
:103E50002861FFF7B5FFA86100206861E86128626A
:103E60006862FFF7ADFFFDF719F92C1D85F82800F2
:103E700038BD00BFF41F00202DE9F04F8FB0FEF7D2
:103E800043FD30B1754B197819B9FEF74BFD744AF3
:103E90001070734C23783F3B3B2B00F20685DFE824
:103EA00013F079040405AC03B103B903BE03C303E3
:103EB000CB0304050405D0030405040539040405F7
:103EC00041044404470404054A04520454045704BA
:103ED0005A046C0471047604760404050405040590
:103EE0000405040504053C00ED008E01C701F9013D
:103EF0000C02220224023A0255029D02BB02D102A8
:103F000004050405D3027104E902140345035B03AD
:103F100075030405730497039A03DFF85481DFF8EF
:103F200054A1D8F8C400FCF781FA0446D8F8C800B8
:103F30000B940A91FCF77AFA0646D8F8CC000F46A3
:103F4000FCF774FA0446D8F8D0000D46FCF76EFA78
:103F5000CDE90C01D8F8D800FCF768FADFF8189121
:103F600098F8E8C00B9ABCF1000F0CBFD646CE46BD
:103F7000CDF820E00A9BCDE90245CDE90601CDE967
:103F80000067DDE90C673748CDE90467FEF7F9FC07
:103F9000D8F8EC00FCF74AFA0746D8F8F0000B977F
:103FA0000A91FCF743FA0446D8F8F4000D46FCF7F2
:103FB0003DFA0646D8F8F8000F46FCF737FACDE987
:103FC0000C01D8F80001FCF731FA98F81031CDE96E
:103FD0000045002B0CBFD446CC46CDF820C0DDE90F
:103FE0000C23CDE90267CDE90423CDE906010B9A44
:103FF0000A9B1D48FEF7C5FCD8F81401FCF716FA19
:104000000446D8F818010B940A91FCF70FFA0446FD
:10401000D8F81C010D46FCF709FA0646D8F820012D
:104020000F46FCF703FACDE90C01D8F82801FCF79C
:10403000FDF998F838E1CDE90045DDE90C45BEF120
:10404000000F08BFD146CDE90601CDE90267CDE9F1
:104050000445CDF820900548AEE000BF240A0020BA
:1040600054000020DA3101081232010849320108F7
:10407000341F0020C8310108C2310108DFF8F48282
:10408000DFF8F8A2D8F83C01FCF7D0F90646D8F8DA
:1040900040010B960A91FCF7C9F90646D8F844018D
:1040A0000F46FCF7C3F90446D8F848010D46FCF763
:1040B000BDF9CDE90C01D8F85001FCF7B7F9DFF8EC
:1040C000B89298F860E10B9ABEF1000F0CBFD4468D
:1040D000CC46CDF820C00A9BCDE90067CDE90601AA
:1040E000CDE90245DDE90C459F48CDE90445FEF7E1
:1040F00048FCD8F86401FCF799F90546D8F868013E
:104100000B950A91FCF792F90446D8F86C010D461C
:10411000FCF78CF90646D8F870010F46FCF786F9D3
:10412000CDE90C01D8F87801FCF780F998F88821DE
:104130000A9B002A0CBFD646CE46CDF820E00B9A4B
:10414000CDE90045CDE90601CDE90267DDE90C675F
:104150008648CDE90467FEF714FCD8F88C01FCF71B
:1041600065F90746D8F890010B970A91FCF75EF9BC
:104170000446D8F894010D46FCF758F90646D8F8DD
:1041800098010F46FCF752F9CDE90C01D8F8A001CF
:10419000FCF74CF998F8B021CDE90045DDE90C4574
:1041A000CDE90267CDE90445002A08BFD146CDE933
:1041B00006016F48CDF820900B9A0A9B32E06D4CB7
:1041C000D4F8B401FCF732F98246D4F8B8018B4632
:1041D000FCF72CF98046D4F8BC018946FCF726F997
:1041E0000646D4F8C0010F46FCF720F9CDE90C01D2
:1041F000D4F8C801FCF71AF994F8D8C15E4A5F4BAD
:10420000DDE90C45CDE90089CDE90267CDE904453A
:10421000BCF1000F18BF1346CDE9060158480893BA
:1042200052465B46FEF7ADFB564978200870ABE27C
:10423000504C514DD4F8DC01FCF7F8F88246D4F824
:10424000E0018B46FCF7F2F88046D4F8E401894699
:10425000FCF7ECF80646D4F8E8010F46FCF7E6F860
:10426000CDE90C01D4F8F001FCF7E0F894F800E295
:10427000424BCDE90601BEF1000F18BF2B46CDE938
:104280000089DDE90C45CDE90267CDE904450893D5
:104290003D48C5E73D483E4A01683E4800911368E5
:1042A0003D4A019301683D48029113683C493D4AEB
:1042B0000393096812683C4B11E03C483C4B026890
:1042C0003C48009219683C4B0191026833480292C5
:1042D00019683A4A3A4B039111681A68394B1B68BE
:1042E000FEF74FFB50E2384E00E0384E3068FCF7E6
:1042F0009DF8044670680D46FCF798F8CDE900017A
:10430000B068FCF793F82246CDE902012B4630480D
:10431000FEF737FB38E22C4E2E49706AFCF7D2FCD0
:10432000FCF784F804460D46B06A2A49FCF7CAFC3B
:10433000FCF77CF8CDE900012649F06AFCF7C2FCE5
:10434000FCF774F8CDE9020123495AE01E4E306BA8
:10435000FCF76CF80446706B0D46FCF767F8CDE986
:104360000001B06BCDE700BF80320108BC3201080C
:10437000F7320108341F0020C2310108C83101089A
:104380003233010854000020653301083C1E002030
:104390004C1E00201C1E0020F81D00209533010833
:1043A000041E0020201E0020141E0020401E00209D
:1043B0000C1E0020FC1D00202C1E0020F41D0020DF
:1043C000241E0020101E0020F41E00207C0A002065
:1043D00026500108E02E6542780D00209D4DA8680A
:1043E000FCF724F89C4A0446D06B0D46FCF71EF8F7
:1043F000CDE90001994B1868FCF718F8CDE90201E6
:1044000097490868FCF712F82246CDE904012B46CB
:104410009448FEF7B6FAB7E18F4E9349B069FCF7BE
:1044200051FCFCF703F804460D46F0698E49FCF791
:1044300049FCFBF7FBFFCDE900018B49306AFCF733
:1044400041FC5EE7894E51E78948C4890189827A37
:1044500083890094048A0194448A0294848A039490
:10446000C48A0494048B0594408B06908148FEF71F
:1044700088FA89E1804D297809B9804802E001294C
:1044800002D17F48FEF774FA7E4A1378012B0CBFE5
:104490007D487E48FEF76CFA7D48FEF769FA7D4854
:1044A0000178042900F27081DFE801F003050709B3
:1044B0000B00794806E0794804E0794802E0794841
:1044C00000E07948FEF754FA5EE1784890F88810E9
:1044D000012917D1764A137893B100247448754B9B
:1044E00001784A1E944207DA33F9141072480134F5
:1044F000FEF747FAE4B2F1E7704833F9121012E020
:104500006F48DFE700242046FEF77CFE01340146B9
:10451000E4B26C48FEF735FA072CF4D12046FEF7DA
:1045200071FE01466848FEF72CFA2DE10024674D24
:104530006059FBF77BFF043402460B466448FEF7E4
:1045400020FA1C2CF3D1E869FBF770FF02460B46FA
:104550006048FEF716FA17E15F4E604D604C317807
:10456000604800290CBF29462146FEF70AFA7278F6
:104570005C48002A0CBF29462146FEF702FAB378B0
:104580005948002B0CBF29462146CCE7574C4A48D6
:10459000B4F8401089B2FEF7F4F9A28F464891B200
:1045A000FEF7EFF9238F444899B2FEF7EAF9A18E9E
:1045B000414889B204F59234FEF7E3F9B4F840209B
:1045C0003D4891B2FEF7DDF9A38E3C4899B2AAE7C7
:1045D00001F042FCDBE0FEF7A9F8FBF727FF444AB5
:1045E000044610680D46FBF721FF2246CDE9000185
:1045F0002B464048FEF7C5F957E10020FFF718FCAD
:104600003D4803E00120FFF713FC3C48FEF7B0F9FA
:104610006120B8E00220FFF70BFC3948F6E70320E1
:10462000FFF706FC374803E00420FFF701FC36489B
:10463000FEF79EF96220A6E00520FFF7F9FB33485C
:10464000F6E70620FFF7F4FB3148FEF791F9632007
:1046500099E000BF7C0A0020F41E0020440B0020DB
:1046600058210020BF330108E02E6542B01E002013
:1046700004000020DB330108340B0020173401084C
:1046800030340108390B0020493401086534010831
:1046900081340108350B00208D340108AC34010849
:1046A000CE340108E93401080B350108341F00201D
:1046B0000B0A0020D61D00202D350108864A01086E
:1046C000343501085D35010863350108BC00002060
:1046D0006835010870350108DC000020D43101087C
:1046E000CE310108773501082E330108000800405B
:1046F000881E00207C3501088A350108A73501088D
:10470000C5350108E13501080236010824360108E3
:104710003F3601080720FFF78BFB6548FEF728F9B5
:10472000642030E000F026FB2CE000F059FC29E08A
:1047300000F02AFE26E05F48FEF71AF96420FFF732
:10474000D7F9012014E05C480CE001F0ABF819E067
:1047500000F04AF916E05948FEF70AF9012003F083
:1047600005F95748FEF704F96420FFF7C1F9002066
:104770000FB0BDE8F04FFFF7F1BA5248FEF7F8F876
:1047800003F0ACF87820207000214F4B8CE07823A8
:1047900023708AE04D4B01214D481970FEF7E8F86F
:1047A0004C48FEF7E5F84C48FEF7E2F84B48FEF7B8
:1047B000DFF84B48FEF7DCF84A48FEF7D9F84A48DC
:1047C000FEF7D6F84948FEF7D3F84948FEF7D0F887
:1047D0004848FEF7CDF84848FEF7CAF84748FEF7C4
:1047E000C7F84748FEF7C4F83948FEF7C1F845480E
:1047F000FEF7BEF8FEF788F80028FBD0FEF792F827
:10480000414A10701078202837D13148FEF7B0F8AF
:104810003E48FEF7ADF83E48FEF7AAF83D48FEF7E1
:10482000A7F83D48FEF7A4F83C48FEF7A1F83C483D
:10483000FEF79EF83B48FEF79BF83B48FEF798F8DA
:104840003A48FEF795F83A48FEF792F83948FEF7ED
:104850008FF83948FEF78CF81D48FEF789F829488B
:10486000FEF786F8FEF750F80028FBD0FEF75AF85E
:10487000254C20702178202903D013480122027092
:1048800010E01348FEF774F82C48FEF771F82C4836
:10489000FEF76EF82B48FEF76BF80D48FEF768F848
:1048A00078232370094B002119700FB0BDE8F08FF9
:1048B000573601086C360108863601089D36010816
:1048C000BB360108D3360108240A0020250A00203F
:1048D000225A0108F33601085C370108C537010880
:1048E0002E38010897380108003901086939010894
:1048F000A2390108DB390108443A01087D3A010870
:10490000B63A01081F3B010854000020513B010842
:104910008A3B0108C43B0108013C01083C3C0108FA
:10492000753C0108C03C0108F63C0108343D010813
:104930006F3D0108B73D0108FF3D0108383E010801
:10494000713E0108AA3E0108A0F13003D9B209293D
:1049500001D8C8B20DE0A0F16102052A01D857388C
:1049600004E0A0F14103052B02D83738C0B200E0C3
:10497000FF2040B2704700002DE9F84300210446B3
:10498000D0F8187202F054FF94F81532C4F81802E7
:10499000DB0704D544F20300002103F0ABF9002546
:1049A000112D19D04FEA4519C9F50779B9F1200F32
:1049B000A8BF4FF0200904EB451800264E4506DA43
:1049C00018F806100648FDF7DCFF0136F6E7054843
:1049D000FDF7CEFF0135E3E7C4F81872BDE8F883B0
:1049E000EA3E0108225A01082DE9F041A54B0122B7
:1049F000A548ADF5087D1A70FDF7BAFFA348FDF78D
:104A0000B7FFFDF781FF0028FBD0FDF78BFF0446C1
:104A10009F48FDF7ADFF572C00F09E8137D8462CFC
:104A2000ECD029D8432C00F0A280452C00F08E81D8
:104A30003F2CE3D19648FDF7A4FF9648FDF7A1FF70
:104A40009548FDF79EFF9548FDF79BFF9448FDF7BD
:104A500098FF9448FDF795FF9348FDF792FF934820
:104A6000FDF78FFF8A48FDF78CFF9148FDF789FF1E
:104A70008748FDF786FFC1E7482C6DD0562CBDD185
:104A80008C48FDF775FF012002F070FFB6E7652C3A
:104A900000F0628104D8612C10D0632CAED141E0CB
:104AA000662CABD0782CA9D18348FDF761FF7549FE
:104AB000002008700DF5087DBDE8F0817F4CD4F82A
:104AC000186204F0E5FA04F007FB0021204602F02A
:104AD000AFFE05467A48FDF754FF7A482178FDF786
:104AE00050FF79484FF40771FDF74BFF7748314687
:104AF000FDF747FF76482946FDF743FFAE4202D057
:104B00007448FDF73EFF7448FDF73BFF94F81532FB
:104B1000724A734913F0010F724818BF1146FDF72E
:104B200030FF6BE704F0B4FA04F0D6FA5848FDF70A
:104B300028FF6248FFF720FF5548FDF722FF0121BB
:104B40005E4802F075FE684A90423FF457AF6748EE
:104B5000FDF70EFF66484FE76648FDF712FF574B1B
:104B600093F8150220F0010183F8151246E7FEF7CD
:104B70008BFF4FF407710A464FF4876380465E4807
:104B8000FDF7FFFE5D48FDF7FCFE5D486421FDF783
:104B9000F8FE01A800214FF4077209F0F9FB002785
:104BA0003D4601AEFDF7B0FE40B1FEF76DFF804619
:104BB000FDF7AAFE48B1FDF7B5FE06E0FEF764FF7B
:104BC000C8EB00006328EDD9EFE70446FFF7BCFE11
:104BD000202C0AD00A2C08D00D2C06D0B4F15F018D
:104BE0004A4252EB010314B100E0012301375BB9E3
:104BF000421C0ED031780DB90001C0B240EA01026A
:104C00003270761985F0010588A98E42CAD3ACB9F5
:104C100000E04CB901A8311A05EB410139484FF4C5
:104C20008762FDF7AEFE81E088AB9E4206D2364831
:104C3000394622462346FDF7A4FE77E0002DF6D143
:104C4000012101A802F0F4FD274CA04209D02F4811
:104C5000FDF797FE2E48FDF794FE01A8FFF78CFEA6
:104C600064E004F015FA04F037FA144801A96A5C0C
:104C70002B5C9A4250D10135B5F5077FF5D1254817
:104C800052E000BF250A0020EF3E01080A3F01085C
:104C9000225A01087042010897420108E6420108C1
:104CA0002B4301087B430108C54301081444010854
:104CB000534401084342010808420108341F002000
:104CC000193F0108383F01084F3F0108663F0108BE
:104CD0007F3F0108983F0108CF3F0108CF3101080D
:104CE000D4310108DC3F01081CDF4421F33F0108F7
:104CF0003C4001087640010892400108CE4001087E
:104D0000094101083941010872410108A84101081F
:104D1000D8410108994401084FF4077209F08AFA52
:104D20001048FDF72EFE1048FDF72BFEFEF7ACFEF7
:104D30000446FEF7A9FE021B632A3FF65FAEFDF7AD
:104D4000E3FD0028F5D0FDF7EDFDF2E70748FDF79C
:104D50000FFE02F075FD51E60548FDF709FE02F071
:104D6000BDFD4BE6D3440108EE440108F4410108BF
:104D7000224201087C4B70B501227C481A70FDF775
:104D8000F7FD002578247A48FDF7F2FDFDF7BCFD1C
:104D900010B9002DFAD003E015B9FDF7C3FD0446A4
:104DA0007448FDF7E5FD442C00F0B48012D8422C85
:104DB0007DD000F28C803F2C00F0BC80412CE2D1F1
:104DC000FEF7FEFFFCF76AF96B4981F8AC0003F0CF
:104DD0009FFE79E0612C09D0782C61D0572CD2D17C
:104DE0006648FDF7C5FD02F079FDCCE7624E6448E8
:104DF000FDF7BEFD96F8AC10012906D003D30229B9
:104E000006D1604802E0604800E06048FDF7B0FD70
:104E10005F4D594E29785F48FDF7B3FD5E48B6F8FF
:104E20009210FDF7AEFD5D48B6F89410FDF7A9FDB0
:104E3000D6F8B0504FF07E512846FCF7D7F808B1AD
:104E4000574807E028465749FCF7D0F808B15648BC
:104E500000E05648484EFDF794FD96F8AC500DB171
:104E6000002590E7B6F8B4105148FDF78AFDD6F852
:104E7000B800FCF713F981B24E48FDF782FDD6F871
:104E8000BC00FCF70BF981B24B48FDF77AFDD6F870
:104E9000C000FCF703F981B24848FDF772FD72E7E4
:104EA0004748FDF765FD304B00221A7070BDFEF7D4
:104EB00087FFFCF7F3F8304DA5F89200FEF780FF6E
:104EC000FCF7ECF8A5F89400FEF7A2F92FE02A4CC5
:104ED00094F8AC0090B9FEF773FFFCF7DFF8A4F884
:104EE000B400FEF76DFFC4F8B800FEF769FFC4F820
:104EF000BC00FEF765FFC4F8C000E5E7FEF760FF01
:104F0000FEF75EFFFEF75CFFFEF75AFF2D48FDF748
:104F100038FD0CE0FEF754FF0021FCF785F810B1D6
:104F20004FF07E5400E01F4C1348C0F8B0400125FC
:104F3000612428E70F48FDF71BFD2348FDF718FD06
:104F40002248FDF715FD2248FDF712FD2148FDF727
:104F50000FFD2148FDF70CFD2048FDF709FD054830
:104F6000FDF706FD0FE700BF250A002025450108D3
:104F70003F450108225A0108341F0020224201083F
:104F80004D45010889450108654501087745010837
:104F9000502100209B450108C5450108EE45010848
:104FA00018460108000080BF414601086A46010812
:104FB00093460108BC460108E44601080C47010875
:104FC000354701084E47010873470108E5470108C6
:104FD00045480108AC4801080B490108534901083C
:104FE0007FB5B54B0122B5481A70FDF7C1FC00250D
:104FF0007824B348FDF7BCFCFDF786FC10B9002D02
:10500000FAD003E015B9FDF78DFC0446AD48FDF775
:10501000AFFC452C00F01D8124D8422C00F00C81FF
:1050200005D83F2C00F07C81412CE2D1DFE0432CFD
:1050300000F00A81442CDCD1FEF7C2FEA24DC5F877
:105040009800FEF7BDFEC5F89C00FEF7B9FEC5F856
:10505000A000FEF7B5FEC5F8A400FEF7B1FEC5F846
:10506000A80017E1572C00F0188110D8462C00F04A
:10507000FE80472CBDD1FEF7A3FE9449FBF7D6FE78
:105080009349FBF71FFE904BC3F8800002E1612CAF
:1050900008D0782CADD18F48FDF76AFC86490020F6
:1050A00008707FBD884E8C48FDF762FC96F88850EA
:1050B0001DB1012D04D1894800E08948FDF758FC55
:1050C0008848FDF755FC00237F4D04A95A1992F832
:1050D0008A00854A0E18985C0133082B06F80C0CE0
:1050E000F2D1002601A88DF80C60FDF741FC75484F
:1050F000FDF73EFC7D48FDF744FC7D48FDF741FC93
:10510000D5F89800FBF7CAFF81B27A48FDF739FC61
:10511000D5F89C00FBF7C2FF81B27748FDF731FC60
:10512000D5F8A000FBF7BAFF81B27448FDF729FC5F
:10513000D5F8A400FBF7B2FF81B27148FDF721FC5E
:10514000D5F8A800FBF7AAFF81B26E48FDF719FC5D
:10515000A86FFBF76BF954A3D3E90023FBF7BAF967
:1051600053A3D3E90023FBF7DFFAFBF74DFCFBF772
:105170005DF902460B466448FDF703FCE86FFBF758
:1051800055F949A3D3E90023FBF7A4F948A3D3E9D0
:105190000023FBF7C9FAFBF737FCFBF747F9024698
:1051A0000B465A48FDF7EDFBD5F88000FBF73EF9BA
:1051B0003DA3D3E90023FBF78DF93DA3D3E90023F9
:1051C000FBF7B2FAFBF720FCFBF730F902460B467F
:1051D0004F48FDF7D6FB95F810124E48FDF7D1FB6E
:1051E00095F811124C48FDF7CCFB354601E71C2021
:1051F000354E8DF800000024684601258DF80140E9
:105200008DF802508DF8034004F022FD96F88820B6
:105210004FF080403AB9022105F0F6FA86F888503E
:10522000FEF74CFA37E02946224605F0EDFA86F8FB
:105230008840FDF789FF2EE001A80821FEF79EFDBA
:1052400001A802F0DDFA25E01F4A002182F889104A
:1052500020E0FEF7B5FDFBF721FF1B4C84F81002A0
:10526000FEF7AEFDFBF71AFF84F8110212E0FEF71D
:10527000A7FD1649FBF7DAFD1549FBF723FD124C94
:10528000A067FEF79DFD1149FBF7D0FD1049FBF724
:1052900019FDE06701256124ABE62048FDF768FBB6
:1052A00002F01CFBA5E600BF0000000000F905416C
:1052B00000000060FB210940250A002092490108F6
:1052C000AF490108225A0108341F002000C82F48A6
:1052D000DB0F4940DE4B0108C0490108E7490108DE
:1052E000E2490108F149010884600108124A0108F5
:1052F000334A0108404A0108664A01088C4A0108FD
:10530000B24A0108D84A0108FF4A01082A4B01089D
:10531000554B0108854B0108B14B01082242010899
:105320000F48FDF725FB0F48FDF722FB0E48FDF760
:105330001FFB0E48FDF71CFB0D48FDF719FB0D4840
:10534000FDF716FB0C48FDF713FB0C48FDF710FBAF
:105350000B48FDF70DFB0248FDF70AFB49E600BFCD
:10536000225A0108FA4B0108474C0108A64C0108D3
:10537000234D01088E4D0108024E01080B4901081A
:105380004F4E0108AFF30080F0B59C4B012285B071
:105390009B481A70FDF7ECFA002478269948FDF72F
:1053A000E7FAFDF7B1FA10B9002CFAD003E014B90E
:1053B000FDF7B8FA06469448FDF7DAFA612E34D0C4
:1053C0001ED8442E00F0EE810AD8422E00F0DD8176
:1053D00000F2E0813F2E00F00582412EDED1B4E1E3
:1053E000562E00F0E781572E00F0F681452ED5D1DC
:1053F000FEF7E6FC854CE066FEF7E2FC2067E8E19C
:105400006D2E00F0728107D8632E00F06381C0F02A
:105410005781642EC2D160E1762E00F08281782E11
:1054200000F08B81702EB9D16EE1784F7D78012D1F
:1054300027D17748FDF79CFAF869FAF7F7FF044699
:10544000386A0D46FAF7F2FFCDE90001786AFAF7FB
:10545000EDFF22462B46CDE902016E48FDF791FA99
:10546000B86AFAF7E3FF0446F86A0D46FAF7DEFF7A
:10547000CDE90001386BFAF7D9FFCDE902016648A2
:1054800026E06648FDF774FA3869FAF7CFFF04465C
:1054900078690D46FAF7CAFFCDE90001B869FAF755
:1054A000C5FF22462B46CDE902015D48FDF769FAAA
:1054B0007868FAF7BBFF0446B8680D46FAF7B6FFFE
:1054C000CDE90001F868FAF7B1FFCDE902015548CE
:1054D0004E4F22462B46FDF754FA786BFAF7A6FF9B
:1054E0000446B86B0D46FAF7A1FFCDE90001F86B51
:1054F000FAF79CFF22462B46CDE902014A48FDF708
:1055000040FA386CFAF792FF0446786C0D46FAF7C9
:105510008DFFCDE90001B86CFAF788FF22462B46D3
:10552000CDE902014148FDF72CFAF86CFAF77EFF4D
:105530000446386D0D46FAF779FFCDE90001786D24
:10554000FAF774FF2246CDE902012B463848FDF7F1
:1055500018FA38490868FAF769FF02460B463648D8
:10556000FDF70FFAB86DFAF761FF02460B463348B4
:10557000FDF707FAF86DFAF759FF02460B46304877
:10558000FDF7FFF9386EFAF751FF02460B462D483A
:10559000FDF7F7F9786EFAF749FF02460B462A48FD
:1055A000FDF7EFF9B86EFAF741FF02460B462748C0
:1055B000FDF7E7F9F86EFAF739FF02460B46244883
:1055C000FDF7DFF9386FFAF731FF02460B46214845
:1055D000FDF7D7F97878012849D11F48FDF7C8F9B8
:1055E00097F87430032B42D8DFE803F00204063E3C
:1055F0001A483AE01A4838E01A4836E0250A0020EE
:105600008F4E0108AA4E0108225A0108341F0020BB
:10561000B94E0108CE4E0108FE4E01082E4F01087A
:105620004B4F01087B4F0108AB4F0108DB4F0108CE
:105630000B500108000000203B5001085D5001089C
:105640007F500108A1500108C3500108E55001082E
:1056500007510108295101084B5101086A510108FD
:10566000725101087A5101087548FDF781F9BA783D
:10567000744C012A0CBF74487448FDF779F994F80A
:10568000141201290CBF72487248FDF771F9D4F861
:105690000802FAF7CBFE02460B466F48FDF771F998
:1056A000D4F80C02FAF7C2FE02460B466B48FDF72F
:1056B00068F994F804126A48FDF763F900246DE66E
:1056C000604B5C78012C02D100F09EFE82E000F07D
:1056D0005FFD7EE000F0D6FC7BE05A484278002A6D
:1056E0007FF45CAE00F014FA73E0564B5C7834B192
:1056F00000225A70FCF7FEF8FCF734FC69E0012444
:105700005C70FCF7D5FD65E04E4901248E7826B12A
:1057100000208870FCF714FA5CE08C70FCF7F8FE4F
:1057200058E04849012491F814621EB1002081F824
:1057300014024FE081F814424CE04A48FDF718F992
:10574000494B00221A7005B0F0BD3E4D6878012823
:105750007FF424AEFEF734FBFBF7A0FCC1B20329B3
:105760000CD8DFE801F002040608002404E001245C
:1057700002E0022400E0032485F8744068201A2126
:1057800095F87420FDF78AFC23E0FEF719FB2D49FC
:1057900088651EE0FEF714FB2A4EF065FEF710FB4D
:1057A000306616E0FEF70CFB264C6066FEF708FB41
:1057B000A0660EE0FEF704FB224EC6F80802FEF7D4
:1057C000FFFAC6F80C02FEF7FBFAFBF767FC86F857
:1057D000040201246126E1E52448FDF7C9F802F03E
:1057E0007DF8DBE5174D2248FDF7C2F86A78012AFB
:1057F0000CBF20482048FDF7BBF82048FDF7B8F85B
:105800001F48FDF7B5F86B78012B0CBF1D481E48EB
:10581000FDF7AEF81D48FDF7ABF81D48FDF7A8F8F9
:105820001C48FDF7A5F81C48FDF7A2F81B48FDF73A
:105830009FF81B48FDF79CF80D48FDF799F8ADE57A
:1058400081510108341F0020885101089C51010832
:10585000B0510108CE510108F45101081652010857
:10586000385201085C520108250A00202242010832
:10587000225A010876520108D5520108EE52010859
:1058800050530108B253010814540108765401081A
:10589000D0540108EC540108065501080B490108D1
:1058A0006D550108F8B57A4B01227A481A70FDF758
:1058B0005FF8002578247848FDF75AF8FDF724F8BA
:1058C00010B9002DFAD003E015B9FDF72BF8044606
:1058D0007248FDF74DF8652C00F0C5803CD8622C6D
:1058E00000F0BA8031D8572C00F0CC80612C4BD01E
:1058F0003F2CE0D16948FDF73BF86948FDF738F8DF
:105900006848FDF735F86848FDF732F86748FDF755
:105910002FF86748FDF72CF86648FDF729F8664828
:10592000FDF726F86548FDF723F86548FDF720F8F0
:105930006448FDF71DF86448FDF71AF86348FDF761
:1059400017F85648FDF714F8B5E7632C00F0868089
:10595000642CB0D102248FE0682C00F0888006D837
:10596000662C00F08280672CA5D1102484E06A2C7C
:1059700000F081807DD3782C9DD15548FCF7F8FF4D
:10598000434B00211970F8BD524F5348FCF7F0FF0C
:105990005248534D534EFCF7EBFFB7F812125248E2
:1059A000012914BF31462946FCF7EBFF4F48FCF7AD
:1059B000DFFFB7F812224C48022A14BF31462946AD
:1059C000FCF7DFFF4A48FCF7D3FFB7F8123246482E
:1059D000042B14BF31462946FCF7D3FF4548FCF79A
:1059E000C7FFB7F812124048082914BF31462946AC
:1059F000FCF7C7FF4048FCF7BBFFB7F812223A4854
:105A0000102A14BF31462946FCF7BBFF3B48FCF780
:105A1000AFFFB7F812323448202B14BF3146294665
:105A2000FCF7AFFF3648FCF7A3FFB7F812122E4879
:105A3000402914BF31462946FCF7A3FF3148FCF743
:105A400097FFB7F812222848802A14BF314629460A
:105A5000FCF797FF00252EE700240DE01D480125E7
:105A6000A0F812520CE0042406E0082404E02024EC
:105A700002E0402400E08024164DA5F812420125E2
:105A8000612418E72048FCF773FF01F027FF12E7B5
:105A9000250A0020BF550108DD550108225A0108DA
:105AA000D7560108F956010815570108375701085C
:105AB000595701087B5701089D570108BF57010836
:105AC000E1570108035801080B490108255801084E
:105AD000BA560108341F0020EF5501080A56010884
