:020000040800F2
:100000000050002005170008BD9C0008BF9C000898
:10001000C19C0008C39C0008C59C000800000000AB
:10002000000000000000000000000000C79C000865
:10003000C99C000800000000CB9C0008E1380008C3
:10004000B5170008B5170008B5170008B517000860
:10005000B5170008B5170008B5170008B517000850
:10006000B5170008B5170008B5170008B517000840
:10007000B5170008B5170008BD270008B517000818
:10008000B5170008B5170008B5170008B517000820
:10009000B5170008B5170008B5170008B517000810
:1000A000B5170008B5170008B5170008B517000800
:1000B0008D330008B5170008B5170008B5170008FC
:1000C000B5170008F12A0008F1300008B51700083C
:1000D000B5170008A936000851360008B517000802
:1000E000B5170008B5170008B51700080000000094
:1000F0000000000000000000000000000000000000
:0C01000000000000000000005FF808F1A3
:1001100010B5054C237833B9044810B10448AFF347
:1001200000800121217010BDA809002000000000FE
:100130003878010808B5064B1BB106480649AFF3ED
:1001400000800648016811B1054A02B1904708BD18
:100150000000000038780108AC090020A409002044
:100160000000000081F0004102E000BF83F0004386
:1001700030B54FEA41044FEA430594EA050F08BF42
:1001800090EA020F1FBF54EA000C55EA020C7FEA06
:10019000645C7FEA655C00F0E2804FEA5454D4EB83
:1001A0005555B8BF6D420CDD2C4480EA020281EA4D
:1001B000030382EA000083EA010180EA020281EA85
:1001C0000303362D88BF30BD11F0004F4FEA0131D7
:1001D0004FF4801C4CEA113102D0404261EB4101E6
:1001E00013F0004F4FEA03334CEA133302D052426C
:1001F00063EB430394EA050F00F0A780A4F1010428
:10020000D5F1200E0DDB02FA0EFC22FA05F2801861
:1002100041F1000103FA0EF2801843FA05F3594147
:100220000EE0A5F120050EF1200E012A03FA0EFCC6
:1002300028BF4CF0020C43FA05F3C01851EBE371F0
:1002400001F0004507D54FF0000EDCF1000C7EEB0D
:1002500000006EEB0101B1F5801F1BD3B1F5001F4B
:100260000CD349085FEA30004FEA3C0C04F101046A
:100270004FEA445212F5800F80F09A80BCF1004F93
:1002800008BF5FEA500C50F1000041EB045141EA15
:10029000050130BD5FEA4C0C404141EB010111F416
:1002A000801FA4F10104E9D191F0000F04BF0146C1
:1002B0000020B1FA81F308BF2033A3F10B03B3F19F
:1002C00020020CDA0C3208DD02F1140CC2F10C022F
:1002D00001FA0CF021FA02F10CE002F11402D8BF8D
:1002E000C2F1200C01FA02F120FA0CFCDCBF41EA59
:1002F0000C019040E41AA2BF01EB0451294330BD28
:100300006FEA04041F3C1CDA0C340EDC04F1140404
:10031000C4F1200220FA04F001FA02F340EA0300DB
:1003200021FA04F345EA030130BDC4F10C04C4F121
:10033000200220FA02F001FA04F340EA0300294601
:1003400030BD21FA04F0294630BD94F0000F83F44B
:10035000801306BF81F480110134013D4EE77FEA2E
:10036000645C18BF7FEA655C29D094EA050F08BF7A
:1003700090EA020F05D054EA000C04BF194610465B
:1003800030BD91EA030F1EBF0021002030BD5FEA9F
:10039000545C05D14000494128BF41F0004130BDC7
:1003A00014F580043CBF01F5801130BD01F000451B
:1003B00045F0FE4141F470014FF0000030BD7FEA8E
:1003C000645C1ABF194610467FEA655C1CBF0B4689
:1003D000024650EA013406BF52EA033591EA030FA0
:1003E00041F4002130BD00BF90F0000F04BF002198
:1003F000704730B54FF4806404F132044FF00005CB
:100400004FF0000150E700BF90F0000F04BF002143
:10041000704730B54FF4806404F1320410F00045A9
:1004200048BF40424FF000013EE700BF42004FEAA4
:10043000E2014FEA31014FEA02701FBF12F07F4321
:1004400093F07F4F81F06051704792F0000F14BF1E
:1004500093F07F4F704730B54FF4607401F0004562
:1004600021F0004120E700BF50EA010208BF7047B9
:1004700030B54FF000050AE050EA010208BF7047AE
:1004800030B511F0004502D5404261EB41014FF417
:10049000806404F132045FEA915C3FF4DCAE4FF01B
:1004A00003025FEADC0C18BF03325FEADC0C18BF02
:1004B000033202EBDC02C2F1200300FA03FC20FA53
:1004C00002F001FA03FE40EA0E0021FA02F11444A0
:1004D000C1E600BF70B54FF0FF0C4CF4E06C1CEAB5
:1004E00011541DBF1CEA135594EA0C0F95EA0C0F2A
:1004F00000F0DEF82C4481EA030621EA4C5123EA9D
:100500004C5350EA013518BF52EA033541F48011CB
:1005100043F4801338D0A0FB02CE4FF00005E1FB7E
:1005200002E506F00042E0FB03E54FF00006E1FBC8
:1005300003569CF0000F18BF4EF0010EA4F1FF040B
:10054000B6F5007F64F5407404D25FEA4E0E6D414B
:1005500046EB060642EAC62141EA55514FEAC5205C
:1005600040EA5E504FEACE2EB4F1FD0C88BFBCF5D8
:10057000E06F1ED8BEF1004F08BF5FEA500E50F189
:10058000000041EB045170BD06F0004646EA01014F
:1005900040EA020081EA0301B4EB5C04C2BFD4EB81
:1005A0000C0541EA045170BD41F480114FF0000E7A
:1005B000013C00F3AB8014F1360FDEBF002001F0E8
:1005C000004170BDC4F10004203C35DA0C341BDC62
:1005D00004F11404C4F1200500FA05F320FA04F034
:1005E00001FA05F240EA020001F0004221F0004168
:1005F00010EBD37021FA04F642EB06015EEA430EDB
:1006000008BF20EAD37070BDC4F10C04C4F120050A
:1006100000FA04F320FA05F001FA04F240EA0200BD
:1006200001F0004110EBD37041F100015EEA430E8E
:1006300008BF20EAD37070BDC4F1200500FA05F2AE
:100640004EEA020E20FA04F301FA05F243EA02032D
:1006500021FA04F001F0004121FA04F220EA02003C
:1006600000EBD3705EEA430E08BF20EAD37070BD82
:1006700094F0000F0FD101F00046400041EB010162
:1006800011F4801F08BF013CF7D041EA060195F044
:10069000000F18BF704703F00046520043EB0303FE
:1006A00013F4801F08BF013DF7D043EA06037047EB
:1006B00094EA0C0F0CEA135518BF95EA0C0F0CD0F6
:1006C00050EA410618BF52EA4306D1D181EA03013C
:1006D00001F000414FF0000070BD50EA410606BF36
:1006E0001046194652EA430619D094EA0C0F02D17B
:1006F00050EA013613D195EA0C0F05D152EA0336C0
:100700001CBF104619460AD181EA030101F00041DD
:1007100041F0FE4141F470014FF0000070BD41F026
:10072000FE4141F4780170BD70B54FF0FF0C4CF400
:10073000E06C1CEA11541DBF1CEA135594EA0C0F1F
:1007400095EA0C0F00F0A7F8A4EB050481EA030E6C
:1007500052EA03354FEA013100F088804FEA033353
:100760004FF0805545EA131343EA12634FEA022221
:1007700045EA111545EA10654FEA00260EF00041E2
:100780009D4208BF964244F1FD0404F5407402D234
:100790005B084FEA3202B61A65EB03055B084FEAC5
:1007A00032024FF480104FF4002CB6EB020E75EBC2
:1007B000030E22BFB61A754640EA0C005B084FEAEA
:1007C0003202B6EB020E75EB030E22BFB61A754667
:1007D00040EA5C005B084FEA3202B6EB020E75EBB2
:1007E000030E22BFB61A754640EA9C005B084FEA2A
:1007F0003202B6EB020E75EB030E22BFB61A754637
:1008000040EADC0055EA060E18D04FEA051545EA25
:1008100016754FEA06164FEAC30343EA52734FEACE
:10082000C2025FEA1C1CC0D111F4801F0BD141EA47
:1008300000014FF000004FF0004CB6E711F4801FAC
:1008400004BF01430020B4F1FD0C88BFBCF5E06F8C
:100850003FF6AFAEB5EB030C04BFB6EB020C5FEA9C
:10086000500C50F1000041EB045170BD0EF0004EF1
:100870004EEA113114EB5C04C2BFD4EB0C0541EA23
:10088000045170BD41F480114FF0000E013C90E620
:1008900045EA060E8DE60CEA135594EA0C0F08BFE4
:1008A00095EA0C0F3FF43BAF94EA0C0F0AD150EAE3
:1008B00001347FF434AF95EA0C0F7FF425AF104676
:1008C00019462CE795EA0C0F06D152EA03353FF49E
:1008D000FDAE1046194622E750EA410618BF52EA1B
:1008E00043067FF4C5AE50EA41047FF40DAF52EAEF
:1008F00043057FF4EBAE12E74FF0FF3C06E000BF8C
:100900004FF0010C02E000BF4FF0010C4DF804CD98
:100910004FEA410C7FEA6C5C4FEA430C18BF7FEA58
:100920006C5C1BD001B050EA410C0CBF52EA430C86
:1009300091EA030F02BF90EA020F0020704710F106
:10094000000F91EA030F58BF994208BF90422CBF95
:10095000D8176FEAE37040F0010070474FEA410C8E
:100960007FEA6C5C02D150EA013C07D14FEA430CAC
:100970007FEA6C5CD6D152EA033CD3D05DF8040B1D
:10098000704700BF8446104662468C46194663464F
:1009900000E000BF01B5FFF7B7FF002848BF10F126
:1009A000000F01BD4DF808EDFFF7F4FF0CBF01206B
:1009B00000205DF808FB00BF4DF808EDFFF7EAFFE7
:1009C00034BF012000205DF808FB00BF4DF808EDA2
:1009D000FFF7E0FF94BF012000205DF808FB00BF97
:1009E0004DF808EDFFF7CEFF94BF012000205DF821
:1009F00008FB00BF4DF808EDFFF7C4FF34BF01202E
:100A000000205DF808FB00BF4FEA4102B2F1E0436D
:100A100024BFB3F5001CDCF1FE5C0DD901F0004CE5
:100A20004FEAC0024CEA5070B2F1004F40EB830035
:100A300008BF20F00100704711F0804F21D113F161
:100A40003872BCBF01F00040704741F480114FEA9A
:100A50005252C2F11802C2F1200C10FA0CF320FA23
:100A600002F018BF40F001004FEAC1234FEAD32340
:100A700003FA0CFC40EA0C0023FA02F34FEA4303AA
:100A8000CCE77FEA625307D150EA01331EBF4FF033
:100A9000FE4040F44000704701F0004040F0FE404E
:100AA00040F40000704700BF80F0004002E000BF4B
:100AB00081F0004142001FBF5FEA410392EA030F49
:100AC0007FEA226C7FEA236C6AD04FEA1262D2EB93
:100AD0001363C1BFD218414048404140B8BF5B4298
:100AE000192B88BF704710F0004F40F4000020F031
:100AF0007F4018BF404211F0004F41F4000121F047
:100B00007F4118BF494292EA030F3FD0A2F1010290
:100B100041FA03FC10EB0C00C3F1200301FA03F1CE
:100B200000F0004302D5494260EB4000B0F5000FF1
:100B300013D3B0F1807F06D340084FEA310102F1B0
:100B40000102FE2A51D2B1F1004F40EBC25008BF62
:100B500020F0010040EA03007047490040EB00002C
:100B600010F4000FA2F10102EDD1B0FA80FCACF15B
:100B7000080CB2EB0C0200FA0CF0AABF00EBC2505A
:100B800052421843BCBFD0401843704792F0000F48
:100B900081F4000106BF80F400000132013BB5E79B
:100BA0004FEA41037FEA226C18BF7FEA236C21D011
:100BB00092EA030F04D092F0000F08BF0846704776
:100BC00090EA010F1CBF0020704712F07F4F04D144
:100BD000400028BF40F00040704712F100723CBF57
:100BE00000F50000704700F0004343F0FE4040F481
:100BF000000070477FEA226216BF08467FEA23633F
:100C00000146420206BF5FEA412390EA010F40F429
:100C1000800070474FF0000304E000BF10F0004375
:100C200048BF40425FEA000C08BF704743F096435C
:100C300001464FF000001CE050EA010208BF704777
:100C40004FF000030AE000BF50EA010208BF7047FE
:100C500011F0004302D5404261EB41015FEA010C13
:100C600002BF84460146002043F0B64308BFA3F10B
:100C70008053A3F50003BCFA8CF2083AA3EBC253ED
:100C800010DB01FA02FC634400FA02FCC2F120020C
:100C9000BCF1004F20FA02F243EB020008BF20F043
:100CA0000100704702F1200201FA02FCC2F12002A9
:100CB00050EA4C0021FA02F243EB020008BF20EA9E
:100CC000DC7070474FF0FF0C1CEAD0521EBF1CEACC
:100CD000D15392EA0C0F93EA0C0F6FD01A4480EABA
:100CE000010C400218BF5FEA41211ED04FF00063A3
:100CF00043EA501043EA5111A0FB01310CF00040CF
:100D0000B1F5000F3EBF490041EAD3715B0040EAF4
:100D1000010062F17F02FD2A1DD8B3F1004F40EBC4
:100D2000C25008BF20F00100704790F0000F0CF097
:100D3000004C08BF49024CEA502040EA51207F3A5B
:100D4000C2BFD2F1FF0340EAC250704740F4000036
:100D50004FF00003013A5DDC12F1190FDCBF00F027
:100D600000407047C2F10002410021FA02F1C2F1D5
:100D7000200200FA02FC5FEA310040F1000053EA71
:100D80004C0308BF20EADC70704792F0000F00F0BF
:100D9000004C02BF400010F4000F013AF9D040EAC5
:100DA0000C0093F0000F01F0004C02BF490011F459
:100DB000000F013BF9D041EA0C018FE70CEAD15357
:100DC00092EA0C0F18BF93EA0C0F0AD030F0004CD7
:100DD00018BF31F0004CD8D180EA010000F000408B
:100DE000704790F0000F17BF90F0004F084691F049
:100DF000000F91F0004F14D092EA0C0F01D1420283
:100E00000FD193EA0C0F03D14B0218BF084608D14B
:100E100080EA010000F0004040F0FE4040F4000095
:100E2000704740F0FE4040F4400070474FF0FF0C28
:100E30001CEAD0521EBF1CEAD15392EA0C0F93EA6F
:100E40000C0F69D0A2EB030280EA010C49024FEAC1
:100E5000402037D04FF0805343EA111143EA10137A
:100E60000CF000408B4238BF5B0042F17D024FF432
:100E7000000C8B4224BF5B1A40EA0C00B3EB510F0D
:100E800024BFA3EB510340EA5C00B3EB910F24BFF6
:100E9000A3EB910340EA9C00B3EBD10F24BFA3EB7B
:100EA000D10340EADC001B0118BF5FEA1C1CE0D143
:100EB000FD2A3FF650AF8B4240EBC25008BF20F0F6
:100EC000010070470CF0004C4CEA50207F32C2BF4A
:100ED000D2F1FF0340EAC250704740F400004FF0E7
:100EE0000003013A37E792F0000F00F0004C02BF18
:100EF000400010F4000F013AF9D040EA0C0093F0E2
:100F0000000F01F0004C02BF490011F4000F013B3B
:100F1000F9D041EA0C0195E70CEAD15392EA0C0FA3
:100F200008D142027FF47DAF93EA0C0F7FF470AFDB
:100F3000084676E793EA0C0F04D14B023FF44CAF1E
:100F400008466EE730F0004C18BF31F0004CCAD1B3
:100F500030F000427FF45CAF31F000437FF43CAFEF
:100F60005FE700BF4FF0FF3C06E000BF4FF0010C11
:100F700002E000BF4FF0010C4DF804CD4FEA4002F3
:100F80004FEA41037FEA226C18BF7FEA236C11D03D
:100F900001B052EA530C18BF90EA010F58BFB2EBF0
:100FA000030088BFC81738BF6FEAE17018BF40F070
:100FB000010070477FEA226C02D15FEA402C05D124
:100FC0007FEA236CE4D15FEA412CE1D05DF8040BA9
:100FD000704700BF844608466146FFE70FB5FFF73C
:100FE000C9FF002848BF10F1000F0FBD4DF808EDF4
:100FF000FFF7F4FF0CBF012000205DF808FB00BFE5
:101000004DF808EDFFF7EAFF34BF012000205DF83E
:1010100008FB00BF4DF808EDFFF7E0FF94BF01208B
:1010200000205DF808FB00BF4DF808EDFFF7D2FF88
:1010300094BF012000205DF808FB00BF4DF808EDCB
:10104000FFF7C8FF34BF012000205DF808FB00BF98
:101050004FEA4002B2F1FE4F0FD34FF09E03B3EBC5
:1010600012620DD94FEA002343F0004310F0004F05
:1010700023FA02F018BF404270474FF0000070475B
:1010800012F1610F01D1420205D110F0004008BFFA
:101090006FF0004070474FF00000704742000ED2E2
:1010A000B2F1FE4F0BD34FF09E03B3EB126209D4A3
:1010B0004FEA002343F0004323FA02F070474FF059
:1010C0000000704712F1610F01D1420202D14FF0CE
:1010D000FF3070474FF00000704700BF4FEA4102F9
:1010E00012F5001215D211D56FF47873B3EB62527A
:1010F00012D94FEAC12343F0004343EA505311F0A1
:10110000004F23FA02F018BF404270474FF0000032
:10111000704750EA013005D111F0004008BF6FF070
:10112000004070474FF00000704700BF4BB942B914
:10113000002908BF002802D04FF0FF31084600F018
:101140003BB882B0EC462DE9005000F01DF8DDF808
:1011500004E002B00CBC70472DE9F04116469846F9
:1011600004460D4600F02AF806FB01FCA6FB00230E
:1011700000FB08C7FB18A21A65EB0303069CC4E931
:101180000023BDE8F08100BF2DE9F04190460646FE
:101190000F461D4600F070F900FB05F3A0FB084563
:1011A00008FB0138069B4544341B67EB0505C3E982
:1011B0000045BDE8F08100BF704700BF00292DE960
:1011C000F00F1D46C0F29D800024002DC0F29480D7
:1011D00080460F4694461E46E3BB8A4255D9B2FA72
:1011E00082F747B1C7F1200520FA05F601FA07F1A9
:1011F000BA40B8403143170CB1FBF7F61FFA82FC36
:1012000007FB16110CFB06F5030C43EA01439D4254
:1012100008D9711E9B1880F013819D4240F2108105
:10122000023E9B18591BB1FBF7F507FB15130CFB8E
:1012300005FC80B240EA03418C4507D96B1E8A1831
:1012400080F00081944540F2FD80023D45EA064170
:10125000002503E08B420CD9002529460A462B467F
:1012600014B1524263EB430310461946BDE8F00F38
:101270007047B3FA83F5002D40F087808B4201D38D
:101280008242EAD800250121E8E712B90126B6FB1F
:10129000F2F2B2FA82F6002E39D18E1A130C1FFA2E
:1012A00082FC0125B6FBF3F703FB17610CFB07F883
:1012B0004FEA104949EA0146B04506D9791EB618E9
:1012C00002D2B04500F2D3800F46C8EB0606B6FB4B
:1012D000F3F103FB11630CFB01FC80B240EA034312
:1012E0009C4506D94E1E9A1802D2944500F2C2803F
:1012F000314641EA0741B1E7E443524263EB43031D
:1013000066E7404261EB41014FF0FF345DE7B240D8
:10131000C6F1200921FA09F720FA09F901FA06F1C4
:10132000130CB7FBF3F81FFA82FC03FB18770CFBD6
:1013300008F549EA01094FEA194141EA0747B04077
:10134000BD420AD9BF1808F1FF3680F08E80BD4239
:1013500040F28B80A8F10208BF18791BB1FBF3F5AE
:1013600003FB15170CFB05F61FFA89F949EA07413B
:101370008E4206D96F1E891871D28E426FD9023DF6
:1013800089188E1B45EA08458CE7C5F1200122FA31
:1013900001F306FA05F627FA01F207FA05F720FA33
:1013A00001F11E434FEA1649B2FBF9F81FFA86FA1B
:1013B00009FB18220AFB08FB0F433B0C43EA0242DD
:1013C00093450CFA05FC08D9921908F1FF314AD26D
:1013D000934548D9A8F102089219CBEB0203B3FB5D
:1013E000F9F109FB11320AFB01FABFB247EA0243E5
:1013F0009A4506D94A1E9B1933D29A4531D90239EA
:101400009B1941EA08410F0C1FFA8CF808FB07F6FC
:101410008AB24FEA1C4C08FB02F80CFB02620CFB80
:1014200007FC02EB1842964288BF0CF5803CCAEBE1
:1014300003030CEB124C63450ED305D000250DE7DA
:101440000E46EFE61D4601E700FA05F01FFA88F8A0
:1014500008EB0245A842F1D201390025FEE63D46DF
:101460008FE71146CDE78846B7E7B04675E7023FFC
:10147000B6182AE702393CE72DE9F007144605467D
:101480000E46002B3DD18A4249D9B2FA82F747B1C4
:10149000C7F1200120FA01F206FA07F6BC40BD4070
:1014A0001643220CB6FBF2F0A1B202FB106601FB60
:1014B00000F32F0C47EA0646B34208D9471E3619F7
:1014C00080F0FA80B34240F2F78002383619F61AFB
:1014D000B6FBF2F302FB136201FB03F1ADB245EA86
:1014E0000242914207D95E1E121980F0E7809142B4
:1014F00040F2E480023B43EA00400021BDE8F007EF
:1015000070478B4243D8B3FA83F4002C42D18B420C
:1015100002D3824200F2E18000210120EEE712B9FD
:101520000127B7FBF2F4B4FA84F2002A40F0898074
:101530000A1B230CA7B20121B2FBF3F603FB162210
:1015400007FB06F04FEA154C4CEA0242904207D9DD
:10155000121906F1FF3C02D2904200F2D08066469A
:10156000121AB2FBF3F003FB102307FB00F7ADB236
:1015700045EA03439F4207D9421E1B1980F0A08011
:101580009F4240F29D80023840EA0640B6E70021C3
:101590000846B3E7C4F1200622FA06F703FA04F37B
:1015A00021FA06F501FA04F120FA06F63B434FEA68
:1015B000134CB5FBFCF71FFA83F80CFB175508FB1F
:1015C00007F946EA010A4FEA1A4141EA0545A945E9
:1015D00002FA04F204D97E1EED18C0F0818037466D
:1015E000C9EB0501B1FBFCF60CFB161508FB06F870
:1015F0001FFA8AFA4AEA0541884503D9751EC918B7
:1016000074D32E4646EA0746370C1FFA82FC0CFBC1
:1016100007F5120CB3B20CFB03FC02FB035302FBF5
:1016200007F203EB1C439D4288BF02F58032C8EBF2
:10163000010102EB134291424CD343D030460021CA
:101640005CE79440C2F1200521FA05F620FA05F581
:1016500001FA02F1230CB6FBF3FCA7B203FB1C66F4
:1016600007FB0CF829430D0C45EA0646B04500FA85
:1016700002F508D936190CF1FF303ED2B0453CD9FD
:10168000ACF1020C3619C8EB0602B2FBF3F003FB17
:10169000102607FB00F889B241EA0642904506D9B8
:1016A000461E121927D2904525D902381219C8EBC7
:1016B000020240EA0C413FE7384608E733461AE7A2
:1016C000104661E700FA04F01FFA8CFC0CEB0343B0
:1016D0009842B3D2701E002110E7214620460DE744
:1016E000A9457FF67CAF023FED1879E7884588D998
:1016F000023EC91886E73046D9E78446C3E7023E72
:1017000012192DE71D481E49026800608A4200F048
:101710001F80002100F004B81A4B5B58435004317D
:1017200019481A4B42189A42FFF4F6AF184A00F0D3
:1017300003B8002342F8043B164B9A42FFF4F9AF7A
:1017400008F0C4FA0DF008FB07F062FAFFF7FEBFDD
:10175000114E124830601248016821F0706101603A
:10176000410201600F4C182020600F490F480860AB
:101770000F48D0F800D0406800470000F04F00202C
:10178000EFBEADDE6478010800000020A40900204F
:10179000A809002060240020181002400900000061
:1017A00004000140140C0140000C01404434434447
:1017B00000F0FF1FFFF7FEBF07B5322106226B4680
:1017C000532001F0CBFB0A4B9DF800209DF801004F
:1017D0009DF802109A70D87019709DF803209DF83A
:1017E00004009DF805105A70187159710EBD00BFA4
:1017F000DE0D00202DE9F843394B002501221A7037
:101800004FF4FA662F46A946DFF8E480354CFFF71F
:10181000D3FFB8F90000FFF701FA6168FFF748F954
:101820002169FFF74FFA01464846FFF743F9814621
:10183000B8F90200FFF7F2F9A168FFF739F9616919
:10184000FFF740FA01463846FFF734F90746B8F982
:101850000400FFF7E3F9E168FFF72AF9A169FFF750
:1018600031FA01462846FFF725F9013E0546B6B292
:101870004FF47A7002F042F9002EC5D11A49484659
:10188000FFF7D4FA184904463846FFF7CFFA16494D
:1018900007462846FFF7CAFA214605462046FFF7C5
:1018A00011FA394604463846FFF70CFA014620463D
:1018B000FFF700F9294604462846FFF703FA0146D8
:1018C0002046FFF7F7F8FEF7B1FD0AF0EBF8FFF757
:1018D0009BF80649086002480670BDE8F88300BF1F
:1018E000D60900209C1F00200000FA4400000020C0
:1018F000DE0D002008B52D210822532001F0F0FB59
:101900000A2002F017F931210922532001F0E8FBE7
:101910000A2002F00FF92C210E22532001F0E0FBE7
:10192000642002F007F9BDE80840FFF763BF00003C
:1019300007B5F621022201AB772001F00FFB064B21
:101940009DF804209DF805005A701870F421772046
:10195000742201F0C5FB0EBD640D002007B5F62111
:10196000032201AB772001F0F9FA094B9DF804201E
:101970009DF805009DF80610587019709A701A6845
:10198000F421D01118602E22772001F0A9FB0EBDA2
:101990007C0D00200D4B0E4A188811680B1A0D485B
:1019A0000D4902880D485343B0F900200C48DB1361
:1019B0000B60D102B0F90020981891FBF0F20949B0
:1019C00009489B180A600360704700BF4A0D002059
:1019D000340D00204C0D0020700D0020600D002003
:1019E000580D0020540D0020680D0020000000005C
:1019F0003F4B10B518683F4AA0F57A6303FB03F12B
:101A00003D4C08133D491360B4F90020B1F9004082
:101A10003B494443B1F900105943C91201EBE42199
:101A200001EB820251008A1C9110364A1160364A3D
:101A3000B2F900205343354AB2F900205043001454
:101A400000EB63339A1C9010314B324A18601388B4
:101A500000F500405843304A304BC00B10601A6804
:101A600046F2A813511A4B432D4A002B136003DB97
:101A70005900B1FBF0F302E0B3FBF0F043001812A1
:101A8000404340F6DE325043264A27495A43001469
:101A900008601214254980180A6000F6CF6203EB33
:101AA0002210234B1860FFF7B9F82249FFF7BEF95F
:101AB000FEF7BCFC0AA3D3E9002309F06BFE024643
:101AC0000B4600201C49FEF751FB07A3D3E9002376
:101AD000FEF700FDFEF798FF1849C86310BD00BF70
:101AE00000000020965BC83F0000000040A5E540D4
:101AF000680D0020780D0020460D00203C0D0020D0
:101B00004E0D0020740D0020800D0020480D002097
:101B10006C0D00205A0D0020500D0020400D0020BB
:101B20005C0D002043E3FFFF700D0020540D0020EA
:101B3000380D002080E6C5470000F03F5C1F002004
:101B40007FB50F2001F0F6FFAA2116226B46772001
:101B500001F004FA9DF800209DF80100344B35494E
:101B60005A7018709DF803209DF802300A704B706F
:101B700031489DF804109DF80530417003709DF8C0
:101B800006209DF807102D482D4B427001709DF8DE
:101B900009209DF808001A7058702A499DF80A30EB
:101BA0009DF80B004B7008709DF80C209DF80D30CF
:101BB000254926484A700B709DF80F209DF80E109D
:101BC00002704170224B9DF8100058709DF8111062
:101BD0009DF8122019709DF813001E4B1E495A7073
:101BE00018709DF815209DF814300A704B702E2245
:101BF000F421772001F074FA0A2001F09BFFFFF72F
:101C000097FE0A2001F096FFFFF7A8FE0A2001F0D8
:101C100091FF1248124B0168124A1960106812496C
:101C20000860FFF7B7FEFFF7E3FE07B000BD00BF97
:101C3000460D00204E0D0020800D00205A0D002082
:101C40004C0D00204A0D0020480D00203C0D0020C6
:101C5000440D0020600D0020580D0020640D002070
:101C6000340D00207C0D0020400D002007B503211D
:101C700006221E206B4601F071F9134B9DF80020DF
:101C80009DF801005A709DF8032018709DF802100D
:101C90001A71B3F9002059719DF804009DF80510E0
:101CA00012F5805FD87099700BD0B3F9020010F56F
:101CB000805F06D0B3F9043013F5805018BF0120BF
:101CC00000E000200EBD00BF840D00202DE9F3418F
:101CD000792200211E208DF8041001F001FA322033
:101CE00001F028FF202201211E2001F0F9F9142023
:101CF00001F020FF394B00221A605A609A600A25D1
:101D00001E200221012201F0EBF9142001F012FF44
:101D10009DF80400C30706D41E200921012201AB4F
:101D200001F01CF9F4E72E4EFFF7A0FFB6F9000012
:101D3000FEF774FF294C01462A48FFF777F821681F
:101D4000FEF7B8FE20608046B6F90200FEF766FF97
:101D500001462448FFF76AF86168FEF7ABFE606051
:101D60000746B6F90400FEF759FF01461E48FFF783
:101D70005DF8A168FEF79EFE013D15F0FF050646E1
:101D8000A060BDD140461949FFF750F820F000414E
:101D9000216038461549FFF749F8144920F00043FF
:101DA00030466360FFF742F820F000422946A26007
:101DB0001E20782201F094F9142001F0BBFE0221CC
:101DC0002A461E2001F08CF9142001F0B3FEFFF723
:101DD0004DFF142001F0AEFEBDE8FC818C0D00200B
:101DE000840D0020CD0C9E446726934400002041C2
:101DF00007B51B2108226B46682001F0AFF80D4B98
:101E00009DF800209DF801000B495A7018709DF84C
:101E100003209DF802309DF804004B700A70C870D2
:101E20009DF805309DF806209DF807008B704A71DB
:101E300008710EBDC80D0020F60D002070B5154BC1
:101E4000154CB3F90000154D00F54E501030FEF75B
:101E5000E5FE1349FEF7EAFF1249FEF72BFE124991
:101E600006460860616BFEF72DFF216CFEF722FE2F
:101E7000A16B28603046FEF725FF616CFEF71AFE65
:101E8000E16B68603046FEF71DFFA16CFEF712FEA5
:101E9000A86070BDC80D00209C1F0020CC0D002044
:101EA00000008C4300000C42C40D00202DE9F843D3
:101EB000274B002401221A704FF4FA652746A146E9
:101EC000DFF89C80234EFFF793FFFFF7B7FFB8F9C9
:101ED0000000FEF7A3FE3168FEF7EAFD0146484622
:101EE000FEF7E8FD8146B8F90200FEF797FE71683B
:101EF000FEF7DEFD01463846FEF7DCFD0746B8F981
:101F00000400FEF78BFEB168FEF7D2FD01462046C5
:101F1000FEF7D0FD013D0446ADB24FF47A7001F0FA
:101F2000EDFD002DCCD10C494846FEF77FFF0B4E4E
:101F3000094930603846FEF779FF0749706020464E
:101F4000FEF774FFB06002480570BDE8F88300BF7B
:101F5000D5090020CC0D00200000FA44E40D00203B
:101F6000F60D002008B53E218022682001F0B8F867
:101F70003E210022682001F0B3F8162118226820C3
:101F800001F0AEF815210722682001F0A9F8172109
:101F90000022682001F0A4F8642001F0CBFDBDE828
:101FA0000840FFF783BF00001FB53B210E226B46A0
:101FB000682000F0D3FF174B9DF800209DF801002A
:101FC0009DF802105A701870D9709DF803209DF882
:101FD00004009DF805109A70587119719DF806203B
:101FE0000D4B9DF807000D495A7018709DF8092097
:101FF0009DF808309DF80A004B700A70C8709DF873
:102000000B309DF80C209DF80D008B704A71087103
:1020100005B000BDDE0D0020C80D0020F60D00202B
:1020200070B5204B204CB3F90000FEF7F7FD1F49B7
:10203000FEF7FCFE1E49FEF73DFD1E490546086001
:10204000E169FEF73FFEA16AFEF734FD1A4E216AF0
:1020500030602846FEF736FEE16AFEF72BFD616A26
:1020600070602846FEF72EFE216BFEF723FD616BA4
:10207000B0602846FEF726FE216CFEF71BFD0F4ED2
:10208000A16B30602846FEF71DFE616CFEF712FD65
:10209000E16B70602846FEF715FEA16CFEF70AFDA5
:1020A000B06070BDC80D00209C1F00200000AA4336
:1020B00000000C42C40D0020C8090020CC0D0020F7
:1020C0002DE9F043002200238DB0CDE90023CDE9B6
:1020D0000223CDE90423CDE90623CDE90823CDE988
:1020E0000A236B4B01221A7041F28834694E6A4D03
:1020F000FFF75AFFFFF794FFB6F90000FEF78EFDD9
:102100002968FEF7D5FCFEF791F902460B46DDE99A
:102110000001FEF72DF8CDE90001B6F90200FEF747
:102120007DFD6968FEF7C4FCFEF780F902460B46A8
:10213000DDE90201FEF71CF8CDE90201B6F9040061
:10214000FEF76CFDA968FEF7B3FCFEF76FF90246D7
:102150000B46DDE90401FEF70BF8504F504ECDE978
:102160000401B7F90000FEF759FD3168FEF7A0FC45
:10217000FEF75CF902460B46DDE90601FDF7F8FFC4
:10218000CDE90601B7F90200FEF748FD7168FEF7D8
:102190008FFCFEF74BF902460B46DDE90801FDF71F
:1021A000E7FFCDE90801B7F90400FEF737FDB16894
:1021B000FEF77EFCFEF73AF902460B46DDE90A011E
:1021C000FDF7D6FF013CCDE90A01A4B24FF47A70C5
:1021D00001F094FC002C89D1324D00A80719D7E9F1
:1021E000000127A3D3E90023FEF79EFA26A3D3E933
:1021F0000023FEF76FF9C7E900010CA90A1952E99B
:1022000006011FA3D3E90023FEF78EFAFEF7FCFBBD
:102210000834182C45F8040FDFD1DDE9000102462F
:102220000B46FEF757F9DDE90289DDE9046704464C
:102230000D4642464B4640464946FEF74BF902469C
:102240000B4620462946FDF793FF324604460D46CD
:102250003B4630463946FEF73DF90B4602462946D5
:102260002046FDF785FF09F01DFCFEF7CDFB0E4B68
:1022700007491860002008700DB0BDE8F08300BF6A
:10228000000000000088B340000000E0EA9C533FDB
:10229000D5090020DE0D0020C8090020F60D002021
:1022A000CC0D0020E00D002000000020AFF30080E6
:1022B00008B56B218022682000F012FF962001F003
:1022C00039FC6B210322682000F00AFF6C210022F8
:1022D000682000F005FF19210022682000F000FFAF
:1022E0000B4B1A2193F87420682000F0F9FE1C2192
:1022F0000822682000F0F4FE1B210822682000F06C
:10230000EFFE642001F016FCBDE80840FFF7D8BEE0
:102310009C1F002007B50021032201AB772000F0AD
:102320001DFE084B9DF804209DF805009DF8061041
:102330009A70587019707720FF21482200F0D0FE63
:102340000EBD00BFBC0D002007B50021032201AB6C
:10235000772000F003FE084B9DF804209DF805004F
:102360009DF806109A70587019707720FF21582236
:1023700000F0B6FE0EBD00BFA00D0020094B0A49BB
:102380001A880B68094910021A1A09480B8802605A
:1023900082FB0323D20D42EA4320064B00F5FA618B
:1023A00019607047AC0D0020A80D0020980D00208A
:1023B0009C0D0020B00D00202DE9F8434849494B01
:1023C0000E681888484A86FB00011488C50945EA4A
:1023D0004160CB114FEA04484449454C0A8825889E
:1023E00018EB00084FF0000949EB0309E80386FBEE
:1023F0000245230A43EA05622C123E4D0021D5F81E
:1024000000E0801841EB0401BEF5FA6F31DA764343
:102410004FEAE67CAEF5FA667643F3179A00B4000D
:10242000A41942EA967545EB0305A3086F104FEA1D
:10243000340643EA8572AB102F4DAE450EDA0EF22C
:10244000DC5464430725C5FB04670B2584FB054565
:102450006D104FEA3404121943EB0503254CCCEB05
:102460000E052560B8EB060869EB0709801A61EBD9
:102470000301224A1368A3FB004503FB0155610DCC
:1024800041EAC5226B15B2EB080863EB09094FEA74
:10249000D83040EA4940FEF7C1FB1949FEF7C6FCB7
:1024A000FDF7C4FF0AA3D3E9002309F073F902463C
:1024B0000B4600201349FDF759FE07A3D3E900237B
:1024C000FEF708F8FEF7A0FA0F4AD063BDE8F883DC
:1024D000000000C0955BC83F0000000040A5E5403B
:1024E0009C0D00209A0D0020A40D0020C00D00209E
:1024F000B80D0020B00D002024FAFFFFB40D00201D
:1025000080E6C5470000F03F5C1F0020AFF300806D
:1025100007B5FF211E22772000F0E2FD0A2001F01E
:1025200009FBA221022201AB772000F017FD9DF8E4
:1025300004209DF80500314BA4215A701870022226
:1025400001AB772000F00AFD9DF804309DF80520CE
:102550002B4977204B700A7001ABA621022200F0B4
:10256000FDFC9DF804109DF80530264802224170BC
:102570000370A82101AB772000F0F0FC9DF8042047
:102580009DF80510204801AB427001700222AA217B
:10259000772000F0E3FC9DF804009DF805201B4B1C
:1025A000AC2158701A707720022201AB00F0D6FCE3
:1025B0009DF804309DF80500154958224B700870AD
:1025C000FF21772000F08CFD0A2001F0B3FAFFF71D
:1025D000A1FE0A2001F0AEFAFFF7B6FE0A2001F0D4
:1025E000A9FA0C4A0C4B11680C48196002680C4996
:1025F0000A60FFF7C3FEFFF7DFFE0EBDB80D002037
:10260000A40D0020C00D00209A0D0020AC0D00206C
:10261000980D0020A00D0020B40D0020BC0D00205E
:10262000A80D0020F0B593B00025102301A90227C2
:102630003948ADF804308DF806708DF8075008F071
:10264000FDFA364808F0BAF935483649079008913E
:1026500020204FF4005104244FF4806380224FF473
:1026600080760F9010912D4807A90E930C920D962D
:1026700009950A940B95119508F018FA012127483D
:1026800008F034FA4FF4004008F040FC01264FF403
:102690006022254802A9049202958DF80C608DF8FD
:1026A0000D6005958DF8184008F0EAF81E4821469F
:1026B0003246052308F035F91B4821463A460523E2
:1026C00008F02FF9184821460322052308F029F9BC
:1026D000224605231448214608F023F912483146C2
:1026E00008F0FBF81048314608F0EEF80E4808F004
:1026F000FDF80D4808F0FFF80028FAD10A4808F064
:10270000FEF8094808F000F90028FAD1064801212E
:1027100008F0FEF813B0F0BD0008014008000240C8
:102720004C240140D80900200024014008B5084B82
:1027300058881A8881189888DB880A18D11888B2B6
:10274000FEF768FA4FF07A51FEF7BCFA08BD00BFF9
:10275000D809002010B5144B1878012822D0134A4C
:10276000134B1068196888421CD01C681148124924
:102770002418CC6014681868844205D91468186855
:10278000201A4860116804E01A68C2F500604860C9
:10279000002119600848044B01211970BDE8104060
:1027A00008F0A4B910BD00BFE4090020EC09002026
:1027B000E8090020FC1500204400024008B54FF451
:1027C000005008F0A9F90548002108F08FF9044BE2
:1027D00000221A70BDE80840FFF7BCBF4400024069
:1027E000E40900202DE9F043474C93B00646182138
:1027F00003204FF400738DF806008DF80710204673
:1028000001A9ADF80430482508F018FA4FF48062A9
:1028100001A92046ADF804208DF807500E2708F0D6
:102820000DFA012502A88DF808708DF809508DF871
:102830000A508DF80B5007F0EFFF0396334E0C2330
:10284000334F00240DEB03013046ADF81630ADF8E0
:102850001040ADF81240ADF81440ADF8184008F043
:102860009BFE384608F0AAF82A49DFF8B4904FF4E6
:10287000805020234FF080084FF4006210900891A0
:10288000384607A90F930A921194CDF81C90099429
:102890000B940D94CDF830800E9408F007F938466B
:1028A000294608F023F92A464021304608F0F2FE76
:1028B000384608F02EF91849143F0860384608F0E9
:1028C0007DF81020099007A93846CDF81C900B948C
:1028D0000D94CDF830800E940F9408F0E7F8384648
:1028E00002212A4608F00DF9304641462A467C600E
:1028F00008F0D0FE3046294608F0A6FE074805F04D
:1029000091FD13B0BDE8F08300080140003801409C
:1029100058000240FC0D0020E0090020BD290008FD
:102920000438014008B5044808F0F3F8034B19686F
:10293000401A18BF012008BD58000240E0090020DD
:10294000054B06481A68C2F50061013A08BF4FF40A
:102950000062405C1A607047E0090020FC0D002016
:10296000054B06491A6888541868421C5105480DE1
:102970001860FFF7EFBE00BFEC090020FC15002037
:1029800010B5441E14F8010F10B1FFF7E9FFF9E785
:1029900010BD0FB400B5C3B044AB53F8042B02A86C
:1029A0004FF4807101930CF00FFC02A8FFF7E8FFD1
:1029B00043B05DF804EB04B070470000F0B585B09B
:1029C00004AB03E90300BDF80C60304605F078FD68
:1029D00007460298FEF71EF9FDF728FD00220A4B74
:1029E000FDF7A2FE044630460D4605F071FD00904D
:1029F000BDF80E0039460190224604482B46FFF7E9
:102A0000C8FF05B0F0BD00BF00408F400C3C01087E
:102A100070B500239AB28A420BD2084AC65C146889
:102A2000074D01332E55146801346405640D14609C
:102A3000F0E7BDE87040FFF78DBE00BFEC09002055
:102A4000FC150020884206D250F8042B92FAA2F21C
:102A5000014B1A60F6E770470030024070B5064639
:102A60000D4640200121094C08F0A0FA0123A36083
:102A700000BF00BF00BF00BF30462946FFF7E2FF9E
:102A8000206890FAA0F1C84370BD00BF003002403A
:102A9000F7B5144F0121144808F02EF9134C032305
:102AA0004FF480561025384601A98DF80630ADF850
:102AB00004608DF8075008F0C1F81820ADF8040044
:102AC00001A9204608F0BAF83846314608F00CF95A
:102AD0002046082108F008F92046294608F004F9A4
:102AE000FEBD00BF0008014000023000000C0140A4
:102AF0002DE9F74F974CA38A98B210F0010237D016
:102B0000208820F400610B041A0C22802046012149
:102B100008F0DAF9904B91491A7800200870CAB190
:102B20008F48017819B98F4B1A78FF2A12D10122E8
:102B300002708D480178022905D1864B1A8890B21F
:102B400040F400611980894B82481978012208F00D
:102B5000D5F938E18548002201787E4808F0CEF9A1
:102B600080490B78FF2B00F02E81FF207B4BEFE09C
:102B700000F00201C9B200294DD0BFF35F8F7A4D3A
:102B80002E78012E35461AD1734B1978B9B1744895
:102B90000378A3B12046114608F096F9BFF35F8F82
:102BA000218B2046CBB231468DF8073008F080F9F2
:102BB0006F4A204616704FF48061324618E0654C2B
:102BC000228BD1B28DF80710BFF35F8F6648037870
:102BD000022B10D1604A117869B1614B1A7852B159
:102BE0002046002108F070F920464FF48061002251
:102BF00008F076F9E7E00078032807D156490B780A
:102C000023B1574A107808B15248EEE751484FF4C3
:102C100080610122ECE700F00406F6B2002E72D0CB
:102C20004D4BDFF84C811A78012688F800604C483B
:102C3000002A4ED00378002B4BD04B4D20462F78E6
:102C4000464D022F4B4F29D908F03EF9204695F802
:102C50000090D7F800A008F04EF94FFA89FB0AF867
:102C60000B0009EB060031462870204608F020F9D9
:102C7000204688F800603F6895F8008008F03BF92E
:102C80004FFA88F907F80900B04420464FF48061F4
:102C9000324685F8008008F023F92CE0314608F030
:102CA00007F920462E78D7F8008008F024F94FFA6B
:102CB00086F9721C08F80900D1B220464FFA81F853
:102CC0003F68297008F017F9033607F808002E70DE
:102CD00011E0027801211F4812B9274B1A782AB156
:102CE00008F0E6F81D480378591C03E008F0D4F812
:102CF0001B4801210170174B1A8802F4807188B2B9
:102D00000028F8D15FE010F04001144D36D0194B87
:102D100020462F78D3F8008008F0EDF87A1CD1B265
:102D20004FFA87F92970104D08F8090028784FB23A
:102D30000337B84205D120464FF48061324608F08F
:102D4000CFF8064B28781A7851B288423BD1501CF4
:102D5000187038E000580040FE090020FC090020EF
:102D6000040A0020F3090020F4090020060A0020CC
:102D7000FD090020F8090020F2090020030622D5F1
:102D80002B785AB2501C0ED01B49013308682B70A7
:102D9000815C204608F0ADF8184A95F900001178DA
:102DA000814210D130E7164829700178204608F09A
:102DB000A0F814490B78002B7FF426AF0F4A107847
:102DC00000283FF421AF0D4A0F49107891F90020F7
:102DD000431C9A420DD10D490D480B780022027018
:102DE00023B10C484FF4407108F07AF80A480022E9
:102DF0000270BDE8FE8F00BF000A0020F409002029
:102E0000F3090020FE090020FC090020FD09002034
:102E1000040A002000580040050A002030B51420A4
:102E200087B04FF4406403238DF8070001A9484898
:102E3000ADF804408DF8063007F000FF2146444805
:102E400007F052FF082442484FF4806107F046FF24
:102E500018B9032000F052FEF5E74FF480613C48BA
:102E600007F044FF032000F049FE4FF4806138482A
:102E700007F03AFF032000F041FE611E11F0FF044D
:102E8000E1D14FF40061324807F030FF032000F039
:102E900035FE4FF480612E4807F028FF032000F034
:102EA0002DFE4FF480612A4807F01EFF032000F03A
:102EB00025FE4FF40061264807F016FF032000F0BE
:102EC0001DFE03251C234FF4406201A920488DF804
:102ED0000730ADF804208DF8065007F0AFFE1D480E
:102EE00007F03CFF02A807F0BDFF224619484FF447
:102EF000407107F0F5FF184A4BF6FF704FF4804120
:102F0000ADF80E00ADF81410124802A90292ADF807
:102F10000C4007F03DFF01210E4807F0B1FF0120F2
:102F200022238DF8030068468DF800308DF80140AB
:102F30008DF8024007F070FC2121684625468DF887
:102F400000108DF8014007F067FC07B030BD00BFEE
:102F5000000C014000580040801A060010B54000E7
:102F6000214CC0B220702148017021490020087016
:102F70002048012101702048036020480360204B55
:102F80001A70204A11702049888800F400739AB2A0
:102F9000A2B9098801F4807083B24BB91A4802883B
:102FA00002F400718BB2002BF8D1012107F074FFFD
:102FB00015484FF44071012207F092FF47F230515B
:102FC0001048027812B10139FAD100E049B90F4B2B
:102FD0001888421C91B20C481980FFF71FFF00208F
:102FE00010BD012010BD00BF060A0020F30900201B
:102FF000F2090020FE090020F8090020000A002044
:10300000F4090020050A002000580040F0090020C3
:1030100030B54000284CC5B228482570284D294CB1
:10302000017001210020297085B02070264C0DEB25
:1030300000052560254C102A2560254C2270254C62
:10304000217036D8C1B2914204D2195C0DF800103B
:103050000130F7E7204B9A8802F4007081B2A1B9E1
:103060001B8803F4807290B248B91B48018801F4B0
:1030700000739AB2002AF8D1012107F00DFF16481B
:103080004FF44071012207F02BFF47F230531148F3
:10309000017811B1013BFAD100E04BB90F48028829
:1030A000511C8BB203800C48FFF7B8FE002000E0F3
:1030B000012005B030BD00BF060A0020F309002042
:1030C000F2090020FE090020000A0020F809002073
:1030D000F4090020050A002000580040F0090020F3
:1030E00007B502AB03F8012D0122FFF791FF0EBDDA
:1030F00037B5244CA38A98B20090009B009911F434
:10310000E06F33D0228B204693B24FF480610022CF
:10311000019307F0E5FE0098820527D4218801F489
:10312000007293B213BB258805F4807085B29DB1FF
:103130001448018801F4807293B2002BF8D1012168
:1031400007F0B6FE0F48018801F4007293B2002B1D
:10315000F8D1FFF763FE09E02046012107F0A8FE41
:1031600020464FF440712A4607F0BAFE0548818A8E
:1031700021F470621304190C034A8182002010703C
:103180003EBD00BF00580040050A002070B5002079
:1031900088B02A4A431C40F6B83122F81010D8B241
:1031A0000728F6D9264C28210125032220708DF806
:1031B00003102448694600248DF80220ADF8005021
:1031C00007F03CFD1C2301A88DF804308DF8054064
:1031D0008DF806508DF8075007F01EFB23204FF6A0
:1031E000FF72ADF8140005A94FF08040ADF818202B
:1031F000ADF81640ADF81A408DF81C4007F07EFF80
:1032000002A94FF08040ADF80840ADF80A40ADF893
:103210000C50ADF80E40ADF8104008F00BF902214B
:103220004FF080402A4608F0CBF84FF08040294606
:103230002E4608F0ABF808B070BD00BFFE1D0020A0
:10324000FC1D002000080140014B33F810007047BE
:10325000FE1D0020F0B5182089B003214FF4106343
:103260008DF803008DF802103A4869463A4DADF8E2
:10327000003007F0E3FC4FF4707238486946ADF84F
:103280000020374E07F0DAFCB5F89240232096FB79
:10329000F4F77B1E0024ADF8040001A93148ADF815
:1032A0000830ADF80A40ADF806408DF80C4007F044
:1032B00025FF02204FF4807170224FF4FA6301273A
:1032C000ADF81800ADF81C10264804A9ADF8102080
:1032D000ADF81630ADF81270ADF81440ADF81A40E4
:1032E000ADF81E4007F054FF1E4804A907F094FFF4
:1032F0001C4804A907F0D4FF1A4804A908F012F8E2
:103300001848394608F042F895F8AC2062B9B5F88B
:10331000B430D5F8BC0096FBF3F6013EADF808607A
:10332000FDF7BCFEADF8160001A90F4807F0E6FE58
:1033300004A90D4807F02CFF04A90B4807F0F2FF81
:103340000121094808F02EF80748012108F01EF86D
:1033500009B0F0BD000801409C1F0020000C014096
:1033600080841E0000080040002C0140024B53F8EE
:1033700020000180704700BF283C0108024B53F831
:1033800020000180704700BF403C010838B5234B46
:103390004FF0804093F88810012908D108F0E9F82F
:1033A0001F484278002A37D0511E417038BD022193
:1033B00008F0E3F8012804460AD11A4D1A482A8871
:1033C00002804FF0804008F0D1F8184928800C7036
:1033D00002214FF0804008F0DBF8124B12481A88A7
:1033E0000188531A9BB241F218529342104A02D9F3
:1033F0000023137038BDA3F2DD5080B240F6B63121
:10340000884205D81278072A9CBF0A4921F8123051
:10341000074B1878411C197038BD00BF9C1F002055
:10342000040000200C0A0020080A0020100A0020D6
:103430000A0A0020FE1D002048F20100002104F0CD
:10344000D5BF48F20300002104F0D0BFF0B5284BEF
:1034500028491878284A0726284C464328480D78DA
:1034600011880022237804781046B04228DA2549D2
:1034700001EB4003998915B1012D1DD109E0C1F37C
:1034800083230B2B02D90F2B12D116E04FEA815C5C
:1034900005E0C1F3C3230B2BF5D84FEA415C4FEA9B
:1034A0005C5707F5FA6C184F013227F813C0D2B2F7
:1034B0009C4238BF1C4600E00F230130C0B2D4E765
:1034C0000D4D944229800D490B70104B0C491A7018
:1034D0000F4B0C7018700F4807DA0F4B0121017069
:1034E0001868BDE8F04007F081B900220270F0BD15
:1034F000120A0020110A0020181E00203E1E002083
:10350000130A002004000020221E0020201E00209C
:10351000FC1D0020100A0020101E0020024B00227B
:103520009A72FFF793BF00BF0400002038B50C4625
:1035300049782378D1F1010138BF0021012B0D46D4
:1035400002D0A37883B941B9002046212070617070
:10355000A070E0702071A07138BD02B1000220811E
:103560000123A370032321E019B101222270462315
:103570001CE0012B11D12E4B32B1218942182D486C
:1035800022810178197006E02B4AC0F3001100F087
:103590000300117018700223E3E7022B08D1E278D0
:1035A00060710AB9C109A1710323A370637038BDAA
:1035B000032B10D102256370A172E378A179A57065
:1035C000072505FB0131657904EB410140EA05203F
:1035D00001338881E370E17806291ED92079431CE4
:1035E0001348D9B203782171994203D101210020F7
:1035F000A17220713AB91049104A08780D4910702B
:103600000B700F4A00E00F4A106807F0EFF8002334
:103610004620A370E370A37160700B4A917A11B9D0
:103620000A4B987A18B1BDE83840FFF777BF38BD2C
:103630000F0A0020120A00200E0A0020110A0020A2
:10364000141E00201C1E0020040000202C0000205E
:10365000134A08B5938903F0800081B251B11388F1
:1036600003F0800081B229B1938923F08000010426
:103670000B0C938192890A4802F020018BB26BB146
:10368000028802F020018BB243B108F00CF8054922
:10369000C0B20022BDE80840FFF748BF08BD00BF28
:1036A0000044004004000020134A08B5938903F049
:1036B000800081B251B1138803F0800081B229B13A
:1036C000938923F0800001040B0C938192890A48AE
:1036D00002F020018BB26BB1028802F020018BB2A4
:1036E00043B107F0E0FF0549C0B20122BDE8084040
:1036F000FFF71CBF08BD00BF003801402C000020B0
:1037000070B53E488AB001243D4B00251C2102269D
:10371000047002A81C708DF808108DF809608DF8EF
:103720000A508DF80B4007F077F8102047236322EA
:10373000ADF80E0003A94FF08040ADF80C30ADF8A5
:103740001020ADF812508DF8145007F0D7FC224627
:1037500021464FF0804007F033FE21464FF0804075
:1037600007F007FF21464FF0804007F00FFE2621AB
:103770008DF8096002A808268DF808108DF80A5007
:103780008DF80B4007F048F8ADF8046004260322DA
:103790000DEB06011B488DF806208DF8076007F039
:1037A0004DFAADF81C50ADF81E50ADF82050ADF8F4
:1037B0002450154D4FF4E133284606A90693ADF881
:1037C000226007F0E9FE2246284640F2255107F024
:1037D00047FF2846214607F037FF23464FF47A710A
:1037E0000A4A0B4806F0BCFF4FF47A71094A234697
:1037F000094806F0B5FF0AB070BD00BF2C000020DC
:103800000400002000080140004400403934000852
:10381000141E002043340008101E0020014B33F812
:1038200010007047221E002037B5482301240325CD
:103830001B4801A98DF80730ADF804408DF80650FB
:1038400007F0FCF91648214607F048FAA04225D0B7
:10385000102008248DF8070001A91148ADF8044094
:103860008DF8065007F0EAF921460D4807F03CFABA
:103870003C2000F05FF905240821094807F036FADA
:10388000782000F03BF90821054807F02DFA782050
:1038900000F034F9611E11F0FF04EDD13EBD00BF10
:1038A0000008014010B50A4A52E8003F09490A4899
:1038B0000C68006842E800310029F4D1074A201A58
:1038C0001168B0FBF1F24FF47A7101FB032010BDD7
:1038D000180A0020041000E0240A0020200A00201A
:1038E000F8B55F4B5F481A685F4902600B685A1C65
:1038F0000A6006F055FF5D480278012A40F0AF806B
:103900005B490B78002B40F0AA805A4801780029C7
:1039100040F0A580584B1878002840F0A080574907
:103920000B78002B40F09B8055480178002940F02F
:103930009680544D2B88581C81B2B1F57A7F94BF84
:1039400029802A80FFF7AEFF4F4B05461A681D609D
:103950004C4B801A1A884D49D30708601DD44C4B34
:1039600001205A784B498242087002D1FEF71CFBB5
:1039700003E0FDF721FFFEF73BFA474B47485A8823
:10398000198842809B88464A018083801188454877
:10399000538892880180438082803A480A230288B3
:1039A000B2FBF3F103FB112082B2DAB9384F3E4C7F
:1039B0000126BF7826703D4CB742237809D11BB948
:1039C000FEF7A8FC27700DE0FEF7BEFC3848077034
:1039D00008E01BB9FDF7ACFF267003E0FDF7BEFF62
:1039E00033490E70274A14201388B3FBF0F100FB13
:1039F000113290B210B92F4A0121117001336420A5
:103A000093FBF0F100FB11321AB9FEF72FF92A4BA4
:103A100018701C4864220388B3FBF2F102FB1130DA
:103A200082B212B9254801210170C822B3FBF2F11C
:103A300002FB113082B212B92148012101704FF40A
:103A40007A72B3FBF2F102FB113398B210B91D493F
:103A500001220A70FFF726FF1B4B401B1860F8BDC0
:103A6000041000E0240A0020180A0020140A002094
:103A70002D0A0020D60900202E0A00202F0A00203F
:103A8000D50900202A0A0020741E0020501E0020A4
:103A90009C1F0020150A0020DE0D0020F00D0020E4
:103AA000F60D0020D80D00201D0A0020D4090020AA
:103AB000D7090020170A0020C5090020290A002084
:103AC000280A00201C0A0020401E0020014B186814
:103AD000704700BF180A002008B5074B596A11F05B
:103AE000E05F0CBF4FF480400120090E04F07EFC23
:103AF000BDE8084007F08ABA0010024010B50B4B31
:103B00001A680023094909688A1AD318084A1468F0
:103B1000B3FBF4F4844207D21268001BB3FBF2F447
:103B200002FB14330A46EDE710BD00BF041000E0AD
:103B3000200A002010B504462CB14FF47A70FFF72C
:103B4000DDFF013CF8E710BD10B586B001A807F015
:103B5000E7F9019B7A4A7B49B3FBF2F07A4C0860A3
:103B6000E2687A4842F08073E3600168784A41F085
:103B70000104046010684FF47A73B0FBF3F14C1E3B
:103B8000B4F1807F09D27348734A4460F023002166
:103B9000072482F82330816004601D20012107F092
:103BA00011FA01214FF4006007F00CFA01200146E0
:103BB00007F014FA0220012107F010FA0420012175
:103BC00007F00CFA01214FF4007007F0FBF9012116
:103BD0004FF4804007F0F6F901214FF4003007F070
:103BE000FDF901214FF4800007F0F8F901200146AA
:103BF00007F0DCF90121022007F0D8F9002004F0D9
:103C0000F1F904F037F9554890F88830012B01D1CB
:103C1000FFF70AFEFFF760FF4FF4A06006F0F2FD29
:103C200005F004FD4FF4E130FEF7DCFDFEF730FF58
:103C3000FEF7F8FC08214A4807F058F842F21070E5
:103C4000FFF778FF4748FEF7A4FE47484749FEF7CD
:103C5000A0FE474A3A4C11688A034CBF4548464883
:103C6000FEF78EFE01A807F05BF9059B4348B3FB06
:103C7000F4F1FEF78EFE029A4148B2FBF4F1FEF732
:103C800088FE03993F48B1FBF4F1FEF782FE049BE6
:103C90003D48B3FBF4F1FEF77CFE019A3B48B2FBD2
:103CA000F4F1FEF776FE2D484478012C04460CBF53
:103CB00037483848FEF764FEA17801290CBF364822
:103CC0003648FEF75DFE254B93F888200AB9344844
:103CD00000E03448FEF754FE42F21070FFF72AFF6E
:103CE0001F48102107F002F803F0E8FE1B4890F887
:103CF0008840012C044602D1FFF702FD01E0FFF7E6
:103D000045FA2948FFF78AF804F0F4FB05F0D4FEE1
:103D10006178012902D1FEF7CBFA03E0FDF7EAFD55
:103D2000FEF720F9FDF7D2FF0C4B9A78012A02D159
:103D3000FEF7EEFB01E0FDF703FF06B010BD00BF8C
:103D400040420F00200A0020F0ED00E0001000E0EB
:103D50001401002010E000E000ED00E09C1F0020B6
:103D6000000C0140503C0108A13C0108DB3C01086B
:103D700000100240DF3C0108033D01082E3D010810
:103D8000413D0108533D0108653D0108773D0108AB
:103D9000A15D0108165E01087060010884600108D9
:103DA0008A3D0108A33D01080058004010B1034AB4
:103DB000034B1A6003480449C8607047EFBEADDE8C
:103DC000F04F00200400FA0500ED00E0F8B50025F2
:103DD00006460F462C46FEF7A5FD28B90A200135F8
:103DE000FFF7A8FEEDB205E0FEF7AAFD305501345D
:103DF000E4B2002524B1331913F8010C3B2803D099
:103E0000042D01D8BC42E6D3002131553046F8BD1F
:103E100030B5002585B001A82946092200950BF090
:103E200093F82C46FEF77EFD30B90A200135FFF7E6
:103E300081FEEDB2BCB10CE0FEF782FD04AA1319BD
:103E4000013414F0FF0403F8100C01D12546E9E712
:103E5000002504A8011911F8112C3B2A05D0042DC6
:103E600003D80B2C00E0042DDCD904AB00201C1976
:103E700004F8100C684606F043FB05B030BD0000A6
:103E800038B5104B282505FB0035FFF7C1FF6860EA
:103E9000FFF7BEFFA860FFF7BBFFE860FFF7B8FFC2
:103EA0002861FFF7B5FFA86100206861E86128621A
:103EB0006862FFF7ADFFFDF7F1F82C1D85F82800CB
:103EC00038BD00BFAC2000202DE9F04F8FB0FEF7C9
:103ED00029FD30B1754B197819B9FEF731FD744AD7
:103EE0001070734C23783F3B3B2B00F20B85DFE8CF
:103EF00013F07E040905B403B903C103C603CB0361
:103F00003104090509053604090509053E040905BA
:103F1000460449044C0409054F04570459045C0441
:103F20005F04710476047B047B0409050905090517
:103F30000905090509053C00ED008E01C701F901DD
:103F40000C02220224023A0255029D02BB02D10257
:103F50000905D302DB027604F1021C034D0363035F
:103F60007D03090578049F03A203DFF85481DFF87D
:103F700054A1D8F81401FCF759FA0446D8F81801EE
:103F80000B940A91FCF752FA0646D8F81C010F462A
:103F9000FCF74CFA0446D8F820010D46FCF746FA27
:103FA000CDE90C01D8F82801FCF740FADFF81891A8
:103FB00098F838C10B9ABCF1000F0CBFD646CE461C
:103FC000CDF820E00A9BCDE90245CDE90601CDE917
:103FD0000067DDE90C673748CDE90467FEF7D9FCD7
:103FE000D8F83C01FCF722FA0746D8F840010B97B5
:103FF0000A91FCF71BFA0446D8F844010D46FCF779
:1040000015FA0646D8F848010F46FCF70FFACDE935
:104010000C01D8F85001FCF709FA98F86031CDE9A5
:104020000045002B0CBFD446CC46CDF820C0DDE9BE
:104030000C23CDE90267CDE90423CDE906010B9AF3
:104040000A9B1D48FEF7A5FCD8F86401FCF7EEF9C1
:104050000446D8F868010B940A91FCF7E7F9044686
:10406000D8F86C010D46FCF7E1F90646D8F8700166
:104070000F46FCF7DBF9CDE90C01D8F87801FCF725
:10408000D5F998F888E1CDE90045DDE90C45BEF1A8
:10409000000F08BFD146CDE90601CDE90267CDE9A1
:1040A0000445CDF820900548AEE000BF2C0A002062
:1040B00054000020E33D01081B3E0108523E010868
:1040C0009C1F0020D13D0108CB3D0108DFF8F482A0
:1040D000DFF8F8A2D8F88C01FCF7A8F90646D8F862
:1040E00090010B960A91FCF7A1F90646D8F89401C5
:1040F0000F46FCF79BF90446D8F898010D46FCF7EB
:1041000095F9CDE90C01D8F8A001FCF78FF9DFF89B
:10411000B89298F8B0E10B9ABEF1000F0CBFD446EC
:10412000CC46CDF820C00A9BCDE90067CDE9060159
:10413000CDE90245DDE90C459F48CDE90445FEF790
:1041400028FCD8F8B401FCF771F90546D8F8B80195
:104150000B950A91FCF76AF90446D8F8BC010D46A4
:10416000FCF764F90646D8F8C0010F46FCF75EF983
:10417000CDE90C01D8F8C801FCF758F998F8D82116
:104180000A9B002A0CBFD646CE46CDF820E00B9AFB
:10419000CDE90045CDE90601CDE90267DDE90C670F
:1041A0008648CDE90467FEF7F4FBD8F8DC01FCF79C
:1041B0003DF90746D8F8E0010B970A91FCF736F96C
:1041C0000446D8F8E4010D46FCF730F90646D8F865
:1041D000E8010F46FCF72AF9CDE90C01D8F8F00107
:1041E000FCF724F998F80022CDE90045DDE90C45FB
:1041F000CDE90267CDE90445002A08BFD146CDE9E3
:1042000006016F48CDF820900B9A0A9B32E06D4C66
:10421000D4F80402FCF70AF98246D4F808028B4667
:10422000FCF704F98046D4F80C028946FCF7FEF846
:104230000646D4F810020F46FCF7F8F8CDE90C0159
:10424000D4F81802FCF7F2F894F828C25E4A5F4BE3
:10425000DDE90C45CDE90089CDE90267CDE90445EA
:10426000BCF1000F18BF1346CDE90601584808936A
:1042700052465B46FEF78DFB564978200870B0E247
:10428000504C514DD4F82C02FCF7D0F88246D4F8AB
:1042900030028B46FCF7CAF88046D4F834028946CF
:1042A000FCF7C4F80646D4F838020F46FCF7BEF80F
:1042B000CDE90C01D4F84002FCF7B8F894F850E2CC
:1042C000424BCDE90601BEF1000F18BF2B46CDE9E8
:1042D0000089DDE90C45CDE90267CDE90445089385
:1042E0003D48C5E73D493E4A08683E49009013688D
:1042F0003D4A019308683D49029013683C4A039384
:104300003C48096812683C4B11E03C4A3C49136840
:104310003C4A009308683C49019013683B4A029369
:1043200008683B4B0390116832481A68394B1B6888
:10433000FEF72FFB55E2384E00E0384E3068FCF7B0
:1043400075F8044670680D46FCF770F8CDE9000179
:10435000B068FCF76BF82246CDE902012B463048E5
:10436000FEF717FB3DE22C4E2E49706AFCF7AAFCC3
:10437000FCF75CF804460D46B06A2A49FCF7A2FC3B
:10438000FCF754F8CDE900012649F06AFCF79AFCE5
:10439000FCF74CF8CDE9020123485AE01E4E306B81
:1043A000FCF744F80446706B0D46FCF73FF8CDE986
:1043B0000001B06BCDE700BF893E0108C53E010892
:1043C000003F01089C1F0020CB3D0108D13D0108A2
:1043D0003B3F0108540000206E3F0108881E00206A
:1043E000981E0020681E0020441E0020501E002041
:1043F0006C1E00209E3F0108601E00208C1E0020C5
:10440000581E0020481E0020781E0020401E00205C
:10441000701E00205C1E00205C1F0020840A00200B
:104420000D5F0108E02E6542C40D00209A4DA8687A
:10443000FBF7FCFF994B0446D86B0D46FBF7F6FFE4
:10444000CDE9000196490868FBF7F0FFCDE90201CC
:1044500094480068FBF7EAFF2246CDE904012B46A9
:104460009148FEF796FABCE18C4E9049B069FCF792
:1044700029FCFBF7DBFF04460D46F0698B49FCF78E
:1044800021FCFBF7D3FFCDE900018849306AFCF736
:1044900019FC5EE7864E51E7864A1068FBF7C6FFB7
:1044A00002460B46844884E08448C4890189827AA4
:1044B00083890094048A0194448A0294848A039430
:1044C000C48A0494048B0594408B06907C48FEF7C4
:1044D00060FA86E17B4D297809B97B4802E0012921
:1044E00002D17A48FEF74CFA794A1378012B0CBFB7
:1044F00078487948FEF744FA7848FEF741FA784858
:104500000178042900F26D81DFE801F00305070955
:104510000B00744806E0744804E0744802E07448F4
:1045200000E07448FEF72CFA5BE1734890F88810BD
:10453000012917D1714A137893B100246F48704B49
:1045400001784A1E944207DA33F914106D48013499
:10455000FEF71FFAE4B2F1E76B4833F9121012E0EC
:104560006A48DFE700242046FEF76EFE013401466C
:10457000E4B26748FEF70DFA072CF4D12046FEF7A7
:1045800063FE01466348FEF704FA2AE10024624D07
:104590006059FBF74BFF043402460B465F48FEF7B9
:1045A000F8F91C2CF3D1E869FBF740FF02465C48A0
:1045B0000B46FEF7EEF914E15A4E5B4D5B4C317839
:1045C0005B4800290CBF29462146FEF7E2F97278C4
:1045D0005748002A0CBF29462146FEF7DAF9B3787E
:1045E0005448002B0CBF29462146CCE7524C454885
:1045F000B4F8401089B2FEF7CCF9A28F414891B2CD
:10460000FEF7C7F9238F3F4899B2FEF7C2F9A18E92
:104610003C4889B204F59234FEF7BBF9B4F8402067
:10462000384891B2FEF7B5F9A38E374899B2AAE798
:1046300001F0D6FED8E0FEF779F8FBF7F7FE1D4A49
:10464000044610680D46FBF7F1FE2246CDE9000155
:104650002B463A48FEF79DF954E10020FFF710FC85
:10466000374803E00120FFF70BFC3648FEF788F9D6
:104670006120B5E00220FFF703FC3348F6E7032092
:10468000FFF7FEFB314803E00420FFF7F9FB304859
:10469000FEF776F96220A3E0840A00205C1F002068
:1046A0007C0B002054240020C83F0108E02E654206
:1046B000141F0020EC1E00203D5F010804000020B4
:1046C000E43F01083C0B002020400108394001086C
:1046D000410B0020524001086E4001088A40010849
:1046E0003D0B002096400108B5400108D740010865
:1046F000F2400108144101089C1F0020130A002009
:10470000221E0020364101086D5901083D41010873
:10471000664101086C410108BC000020714101089C
:1047200079410108DC000020DD3D0108D73D01088A
:1047300080410108373F0108000800408541010819
:1047400093410108B0410108CE410108EA41010846
:104750000B4201080520FFF793FB6C4898E7062001
:10476000FFF78EFB6A48FEF70BF9632038E007205D
:10477000FFF786FB6748FEF703F9642030E000F09E
:104780002DFB2CE000F03CFD29E000F00DFF26E0C1
:104790006148FEF7F5F86420FFF7CCF9012014E03A
:1047A0005E480CE001F0D2F919E000F04FF916E094
:1047B0005B48FEF7E5F8012003F014FC5948FEF7CA
:1047C000DFF86420FFF7B6F900200FB0BDE8F04F26
:1047D000FFF7ECBA5448FEF7D3F803F099FB7820C2
:1047E00020700021514B8CE0782323708AE0504BDD
:1047F000012150481970FEF7C3F84F48FEF7C0F882
:104800004E48FEF7BDF84E48FEF7BAF84D48FEF7A1
:10481000B7F84D48FEF7B4F84C48FEF7B1F84C48ED
:10482000FEF7AEF84B48FEF7ABF84B48FEF7A8F89A
:104830004A48FEF7A5F84A48FEF7A2F84948FEF7AD
:104840009FF83C48FEF79CF84748FEF799F8FEF7BA
:1048500069F80028FBD0FEF773F8444A107010780E
:10486000202837D13348FEF78BF84148FEF788F807
:104870004048FEF785F84048FEF782F83F48FEF7CB
:104880007FF83F48FEF77CF83E48FEF779F83E484F
:10489000FEF776F83D48FEF773F83D48FEF770F8EE
:1048A0003C48FEF76DF83C48FEF76AF83B48FEF7D7
:1048B00067F82048FEF764F82B48FEF761F8FEF72A
:1048C00031F80028FBD0FEF73BF8284C2070217807
:1048D000202903D015480122027010E01548FEF788
:1048E0004FF82F48FEF74CF82E48FEF749F82E48AF
:1048F000FEF746F80F48FEF743F8782323700C4B79
:10490000002119700FB0BDE8F08F00BF2D420108E3
:104910004842010860420108754201088F420108BF
:10492000A6420108C4420108DC4201082C0A00200A
:104930002D0A0020F4690108FC42010865430108C2
:10494000CE43010837440108A04401080945010885
:1049500072450108AB450108E44501084D460108D0
:1049600086460108BF460108284701085400002078
:104970005A47010893470108CD4701080A48010832
:10498000454801087E480108C9480108FF48010858
:104990003D49010878490108C0490108084A010851
:1049A000414A01087A4A0108B34A0108A0F13003DC
:1049B000D9B2092901D8C8B20DE0A0F16102052AD7
:1049C00001D8573804E0A0F14103052B02D837384D
:1049D000C0B200E0FF2040B2704700002DE9F8436C
:1049E00000210446D0F8747203F03CFA94F8723255
:1049F000C4F87402DB0704D544F20300002103F07D
:104A0000F5FC0025142D19D04FEA4519C9F51E797A
:104A1000B9F1200FA8BF4FF0200904EB451800267C
:104A20004E4506DA18F806100648FDF7B2FF0136C3
:104A3000F6E70548FDF7A4FF0135E3E7C4F8747213
:104A4000BDE8F883F34A0108F46901082DE9F04153
:104A5000A54B0122A548ADF51E7D1A70FDF790FF0C
:104A6000A348FDF78DFFFDF75DFF0028FBD0FDF7A4
:104A700067FF04469F48FDF783FF572C00F09F8196
:104A800037D8462CECD029D8432C00F0A280452CF6
:104A900000F08F813F2CE3D19648FDF77AFF9648CE
:104AA000FDF777FF9548FDF774FF9548FDF771FF17
:104AB0009448FDF76EFF9448FDF76BFF9348FDF7B0
:104AC00068FF9348FDF765FF8A48FDF762FF91484C
:104AD000FDF75FFF8748FDF75CFFC1E7482C6DD00D
:104AE000562CBDD18C48FDF74BFF012003F07AFA1C
:104AF000B6E7652C00F0638104D8612C10D0632CDC
:104B0000AED141E0662CABD0782CA9D18348FDF71B
:104B100037FF7549002008700DF51E7DBDE8F08156
:104B20007F4CD4F8746205F095F805F0B7F80021D1
:104B3000204603F097F905467A48FDF72AFF7A48A0
:104B40002178FDF726FF79484FF41E71FDF721FF0C
:104B500077483146FDF71DFF76482946FDF719FFD6
:104B6000AE4202D07448FDF714FF7448FDF711FF00
:104B700094F87232724A734913F0010F724818BFE9
:104B80001146FDF706FF6BE705F064F805F086F8BF
:104B90005848FDF7FEFE6248FFF720FF5548FDF735
:104BA000F8FE01215E4803F05DF9684A90423FF447
:104BB00057AF6748FDF7E4FE66484FE76648FDF7E4
:104BC000E8FE574B93F8720220F0010183F872124D
:104BD00046E7FEF77BFF4FF41E710A464FF49E63D3
:104BE00080465E48FDF7D5FE5D48FDF7D2FE5D4884
:104BF0006421FDF7CEFE684600214FF41E720AF0D4
:104C0000A3F900273D466E46FDF78CFE40B1FEF746
:104C10005DFF8046FDF786FE48B1FDF791FE06E098
:104C2000FEF754FFC8EB00006328EDD9EFE7044618
:104C3000FFF7BCFE202C0AD00A2C08D00D2C06D081
:104C4000B4F15F014A4252EB010314B100E00123C9
:104C500001375BB9421C0ED031780DB90001C0B2EA
:104C600040EA01023270761985F001059EA98E4254
:104C7000CAD3ACB900E04CB96846311A05EB410122
:104C800039484FF49E62FDF784FE82E09EAB9E425F
:104C900006D23648394622462346FDF77AFE78E0AA
:104CA000002DF6D10121684603F0DCF8274CA04224
:104CB00009D02F48FDF76DFE2E48FDF76AFE6846C5
:104CC000FFF78CFE65E004F0C5FF04F0E7FF144831
:104CD0001DF805202B5C9A4250D10135B5F51E7F99
:104CE000F5D1254853E000BF2D0A0020F84A0108FD
:104CF000134B0108F4690108794E0108A04E010820
:104D0000EF4E0108344F0108844F0108CE4F0108CF
:104D10001D5001085C5001084C4E0108114E01085D
:104D20009C1F0020224B0108414B0108584B0108F1
:104D30006F4B0108884B0108A14B0108D84B0108B3
:104D4000D83D0108DD3D0108E54B01081CDF442189
:104D5000FC4B0108454C01087F4C01089B4C0108A5
:104D6000D74C0108124D0108424D01087B4D010846
:104D7000B14D0108E14D0108A250010869464FF408
:104D80001E720AF033F81148FDF703FE1048FDF7D4
:104D900000FEFEF79BFE0446FEF798FE021B632A08
:104DA0003FF65EAEFDF7BEFD0028F5D0FDF7C8FD6D
:104DB000F2E70848FDF7E4FD03F05CF850E606482A
:104DC000FDF7DEFD03F0A4F84AE600BFDC50010861
:104DD000F7500108FD4D01082B4E01082DE9FF4158
:104DE000AB4B0122AB481A70FDF7CAFD00247826B0
:104DF000A948FDF7C5FDFDF795FD10B9002CFAD0C7
:104E000003E014B9FDF79CFD0646A448FDF7B8FD84
:104E1000482E00F0128113D8442E00F0DE8008D80E
:104E2000412E00F0C280422E00F0C9803F2EDFD11B
:104E300091E1462E9A4C00F0EE8000F2F580DAE027
:104E40004B2E00F05D8105D8492E00F006814A2ED8
:104E5000CED10EE1612E0BD0782E00F09E80572E21
:104E6000C6D19048FDF78CFD03F052F80024BFE74F
:104E70008B4C8D48FDF784FD94F8AC0003280CD8CA
:104E8000DFE800F002040608884804E0884802E0F1
:104E9000884800E08848FDF773FD8849884809780C
:104EA000FDF777FDB4F892108648FDF772FDB4F86F
:104EB00094108548FDF76DFDD4F8B0404FF07E5159
:104EC0002046FCF793F808B1804807E02046804967
:104ED000FCF78CF808B17F4800E07F48704CFDF784
:104EE00058FD94F8AC202ABBB4F8B4107B48FDF709
:104EF00050FDD4F8B800FCF7D1F881B27848FDF73E
:104F000048FDD4F8BC00FCF7C9F881B27548FDF73C
:104F100040FDD4F8C000FCF7C1F881B27248FDF73B
:104F200038FDD4F8C400FBF781FA02460B466F48FF
:104F3000FDF72FFD5A4B93F8AC00032896D16C482F
:104F400093F8C810FDF725FD0027554991F8C84092
:104F5000BC421ED94FF00C0808FB0718D8F8CC004B
:104F6000FBF764FA0446D8F8D0000D46FBF75EFA6A
:104F7000CDE90001D8F8D400FBF758FA2246CDE974
:104F800002012B4639465B480137FDF702FDFFB2AF
:104F9000DBE74248FDF7F4FC68E75748FDF7F0FC13
:104FA0003B4B00221A70BDE8FF81FEF731FFFCF792
:104FB00075F83B4E86F8AC0004F038FB24E0FEF7B1
:104FC00027FFFCF76BF8364CA4F89200FEF720FFA1
:104FD000FCF764F8A4F8940016E0FEF719FF00212E
:104FE000FCF722F810B14FF07E5300E0384B2C4E06
:104FF000C6F8B030ACE094F8AC0040B9FEF708FF5A
:10500000FCF74CF8A4F8B400FEF724F9A0E0FEF792
:10501000FFFE3A489AE094F8AC20002AF7D1FEF758
:10502000F7FEC4F8B80011E094F8AC100029EED1F6
:10503000FEF7EEFEC4F8BC0008E0194C94F8AC6032
:10504000002EE4D1FEF7E4FEC4F8C000FCF726F819
:1050500081B20520FEF78AF97AE0114E96F8AC107D
:105060000029D4D1FEF7D4FEC6F8C40003F042FAFA
:105070006EE00B4C94F8AC00032864D1FEF7C8FE38
:10508000FCF70CF884F8C80004F0D0FA60E000BF28
:105090002D0A00202E51010848510108F469010829
:1050A0009C1F00202B4E0108565101086E5101082B
:1050B0008051010892510108A45101084E2400209A
:1050C000B6510108E05101080952010833520108A4
:1050D000000080BF5C52010885520108AE520108F1
:1050E000D7520108FF520108275301085053010805
:1050F0007A530108BC530108DB530108F45301083B
:105100002F4C94F8AC50032D19D1FEF781FE804648
:10511000FEF77EFE0746FEF77BFE06463846FBF7A7
:10512000BDFF421E4046D7B2FBF7B8FF431ED8B2C0
:1051300005FB007504EB8501C1F8CC6008E0FEF7C3
:1051400067FEFEF765FEFEF763FE1E48FDF721FCD5
:10515000012461264CE61C48FDF712FC1B48FDF7B4
:105160000FFC1B48FDF70CFC1A48FDF709FC14481E
:1051700090F8AC1071B91848FDF702FC1748FDF71C
:10518000FFFB1748FDF7FCFB1648FDF7F9FB164837
:10519000FDF7F6FB0A4A92F8AC30032B05D1134811
:1051A000FDF7EEFB1248FDF7EBFB1248FDF7E8FBBD
:1051B0001148FDF7E5FB0448FDF7E2FB18E600BFE8
:1051C0009C1F002019540108F46901083654010895
:1051D000A85401080855010867550108C25501087F
:1051E0001C56010876560108D056010833570108AD
:1051F0008E570108F25701083A58010800000000D4
:105200007FB5B54B0122B5481A70FDF7B9FB0025F3
:105210007824B348FDF7B4FBFDF784FB10B9002DEB
:10522000FAD003E015B9FDF78BFB0446AD48FDF756
:10523000A7FB452C00F01D8124D8422C00F00C81E6
:1052400005D83F2C00F07C81412CE2D1DFE0432CDB
:1052500000F00A81442CDCD1FEF7DAFDA24DC5F83E
:105260009800FEF7D5FDC5F89C00FEF7D1FDC5F806
:10527000A000FEF7CDFDC5F8A400FEF7C9FDC5F8F6
:10528000A80017E1572C00F0188110D8462C00F028
:10529000FE80472CBDD1FEF7BBFD9449FBF7C6FD50
:1052A0009349FBF70FFD904BC3F8800002E1612C9E
:1052B00008D0782CADD18F48FDF762FB86490020DD
:1052C00008707FBD884E8C48FDF75AFB96F88850D1
:1052D0001DB1012D04D1894800E08948FDF750FB3C
:1052E0008848FDF74DFB00237F4D04A95A1992F819
:1052F0008A00854A0E18985C0133082B06F80C0CBE
:10530000F2D1002601A88DF80C60FDF739FB754835
:10531000FDF736FB7D48FDF73CFB7D48FDF739FB8B
:10532000D5F89800FBF7BAFE81B27A48FDF731FB59
:10533000D5F89C00FBF7B2FE81B27748FDF729FB58
:10534000D5F8A000FBF7AAFE81B27448FDF721FB57
:10535000D5F8A400FBF7A2FE81B27148FDF719FB56
:10536000D5F8A800FBF79AFE81B26E48FDF711FB55
:10537000A86FFBF75BF854A3D3E90023FBF7AAF867
:1053800053A3D3E90023FBF7CFF9FBF73DFBFBF772
:105390004DF802460B466448FDF7FBFAE86FFBF751
:1053A00045F849A3D3E90023FBF794F848A3D3E9D0
:1053B0000023FBF7B9F9FBF727FBFBF737F80246A9
:1053C0000B465A48FDF7E5FAD5F88000FBF72EF8B2
:1053D0003DA3D3E90023FBF77DF83DA3D3E90023E8
:1053E000FBF7A2F9FBF710FBFBF720F802460B4690
:1053F0004F48FDF7CEFA95F86C124E48FDF7C9FA02
:1054000095F86D124C48FDF7C4FA354601E71C20AB
:10541000354E8DF800000024684601258DF80140C6
:105420008DF802508DF8034005F0F6F996F88820C3
:105430004FF080403AB9022105F0C2FF86F888504B
:10544000FEF75EF937E02946224605F0B9FF86F8F7
:105450008840FDF79BFE2EE001A80821FEF7B6FC70
:1054600001A802F0E7FC25E01F4A002182F889101C
:1054700020E0FEF7CDFCFBF711FE1B4C84F86C021C
:10548000FEF7C6FCFBF70AFE84F86D0212E0FEF799
:10549000BFFC1649FBF7CAFC1549FBF713FC124C7D
:1054A000A067FEF7B5FC1149FBF7C0FC1049FBF7FC
:1054B00009FCE06701256124ABE62048FDF760FAAE
:1054C00002F026FDA5E600BF0000000000F905413E
:1054D00000000060FB2109402D0A002079580108D6
:1054E00096580108F46901089C1F002000C82F4845
:1054F000DB0F4940C55A0108A7580108CE580108DA
:10550000C9580108D85801083E700108F958010827
:105510001A590108275901084D5901087359010802
:1055200099590108BF590108E6590108115A0108A3
:105530003C5A01086C5A0108985A01082B4E010880
:105540000F48FDF71DFA0F48FDF71AFA0E48FDF750
:1055500017FA0E48FDF714FA0D48FDF711FA0D4839
:10556000FDF70EFA0C48FDF70BFA0C48FDF708FAA8
:105570000B48FDF705FA0248FDF702FA49E600BFBD
:10558000F4690108E15A01082E5B01088D5B0108EE
:105590000A5C0108755C0108E95C0108F257010822
:1055A000365D0108AFF30080F0B5464B012285B0AF
:1055B00045481A70FDF7E4F9002478264348FDF7C2
:1055C000DFF9FDF7AFF910B9002CFAD003E014B9F8
:1055D000FDF7B6F906463E48FDF7D2F9572E00F022
:1055E00060821ED8442E00F02C820AD8422E00F091
:1055F0001B8200F21E823F2E00F05A82412EDDD126
:10560000F2E14E2E00F02582562E00F03882452E13
:10561000D4D1FEF7FDFB2F4CE066FEF7F9FB2067C7
:105620003CE2642E00F0708107D8622E00F05F81AA
:1056300000F26781612EC1D113E0702E00F07C81F1
:1056400002D86D2EBAD168E1762E00F08281782ED4
:10565000B4D12148FDF794F91A4B0020187005B019
:10566000F0BD1C4F7D78012D3ED11C48FDF788F917
:10567000F869FAF7DBFE0446386A0D46FAF7D6FEFB
:10568000CDE90001786AFAF7D1FE22462B46CDE932
:1056900002011348FDF77DF9B86AFAF7C7FE044620
:1056A000F86A0D46FAF7C2FECDE90001386BFAF749
:1056B000BDFE2246CDE902012B460A48FDF769F9F5
:1056C00015E000BF2D0A0020765D0108915D0108FC
:1056D000F46901089C1F0020BC610108A05D01085D
:1056E000B55D0108E55D0108A048FDF749F9A04F47
:1056F0003869FAF79BFE044678690D46FAF796FE7C
:10570000CDE90001B869FAF791FE22462B46CDE9B2
:1057100002019848FDF73DF97868FAF787FE0446DC
:10572000B8680D46FAF782FECDE90001F868FAF78D
:105730007DFE22462B46CDE902018F48FDF729F96F
:10574000786BFAF773FE0446B86B0D46FAF76EFEF7
:10575000CDE90001F86BFAF769FE22462B46CDE948
:1057600002018648FDF715F9386CFAF75FFE04462A
:10577000786C0D46FAF75AFECDE90001B86CFAF7DD
:1057800055FE22462B46CDE902017D48FDF701F981
:10579000F86CFAF74BFE0446386D0D46FAF746FEF4
:1057A000CDE90001786DFAF741FE2246CDE902010C
:1057B0002B467448FDF7EDF873480068FAF736FE9B
:1057C00002460B467148FDF7E4F8B86DFAF72EFE75
:1057D00002460B466E48FDF7DCF8F86DFAF726FE38
:1057E00002460B466B48FDF7D4F8386EFAF71EFEFA
:1057F00002460B466848FDF7CCF8786EFAF716FEBD
:1058000002460B466548FDF7C4F8B86EFAF70EFE7F
:1058100002460B466248FDF7BCF8F86EFAF706FE42
:1058200002460B465F48FDF7B4F8386FFAF7FEFD05
:1058300002460B465C48FDF7ACF87B78012B13D190
:105840005A48FDF79DF897F8741003290CD8DFE843
:1058500001F002040608564804E0564802E05648A3
:1058600000E05648FDF78CF8BA78414C012A0CBF8D
:1058700053485448FDF784F894F8710201280CBF8E
:1058800051485248FDF77CF8D4F85802FAF7CEFD9B
:1058900002460B464E48FDF77CF8D4F85C02FAF756
:1058A000C5FD02460B464B48FDF773F894F85412B9
:1058B0004948FDF76EF8D4F86002FAF7B7FD0246E2
:1058C0000B464648FDF765F8D4F86402FAF7AEFDDA
:1058D00002460B464248FDF75CF8D4F86802FAF736
:1058E000A5FD02460B463F48FDF753F8DEE0204E8B
:1058F0007478012C02D101F04BF8D0E000F00CFFDD
:10590000CCE000F083FEC9E0194C617811B900F0D9
:1059100079FAC3E000F0DAFBC0E0154B597831B1F9
:1059200000225A70FBF7E6FFFCF71CFBB6E00124EF
:105930005C70FCF7BDFCB2E00D480124837823B114
:1059400000268670FCF7FCF8A9E08470FCF7E0FD07
:10595000A5E0074E012496F8711219B1002286F8CD
:1059600071229CE086F8714299E000BF155E010843
:105970009C1F0020325E0108625E0108925E0108F1
:10598000C25E0108F25E010800000020225F0108EB
:10599000445F0108665F0108885F0108AA5F01088B
:1059A000CC5F0108EE5F0108106001083260010859
:1059B00051600108596001086160010868600108D0
:1059C0006F6001088360010897600108B5600108F5
:1059D000DB600108FD6001081F61010843610108E7
:1059E0006B61010893610108484D687801287FF4D4
:1059F000E5ADFEF70DFAFBF751FBC1B203290CD858
:105A0000DFE801F002040608002404E0012402E0BB
:105A1000022400E0032485F8744068201A2195F8D8
:105A20007420FDF75DFB39E0FEF7F2F93749886530
:105A300034E0FEF7EDF9354EF065FEF7E9F9306632
:105A40002CE0FEF7E5F9314E7066FEF7E1F9B0663D
:105A500024E0FEF7DDF92D4CC4F86002FEF7D8F91A
:105A6000C4F86402FEF7D4F9294BD4F86022D4F8C4
:105A70006412C4F868021A60996018610EE0FEF7BB
:105A8000C7F9224EC6F85802FEF7C2F9C6F85C0202
:105A9000FEF7BEF9FBF702FB86F8540201246126EB
:105AA0008CE51C48FCF76CFF02F032FA002485E517
:105AB0001948FCF765FF154A5378012B0CBF1748AE
:105AC0001748FCF75DFF1748FCF75AFF1648FCF72C
:105AD00057FF1648FCF754FF1548FCF751FF1548CF
