:020000040800F2
:100000000050002005170008D9A00008DBA0000858
:10001000DDA00008DFA00008E1A00008000000004B
:10002000000000000000000000000000E3A0000845
:10003000E5A0000800000000E7A00008F135000876
:10004000B5170008B5170008B5170008B517000860
:10005000B5170008B5170008B5170008B517000850
:10006000B5170008B5170008B5170008B517000840
:10007000B5170008B5170008B13B0008B517000810
:10008000B5170008B5170008B5170008B517000820
:10009000B5170008B5170008B5170008B517000810
:1000A000B5170008B5170008B5170008B517000800
:1000B0009D300008B5170008B5170008B5170008EF
:1000C000B517000801280008012E0008B517000820
:1000D000B5170008B933000861330008B5170008E8
:1000E000B5170008B5170008B51700080000000094
:1000F0000000000000000000000000000000000000
:0C01000000000000000000005FF808F1A3
:1001100010B5054C237833B9044810B10448AFF347
:1001200000800121217010BDA809002000000000FE
:10013000087C010808B5064B1BB106480649AFF319
:1001400000800648016811B1054A02B1904708BD18
:1001500000000000087C0108AC090020A409002070
:100160000000000081F0004102E000BF83F0004386
:1001700030B54FEA41044FEA430594EA050F08BF42
:1001800090EA020F1FBF54EA000C55EA020C7FEA06
:10019000645C7FEA655C00F0E2804FEA5454D4EB83
:1001A0005555B8BF6D420CDD2C4480EA020281EA4D
:1001B000030382EA000083EA010180EA020281EA85
:1001C0000303362D88BF30BD11F0004F4FEA0131D7
:1001D0004FF4801C4CEA113102D0404261EB4101E6
:1001E00013F0004F4FEA03334CEA133302D052426C
:1001F00063EB430394EA050F00F0A780A4F1010428
:10020000D5F1200E0DDB02FA0EFC22FA05F2801861
:1002100041F1000103FA0EF2801843FA05F3594147
:100220000EE0A5F120050EF1200E012A03FA0EFCC6
:1002300028BF4CF0020C43FA05F3C01851EBE371F0
:1002400001F0004507D54FF0000EDCF1000C7EEB0D
:1002500000006EEB0101B1F5801F1BD3B1F5001F4B
:100260000CD349085FEA30004FEA3C0C04F101046A
:100270004FEA445212F5800F80F09A80BCF1004F93
:1002800008BF5FEA500C50F1000041EB045141EA15
:10029000050130BD5FEA4C0C404141EB010111F416
:1002A000801FA4F10104E9D191F0000F04BF0146C1
:1002B0000020B1FA81F308BF2033A3F10B03B3F19F
:1002C00020020CDA0C3208DD02F1140CC2F10C022F
:1002D00001FA0CF021FA02F10CE002F11402D8BF8D
:1002E000C2F1200C01FA02F120FA0CFCDCBF41EA59
:1002F0000C019040E41AA2BF01EB0451294330BD28
:100300006FEA04041F3C1CDA0C340EDC04F1140404
:10031000C4F1200220FA04F001FA02F340EA0300DB
:1003200021FA04F345EA030130BDC4F10C04C4F121
:10033000200220FA02F001FA04F340EA0300294601
:1003400030BD21FA04F0294630BD94F0000F83F44B
:10035000801306BF81F480110134013D4EE77FEA2E
:10036000645C18BF7FEA655C29D094EA050F08BF7A
:1003700090EA020F05D054EA000C04BF194610465B
:1003800030BD91EA030F1EBF0021002030BD5FEA9F
:10039000545C05D14000494128BF41F0004130BDC7
:1003A00014F580043CBF01F5801130BD01F000451B
:1003B00045F0FE4141F470014FF0000030BD7FEA8E
:1003C000645C1ABF194610467FEA655C1CBF0B4689
:1003D000024650EA013406BF52EA033591EA030FA0
:1003E00041F4002130BD00BF90F0000F04BF002198
:1003F000704730B54FF4806404F132044FF00005CB
:100400004FF0000150E700BF90F0000F04BF002143
:10041000704730B54FF4806404F1320410F00045A9
:1004200048BF40424FF000013EE700BF42004FEAA4
:10043000E2014FEA31014FEA02701FBF12F07F4321
:1004400093F07F4F81F06051704792F0000F14BF1E
:1004500093F07F4F704730B54FF4607401F0004562
:1004600021F0004120E700BF50EA010208BF7047B9
:1004700030B54FF000050AE050EA010208BF7047AE
:1004800030B511F0004502D5404261EB41014FF417
:10049000806404F132045FEA915C3FF4DCAE4FF01B
:1004A00003025FEADC0C18BF03325FEADC0C18BF02
:1004B000033202EBDC02C2F1200300FA03FC20FA53
:1004C00002F001FA03FE40EA0E0021FA02F11444A0
:1004D000C1E600BF70B54FF0FF0C4CF4E06C1CEAB5
:1004E00011541DBF1CEA135594EA0C0F95EA0C0F2A
:1004F00000F0DEF82C4481EA030621EA4C5123EA9D
:100500004C5350EA013518BF52EA033541F48011CB
:1005100043F4801338D0A0FB02CE4FF00005E1FB7E
:1005200002E506F00042E0FB03E54FF00006E1FBC8
:1005300003569CF0000F18BF4EF0010EA4F1FF040B
:10054000B6F5007F64F5407404D25FEA4E0E6D414B
:1005500046EB060642EAC62141EA55514FEAC5205C
:1005600040EA5E504FEACE2EB4F1FD0C88BFBCF5D8
:10057000E06F1ED8BEF1004F08BF5FEA500E50F189
:10058000000041EB045170BD06F0004646EA01014F
:1005900040EA020081EA0301B4EB5C04C2BFD4EB81
:1005A0000C0541EA045170BD41F480114FF0000E7A
:1005B000013C00F3AB8014F1360FDEBF002001F0E8
:1005C000004170BDC4F10004203C35DA0C341BDC62
:1005D00004F11404C4F1200500FA05F320FA04F034
:1005E00001FA05F240EA020001F0004221F0004168
:1005F00010EBD37021FA04F642EB06015EEA430EDB
:1006000008BF20EAD37070BDC4F10C04C4F120050A
:1006100000FA04F320FA05F001FA04F240EA0200BD
:1006200001F0004110EBD37041F100015EEA430E8E
:1006300008BF20EAD37070BDC4F1200500FA05F2AE
:100640004EEA020E20FA04F301FA05F243EA02032D
:1006500021FA04F001F0004121FA04F220EA02003C
:1006600000EBD3705EEA430E08BF20EAD37070BD82
:1006700094F0000F0FD101F00046400041EB010162
:1006800011F4801F08BF013CF7D041EA060195F044
:10069000000F18BF704703F00046520043EB0303FE
:1006A00013F4801F08BF013DF7D043EA06037047EB
:1006B00094EA0C0F0CEA135518BF95EA0C0F0CD0F6
:1006C00050EA410618BF52EA4306D1D181EA03013C
:1006D00001F000414FF0000070BD50EA410606BF36
:1006E0001046194652EA430619D094EA0C0F02D17B
:1006F00050EA013613D195EA0C0F05D152EA0336C0
:100700001CBF104619460AD181EA030101F00041DD
:1007100041F0FE4141F470014FF0000070BD41F026
:10072000FE4141F4780170BD70B54FF0FF0C4CF400
:10073000E06C1CEA11541DBF1CEA135594EA0C0F1F
:1007400095EA0C0F00F0A7F8A4EB050481EA030E6C
:1007500052EA03354FEA013100F088804FEA033353
:100760004FF0805545EA131343EA12634FEA022221
:1007700045EA111545EA10654FEA00260EF00041E2
:100780009D4208BF964244F1FD0404F5407402D234
:100790005B084FEA3202B61A65EB03055B084FEAC5
:1007A00032024FF480104FF4002CB6EB020E75EBC2
:1007B000030E22BFB61A754640EA0C005B084FEAEA
:1007C0003202B6EB020E75EB030E22BFB61A754667
:1007D00040EA5C005B084FEA3202B6EB020E75EBB2
:1007E000030E22BFB61A754640EA9C005B084FEA2A
:1007F0003202B6EB020E75EB030E22BFB61A754637
:1008000040EADC0055EA060E18D04FEA051545EA25
:1008100016754FEA06164FEAC30343EA52734FEACE
:10082000C2025FEA1C1CC0D111F4801F0BD141EA47
:1008300000014FF000004FF0004CB6E711F4801FAC
:1008400004BF01430020B4F1FD0C88BFBCF5E06F8C
:100850003FF6AFAEB5EB030C04BFB6EB020C5FEA9C
:10086000500C50F1000041EB045170BD0EF0004EF1
:100870004EEA113114EB5C04C2BFD4EB0C0541EA23
:10088000045170BD41F480114FF0000E013C90E620
:1008900045EA060E8DE60CEA135594EA0C0F08BFE4
:1008A00095EA0C0F3FF43BAF94EA0C0F0AD150EAE3
:1008B00001347FF434AF95EA0C0F7FF425AF104676
:1008C00019462CE795EA0C0F06D152EA03353FF49E
:1008D000FDAE1046194622E750EA410618BF52EA1B
:1008E00043067FF4C5AE50EA41047FF40DAF52EAEF
:1008F00043057FF4EBAE12E74FF0FF3C06E000BF8C
:100900004FF0010C02E000BF4FF0010C4DF804CD98
:100910004FEA410C7FEA6C5C4FEA430C18BF7FEA58
:100920006C5C1BD001B050EA410C0CBF52EA430C86
:1009300091EA030F02BF90EA020F0020704710F106
:10094000000F91EA030F58BF994208BF90422CBF95
:10095000D8176FEAE37040F0010070474FEA410C8E
:100960007FEA6C5C02D150EA013C07D14FEA430CAC
:100970007FEA6C5CD6D152EA033CD3D05DF8040B1D
:10098000704700BF8446104662468C46194663464F
:1009900000E000BF01B5FFF7B7FF002848BF10F126
:1009A000000F01BD4DF808EDFFF7F4FF0CBF01206B
:1009B00000205DF808FB00BF4DF808EDFFF7EAFFE7
:1009C00034BF012000205DF808FB00BF4DF808EDA2
:1009D000FFF7E0FF94BF012000205DF808FB00BF97
:1009E0004DF808EDFFF7CEFF94BF012000205DF821
:1009F00008FB00BF4DF808EDFFF7C4FF34BF01202E
:100A000000205DF808FB00BF4FEA4102B2F1E0436D
:100A100024BFB3F5001CDCF1FE5C0DD901F0004CE5
:100A20004FEAC0024CEA5070B2F1004F40EB830035
:100A300008BF20F00100704711F0804F21D113F161
:100A40003872BCBF01F00040704741F480114FEA9A
:100A50005252C2F11802C2F1200C10FA0CF320FA23
:100A600002F018BF40F001004FEAC1234FEAD32340
:100A700003FA0CFC40EA0C0023FA02F34FEA4303AA
:100A8000CCE77FEA625307D150EA01331EBF4FF033
:100A9000FE4040F44000704701F0004040F0FE404E
:100AA00040F40000704700BF80F0004002E000BF4B
:100AB00081F0004142001FBF5FEA410392EA030F49
:100AC0007FEA226C7FEA236C6AD04FEA1262D2EB93
:100AD0001363C1BFD218414048404140B8BF5B4298
:100AE000192B88BF704710F0004F40F4000020F031
:100AF0007F4018BF404211F0004F41F4000121F047
:100B00007F4118BF494292EA030F3FD0A2F1010290
:100B100041FA03FC10EB0C00C3F1200301FA03F1CE
:100B200000F0004302D5494260EB4000B0F5000FF1
:100B300013D3B0F1807F06D340084FEA310102F1B0
:100B40000102FE2A51D2B1F1004F40EBC25008BF62
:100B500020F0010040EA03007047490040EB00002C
:100B600010F4000FA2F10102EDD1B0FA80FCACF15B
:100B7000080CB2EB0C0200FA0CF0AABF00EBC2505A
:100B800052421843BCBFD0401843704792F0000F48
:100B900081F4000106BF80F400000132013BB5E79B
:100BA0004FEA41037FEA226C18BF7FEA236C21D011
:100BB00092EA030F04D092F0000F08BF0846704776
:100BC00090EA010F1CBF0020704712F07F4F04D144
:100BD000400028BF40F00040704712F100723CBF57
:100BE00000F50000704700F0004343F0FE4040F481
:100BF000000070477FEA226216BF08467FEA23633F
:100C00000146420206BF5FEA412390EA010F40F429
:100C1000800070474FF0000304E000BF10F0004375
:100C200048BF40425FEA000C08BF704743F096435C
:100C300001464FF000001CE050EA010208BF704777
:100C40004FF000030AE000BF50EA010208BF7047FE
:100C500011F0004302D5404261EB41015FEA010C13
:100C600002BF84460146002043F0B64308BFA3F10B
:100C70008053A3F50003BCFA8CF2083AA3EBC253ED
:100C800010DB01FA02FC634400FA02FCC2F120020C
:100C9000BCF1004F20FA02F243EB020008BF20F043
:100CA0000100704702F1200201FA02FCC2F12002A9
:100CB00050EA4C0021FA02F243EB020008BF20EA9E
:100CC000DC7070474FF0FF0C1CEAD0521EBF1CEACC
:100CD000D15392EA0C0F93EA0C0F6FD01A4480EABA
:100CE000010C400218BF5FEA41211ED04FF00063A3
:100CF00043EA501043EA5111A0FB01310CF00040CF
:100D0000B1F5000F3EBF490041EAD3715B0040EAF4
:100D1000010062F17F02FD2A1DD8B3F1004F40EBC4
:100D2000C25008BF20F00100704790F0000F0CF097
:100D3000004C08BF49024CEA502040EA51207F3A5B
:100D4000C2BFD2F1FF0340EAC250704740F4000036
:100D50004FF00003013A5DDC12F1190FDCBF00F027
:100D600000407047C2F10002410021FA02F1C2F1D5
:100D7000200200FA02FC5FEA310040F1000053EA71
:100D80004C0308BF20EADC70704792F0000F00F0BF
:100D9000004C02BF400010F4000F013AF9D040EAC5
:100DA0000C0093F0000F01F0004C02BF490011F459
:100DB000000F013BF9D041EA0C018FE70CEAD15357
:100DC00092EA0C0F18BF93EA0C0F0AD030F0004CD7
:100DD00018BF31F0004CD8D180EA010000F000408B
:100DE000704790F0000F17BF90F0004F084691F049
:100DF000000F91F0004F14D092EA0C0F01D1420283
:100E00000FD193EA0C0F03D14B0218BF084608D14B
:100E100080EA010000F0004040F0FE4040F4000095
:100E2000704740F0FE4040F4400070474FF0FF0C28
:100E30001CEAD0521EBF1CEAD15392EA0C0F93EA6F
:100E40000C0F69D0A2EB030280EA010C49024FEAC1
:100E5000402037D04FF0805343EA111143EA10137A
:100E60000CF000408B4238BF5B0042F17D024FF432
:100E7000000C8B4224BF5B1A40EA0C00B3EB510F0D
:100E800024BFA3EB510340EA5C00B3EB910F24BFF6
:100E9000A3EB910340EA9C00B3EBD10F24BFA3EB7B
:100EA000D10340EADC001B0118BF5FEA1C1CE0D143
:100EB000FD2A3FF650AF8B4240EBC25008BF20F0F6
:100EC000010070470CF0004C4CEA50207F32C2BF4A
:100ED000D2F1FF0340EAC250704740F400004FF0E7
:100EE0000003013A37E792F0000F00F0004C02BF18
:100EF000400010F4000F013AF9D040EA0C0093F0E2
:100F0000000F01F0004C02BF490011F4000F013B3B
:100F1000F9D041EA0C0195E70CEAD15392EA0C0FA3
:100F200008D142027FF47DAF93EA0C0F7FF470AFDB
:100F3000084676E793EA0C0F04D14B023FF44CAF1E
:100F400008466EE730F0004C18BF31F0004CCAD1B3
:100F500030F000427FF45CAF31F000437FF43CAFEF
:100F60005FE700BF4FF0FF3C06E000BF4FF0010C11
:100F700002E000BF4FF0010C4DF804CD4FEA4002F3
:100F80004FEA41037FEA226C18BF7FEA236C11D03D
:100F900001B052EA530C18BF90EA010F58BFB2EBF0
:100FA000030088BFC81738BF6FEAE17018BF40F070
:100FB000010070477FEA226C02D15FEA402C05D124
:100FC0007FEA236CE4D15FEA412CE1D05DF8040BA9
:100FD000704700BF844608466146FFE70FB5FFF73C
:100FE000C9FF002848BF10F1000F0FBD4DF808EDF4
:100FF000FFF7F4FF0CBF012000205DF808FB00BFE5
:101000004DF808EDFFF7EAFF34BF012000205DF83E
:1010100008FB00BF4DF808EDFFF7E0FF94BF01208B
:1010200000205DF808FB00BF4DF808EDFFF7D2FF88
:1010300094BF012000205DF808FB00BF4DF808EDCB
:10104000FFF7C8FF34BF012000205DF808FB00BF98
:101050004FEA4002B2F1FE4F0FD34FF09E03B3EBC5
:1010600012620DD94FEA002343F0004310F0004F05
:1010700023FA02F018BF404270474FF0000070475B
:1010800012F1610F01D1420205D110F0004008BFFA
:101090006FF0004070474FF00000704742000ED2E2
:1010A000B2F1FE4F0BD34FF09E03B3EB126209D4A3
:1010B0004FEA002343F0004323FA02F070474FF059
:1010C0000000704712F1610F01D1420202D14FF0CE
:1010D000FF3070474FF00000704700BF4FEA4102F9
:1010E00012F5001215D211D56FF47873B3EB62527A
:1010F00012D94FEAC12343F0004343EA505311F0A1
:10110000004F23FA02F018BF404270474FF0000032
:10111000704750EA013005D111F0004008BF6FF070
:10112000004070474FF00000704700BF4BB942B914
:10113000002908BF002802D04FF0FF31084600F018
:101140003BB882B0EC462DE9005000F01DF8DDF808
:1011500004E002B00CBC70472DE9F04116469846F9
:1011600004460D4600F02AF806FB01FCA6FB00230E
:1011700000FB08C7FB18A21A65EB0303069CC4E931
:101180000023BDE8F08100BF2DE9F04190460646FE
:101190000F461D4600F070F900FB05F3A0FB084563
:1011A00008FB0138069B4544341B67EB0505C3E982
:1011B0000045BDE8F08100BF704700BF00292DE960
:1011C000F00F1D46C0F29D800024002DC0F29480D7
:1011D00080460F4694461E46E3BB8A4255D9B2FA72
:1011E00082F747B1C7F1200520FA05F601FA07F1A9
:1011F000BA40B8403143170CB1FBF7F61FFA82FC36
:1012000007FB16110CFB06F5030C43EA01439D4254
:1012100008D9711E9B1880F013819D4240F2108105
:10122000023E9B18591BB1FBF7F507FB15130CFB8E
:1012300005FC80B240EA03418C4507D96B1E8A1831
:1012400080F00081944540F2FD80023D45EA064170
:10125000002503E08B420CD9002529460A462B467F
:1012600014B1524263EB430310461946BDE8F00F38
:101270007047B3FA83F5002D40F087808B4201D38D
:101280008242EAD800250121E8E712B90126B6FB1F
:10129000F2F2B2FA82F6002E39D18E1A130C1FFA2E
:1012A00082FC0125B6FBF3F703FB17610CFB07F883
:1012B0004FEA104949EA0146B04506D9791EB618E9
:1012C00002D2B04500F2D3800F46C8EB0606B6FB4B
:1012D000F3F103FB11630CFB01FC80B240EA034312
:1012E0009C4506D94E1E9A1802D2944500F2C2803F
:1012F000314641EA0741B1E7E443524263EB43031D
:1013000066E7404261EB41014FF0FF345DE7B240D8
:10131000C6F1200921FA09F720FA09F901FA06F1C4
:10132000130CB7FBF3F81FFA82FC03FB18770CFBD6
:1013300008F549EA01094FEA194141EA0747B04077
:10134000BD420AD9BF1808F1FF3680F08E80BD4239
:1013500040F28B80A8F10208BF18791BB1FBF3F5AE
:1013600003FB15170CFB05F61FFA89F949EA07413B
:101370008E4206D96F1E891871D28E426FD9023DF6
:1013800089188E1B45EA08458CE7C5F1200122FA31
:1013900001F306FA05F627FA01F207FA05F720FA33
:1013A00001F11E434FEA1649B2FBF9F81FFA86FA1B
:1013B00009FB18220AFB08FB0F433B0C43EA0242DD
:1013C00093450CFA05FC08D9921908F1FF314AD26D
:1013D000934548D9A8F102089219CBEB0203B3FB5D
:1013E000F9F109FB11320AFB01FABFB247EA0243E5
:1013F0009A4506D94A1E9B1933D29A4531D90239EA
:101400009B1941EA08410F0C1FFA8CF808FB07F6FC
:101410008AB24FEA1C4C08FB02F80CFB02620CFB80
:1014200007FC02EB1842964288BF0CF5803CCAEBE1
:1014300003030CEB124C63450ED305D000250DE7DA
:101440000E46EFE61D4601E700FA05F01FFA88F8A0
:1014500008EB0245A842F1D201390025FEE63D46DF
:101460008FE71146CDE78846B7E7B04675E7023FFC
:10147000B6182AE702393CE72DE9F007144605467D
:101480000E46002B3DD18A4249D9B2FA82F747B1C4
:10149000C7F1200120FA01F206FA07F6BC40BD4070
:1014A0001643220CB6FBF2F0A1B202FB106601FB60
:1014B00000F32F0C47EA0646B34208D9471E3619F7
:1014C00080F0FA80B34240F2F78002383619F61AFB
:1014D000B6FBF2F302FB136201FB03F1ADB245EA86
:1014E0000242914207D95E1E121980F0E7809142B4
:1014F00040F2E480023B43EA00400021BDE8F007EF
:1015000070478B4243D8B3FA83F4002C42D18B420C
:1015100002D3824200F2E18000210120EEE712B9FD
:101520000127B7FBF2F4B4FA84F2002A40F0898074
:101530000A1B230CA7B20121B2FBF3F603FB162210
:1015400007FB06F04FEA154C4CEA0242904207D9DD
:10155000121906F1FF3C02D2904200F2D08066469A
:10156000121AB2FBF3F003FB102307FB00F7ADB236
:1015700045EA03439F4207D9421E1B1980F0A08011
:101580009F4240F29D80023840EA0640B6E70021C3
:101590000846B3E7C4F1200622FA06F703FA04F37B
:1015A00021FA06F501FA04F120FA06F63B434FEA68
:1015B000134CB5FBFCF71FFA83F80CFB175508FB1F
:1015C00007F946EA010A4FEA1A4141EA0545A945E9
:1015D00002FA04F204D97E1EED18C0F0818037466D
:1015E000C9EB0501B1FBFCF60CFB161508FB06F870
:1015F0001FFA8AFA4AEA0541884503D9751EC918B7
:1016000074D32E4646EA0746370C1FFA82FC0CFBC1
:1016100007F5120CB3B20CFB03FC02FB035302FBF5
:1016200007F203EB1C439D4288BF02F58032C8EBF2
:10163000010102EB134291424CD343D030460021CA
:101640005CE79440C2F1200521FA05F620FA05F581
:1016500001FA02F1230CB6FBF3FCA7B203FB1C66F4
:1016600007FB0CF829430D0C45EA0646B04500FA85
:1016700002F508D936190CF1FF303ED2B0453CD9FD
:10168000ACF1020C3619C8EB0602B2FBF3F003FB17
:10169000102607FB00F889B241EA0642904506D9B8
:1016A000461E121927D2904525D902381219C8EBC7
:1016B000020240EA0C413FE7384608E733461AE7A2
:1016C000104661E700FA04F01FFA8CFC0CEB0343B0
:1016D0009842B3D2701E002110E7214620460DE744
:1016E000A9457FF67CAF023FED1879E7884588D998
:1016F000023EC91886E73046D9E78446C3E7023E72
:1017000012192DE71D481E49026800608A4200F048
:101710001F80002100F004B81A4B5B58435004317D
:1017200019481A4B42189A42FFF4F6AF184A00F0D3
:1017300003B8002342F8043B164B9A42FFF4F9AF7A
:1017400008F0D2FC0DF014FD07F060FCFFF7FEBFBF
:10175000114E124830601248016821F0706101603A
:10176000410201600F4C182020600F490F480860AB
:101770000F48D0F800D0406800470000F04F00202C
:10178000EFBEADDE347C010800000020A40900207B
:10179000A809002078240020181002400900000049
:1017A00004000140140C0140000C01404434434447
:1017B00000F0FF1FFFF7FEBF07B5322106226B4680
:1017C000532001F053FA0A4B9DF800209DF80100C8
:1017D0009DF802109A70D87019709DF803209DF83A
:1017E00004009DF805105A70187159710EBD00BFA4
:1017F000DE0D00202DE9F843394B002501221A7037
:101800004FF4FA662F46A946DFF8E480354CFFF71F
:10181000D3FFB8F90000FFF701FA6168FFF748F954
:101820002169FFF74FFA01464846FFF743F9814621
:10183000B8F90200FFF7F2F9A168FFF739F9616919
:10184000FFF740FA01463846FFF734F90746B8F982
:101850000400FFF7E3F9E168FFF72AF9A169FFF750
:1018600031FA01462846FFF725F9013E0546B6B292
:101870004FF47A7001F0CAFF002EC5D11A494846CC
:10188000FFF7D4FA184904463846FFF7CFFA16494D
:1018900007462846FFF7CAFA214605462046FFF7C5
:1018A00011FA394604463846FFF70CFA014620463D
:1018B000FFF700F9294604462846FFF703FA0146D8
:1018C0002046FFF7F7F8FEF7B1FD0AF0F7FAFFF749
:1018D0009BF80649086002480670BDE8F88300BF1F
:1018E000D6090020B01F00200000FA4400000020AC
:1018F000DE0D002008B52D210822532001F078FAD2
:101900000A2001F09FFF31210922532001F070FAD3
:101910000A2001F097FF2C210E22532001F068FAD3
:10192000642001F08FFFBDE80840FFF763BF0000AF
:1019300007B5F621022201AB772001F097F9064B9B
:101940009DF804209DF805005A701870F421772046
:10195000742201F04DFA0EBD640D002007B5F6218A
:10196000032201AB772001F081F9094B9DF8042097
:101970009DF805009DF80610587019709A701A6845
:10198000F421D01118602E22772001F031FA0EBD1B
:101990007C0D00200D4B0E4A188811680B1A0D485B
:1019A0000D4902880D485343B0F900200C48DB1361
:1019B0000B60D102B0F90020981891FBF0F20949B0
:1019C00009489B180A600360704700BF4A0D002059
:1019D000340D00204C0D0020700D0020600D002003
:1019E000580D0020540D0020680D0020000000005C
:1019F0003F4B10B518683F4AA0F57A6303FB03F12B
:101A00003D4C08133D491360B4F90020B1F9004082
:101A10003B494443B1F900105943C91201EBE42199
:101A200001EB820251008A1C9110364A1160364A3D
:101A3000B2F900205343354AB2F900205043001454
:101A400000EB63339A1C9010314B324A18601388B4
:101A500000F500405843304A304BC00B10601A6804
:101A600046F2A813511A4B432D4A002B136003DB97
:101A70005900B1FBF0F302E0B3FBF0F043001812A1
:101A8000404340F6DE325043264A27495A43001469
:101A900008601214254980180A6000F6CF6203EB33
:101AA0002210234B1860FFF7B9F82249FFF7BEF95F
:101AB000FEF7BCFC0AA3D3E900230AF077F802463C
:101AC0000B4600201C49FEF751FB07A3D3E9002376
:101AD000FEF700FDFEF798FF1849C86310BD00BF70
:101AE00000000020965BC83F0000000040A5E540D4
:101AF000680D0020780D0020460D00203C0D0020D0
:101B00004E0D0020740D0020800D0020480D002097
:101B10006C0D00205A0D0020500D0020400D0020BB
:101B20005C0D002043E3FFFF700D0020540D0020EA
:101B3000380D002080E6C5470000F03F701F0020F0
:101B40007FB50F2001F07EFEAA2116226B4677207A
:101B500001F08CF89DF800209DF80100344B3549C8
:101B60005A7018709DF803209DF802300A704B706F
:101B700031489DF804109DF80530417003709DF8C0
:101B800006209DF807102D482D4B427001709DF8DE
:101B900009209DF808001A7058702A499DF80A30EB
:101BA0009DF80B004B7008709DF80C209DF80D30CF
:101BB000254926484A700B709DF80F209DF80E109D
:101BC00002704170224B9DF8100058709DF8111062
:101BD0009DF8122019709DF813001E4B1E495A7073
:101BE00018709DF815209DF814300A704B702E2245
:101BF000F421772001F0FCF80A2001F023FEFFF722
:101C000097FE0A2001F01EFEFFF7A8FE0A2001F051
:101C100019FE1248124B0168124A196010681249E5
:101C20000860FFF7B7FEFFF7E3FE07B000BD00BF97
:101C3000460D00204E0D0020800D00205A0D002082
:101C40004C0D00204A0D0020480D00203C0D0020C6
:101C5000440D0020600D0020580D0020640D002070
:101C6000340D00207C0D0020400D002007B503211D
:101C700006221E206B4600F0F9FF134B9DF8002052
:101C80009DF801005A709DF8032018709DF802100D
:101C90001A71B3F9002059719DF804009DF80510E0
:101CA00012F5805FD87099700BD0B3F9020010F56F
:101CB000805F06D0B3F9043013F5805018BF0120BF
:101CC00000E000200EBD00BF840D00202DE9F3418F
:101CD000792200211E208DF8041001F089F83220AD
:101CE00001F0B0FD202201211E2001F081F8142016
:101CF00001F0A8FD394B00221A605A609A600A254B
:101D00001E200221012201F073F8142001F09AFD37
:101D10009DF80400C30706D41E200921012201AB4F
:101D200000F0A4FFF4E72E4EFFF7A0FFB6F9000085
:101D3000FEF774FF294C01462A48FFF777F821681F
:101D4000FEF7B8FE20608046B6F90200FEF766FF97
:101D500001462448FFF76AF86168FEF7ABFE606051
:101D60000746B6F90400FEF759FF01461E48FFF783
:101D70005DF8A168FEF79EFE013D15F0FF050646E1
:101D8000A060BDD140461949FFF750F820F000414E
:101D9000216038461549FFF749F8144920F00043FF
:101DA00030466360FFF742F820F000422946A26007
:101DB0001E20782201F01CF8142001F043FD0221BE
:101DC0002A461E2001F014F8142001F03BFDFFF715
:101DD0004DFF142001F036FDBDE8FC818C0D002084
:101DE000840D0020CD0C9E446726934400002041C2
:101DF00007B51B2108226B46682000F037FF0D4B0A
:101E00009DF800209DF801000B495A7018709DF84C
:101E100003209DF802309DF804004B700A70C870D2
:101E20009DF805309DF806209DF807008B704A71DB
:101E300008710EBDC80D0020F60D002070B5154BC1
:101E4000154CB3F90000154D00F54E501030FEF75B
:101E5000E5FE1349FEF7EAFF1249FEF72BFE124991
:101E600006460860616BFEF72DFF216CFEF722FE2F
:101E7000A16B28603046FEF725FF616CFEF71AFE65
:101E8000E16B68603046FEF71DFFA16CFEF712FEA5
:101E9000A86070BDC80D0020B01F0020CC0D002030
:101EA00000008C4300000C42C40D00202DE9F843D3
:101EB000274B002401221A704FF4FA652746A146E9
:101EC000DFF89C80234EFFF793FFFFF7B7FFB8F9C9
:101ED0000000FEF7A3FE3168FEF7EAFD0146484622
:101EE000FEF7E8FD8146B8F90200FEF797FE71683B
:101EF000FEF7DEFD01463846FEF7DCFD0746B8F981
:101F00000400FEF78BFEB168FEF7D2FD01462046C5
:101F1000FEF7D0FD013D0446ADB24FF47A7001F0FA
:101F200075FC002DCCD10C494846FEF77FFF0B4EC7
:101F3000094930603846FEF779FF0749706020464E
:101F4000FEF774FFB06002480570BDE8F88300BF7B
:101F5000D5090020CC0D00200000FA44E40D00203B
:101F6000F60D002008B53E218022682000F040FFD9
:101F70003E210022682000F03BFF16211822682035
:101F800000F036FF15210722682000F031FF1721ED
:101F90000022682000F02CFF642001F053FCBDE813
:101FA0000840FFF783BF00001FB53B210E226B46A0
:101FB000682000F05BFE174B9DF800209DF80100A3
:101FC0009DF802105A701870D9709DF803209DF882
:101FD00004009DF805109A70587119719DF806203B
:101FE0000D4B9DF807000D495A7018709DF8092097
:101FF0009DF808309DF80A004B700A70C8709DF873
:102000000B309DF80C209DF80D008B704A71087103
:1020100005B000BDDE0D0020C80D0020F60D00202B
:1020200070B5204B204CB3F90000FEF7F7FD1F49B7
:10203000FEF7FCFE1E49FEF73DFD1E490546086001
:10204000E169FEF73FFEA16AFEF734FD1A4E216AF0
:1020500030602846FEF736FEE16AFEF72BFD616A26
:1020600070602846FEF72EFE216BFEF723FD616BA4
:10207000B0602846FEF726FE216CFEF71BFD0F4ED2
:10208000A16B30602846FEF71DFE616CFEF712FD65
:10209000E16B70602846FEF715FEA16CFEF70AFDA5
:1020A000B06070BDC80D0020B01F00200000AA4322
:1020B00000000C42C40D0020C8090020CC0D0020F7
:1020C0002DE9F043002200238DB0CDE90023CDE9B6
:1020D0000223CDE90423CDE90623CDE90823CDE988
:1020E0000A236B4B01221A7041F28834694E6A4D03
:1020F000FFF75AFFFFF794FFB6F90000FEF78EFDD9
:102100002968FEF7D5FCFEF791F902460B46DDE99A
:102110000001FEF72DF8CDE90001B6F90200FEF747
:102120007DFD6968FEF7C4FCFEF780F902460B46A8
:10213000DDE90201FEF71CF8CDE90201B6F9040061
:10214000FEF76CFDA968FEF7B3FCFEF76FF90246D7
:102150000B46DDE90401FEF70BF8504F504ECDE978
:102160000401B7F90000FEF759FD3168FEF7A0FC45
:10217000FEF75CF902460B46DDE90601FDF7F8FFC4
:10218000CDE90601B7F90200FEF748FD7168FEF7D8
:102190008FFCFEF74BF902460B46DDE90801FDF71F
:1021A000E7FFCDE90801B7F90400FEF737FDB16894
:1021B000FEF77EFCFEF73AF902460B46DDE90A011E
:1021C000FDF7D6FF013CCDE90A01A4B24FF47A70C5
:1021D00001F01CFB002C89D1324D00A80719D7E96A
:1021E000000127A3D3E90023FEF79EFA26A3D3E933
:1021F0000023FEF76FF9C7E900010CA90A1952E99B
:1022000006011FA3D3E90023FEF78EFAFEF7FCFBBD
:102210000834182C45F8040FDFD1DDE9000102462F
:102220000B46FEF757F9DDE90289DDE9046704464C
:102230000D4642464B4640464946FEF74BF902469C
:102240000B4620462946FDF793FF324604460D46CD
:102250003B4630463946FEF73DF90B4602462946D5
:102260002046FDF785FF09F029FEFEF7CDFB0E4B5A
:1022700007491860002008700DB0BDE8F08300BF6A
:10228000000000000088B340000000E0EA9C533FDB
:10229000D5090020DE0D0020C8090020F60D002021
:1022A000CC0D0020E00D002000000020AFF30080E6
:1022B00008B56B218022682000F09AFD962001F07D
:1022C000C1FA6B210322682000F092FD6C210022EC
:1022D000682000F08DFD19210022682000F088FDA3
:1022E0000B4B1A2193F87420682000F081FD1C210B
:1022F0000822682000F07CFD1B210822682000F0E5
:1023000077FD642001F09EFABDE80840FFF7D8BED3
:10231000B01F002007B50021032201AB772000F099
:10232000A5FC084B9DF804209DF805009DF80610BB
:102330009A70587019707720FF21482200F058FDDC
:102340000EBD00BFBC0D002007B50021032201AB6C
:10235000772000F08BFC084B9DF804209DF80500C9
:102360009DF806109A70587019707720FF21582236
:1023700000F03EFD0EBD00BFA00D0020094B0A4934
:102380001A880B68094910021A1A09480B8802605A
:1023900082FB0323D20D42EA4320064B00F5FA618B
:1023A00019607047AC0D0020A80D0020980D00208A
:1023B0009C0D0020B00D00202DE9F8434849494B01
:1023C0000E681888484A86FB00011488C50945EA4A
:1023D0004160CB114FEA04484449454C0A8825889E
:1023E00018EB00084FF0000949EB0309E80386FBEE
:1023F0000245230A43EA05622C123E4D0021D5F81E
:1024000000E0801841EB0401BEF5FA6F31DA764343
:102410004FEAE67CAEF5FA667643F3179A00B4000D
:10242000A41942EA967545EB0305A3086F104FEA1D
:10243000340643EA8572AB102F4DAE450EDA0EF22C
:10244000DC5464430725C5FB04670B2584FB054565
:102450006D104FEA3404121943EB0503254CCCEB05
:102460000E052560B8EB060869EB0709801A61EBD9
:102470000301224A1368A3FB004503FB0155610DCC
:1024800041EAC5226B15B2EB080863EB09094FEA74
:10249000D83040EA4940FEF7C1FB1949FEF7C6FCB7
:1024A000FDF7C4FF0AA3D3E9002309F07FFB02462E
:1024B0000B4600201349FDF759FE07A3D3E900237B
:1024C000FEF708F8FEF7A0FA0F4AD063BDE8F883DC
:1024D000000000C0955BC83F0000000040A5E5403B
:1024E0009C0D00209A0D0020A40D0020C00D00209E
:1024F000B80D0020B00D002024FAFFFFB40D00201D
:1025000080E6C5470000F03F701F0020AFF3008059
:1025100007B5FF211E22772000F06AFC0A2001F097
:1025200091F9A221022201AB772000F09FFB9DF8D8
:1025300004209DF80500314BA4215A701870022226
:1025400001AB772000F092FB9DF804309DF8052048
:102550002B4977204B700A7001ABA621022200F0B4
:1025600085FB9DF804109DF8053026480222417035
:102570000370A82101AB772000F078FB9DF80420C0
:102580009DF80510204801AB427001700222AA217B
:10259000772000F06BFB9DF804009DF805201B4B95
:1025A000AC2158701A707720022201AB00F05EFB5C
:1025B0009DF804309DF80500154958224B700870AD
:1025C000FF21772000F014FC0A2001F03BF9FFF70F
:1025D000A1FE0A2001F036F9FFF7B6FE0A2001F04D
:1025E00031F90C4A0C4B11680C48196002680C490F
:1025F0000A60FFF7C3FEFFF7DFFE0EBDB80D002037
:10260000A40D0020C00D00209A0D0020AC0D00206C
:10261000980D0020A00D0020B40D0020BC0D00205E
:10262000A80D0020F0B593B00025102301A90227C2
:102630003948ADF804308DF806708DF8075008F071
:1026400009FD364808F0C6FB354836490790089121
:1026500020204FF4005104244FF4806380224FF473
:1026600080760F9010912D4807A90E930C920D962D
:1026700009950A940B95119508F024FC012127482F
:1026800008F040FC4FF4004008F04CFE01264FF4E7
:102690006022254802A9049202958DF80C608DF8FD
:1026A0000D6005958DF8184008F0F6FA1E48214691
:1026B0003246052308F041FB1B4821463A460523D4
:1026C00008F03BFB184821460322052308F035FBA0
:1026D000224605231448214608F02FFB12483146B4
:1026E00008F007FB1048314608F0FAFA0E4808F0E7
:1026F00009FB0D4808F00BFB0028FAD10A4808F046
:102700000AFB094808F00CFB0028FAD10648012111
:1027100008F00AFB13B0F0BD0008014008000240B9
:102720004C240140D80900200024014008B5084B82
:1027300058881A8881189888DB880A18D11888B2B6
:10274000FEF768FA4FF07A51FEF7BCFA08BD00BFF9
:10275000D8090020884206D250F8042B92FAA2F23F
:10276000014B1A60F6E770470030024070B506462C
:102770000D4640200121094C08F024FE0123A360EE
:1027800000BF00BF00BF00BF30462946FFF7E2FF91
:10279000206890FAA0F1C84370BD00BF003002402D
:1027A000F7B5144F0121144808F0B2FC134C032371
:1027B0004FF480561025384601A98DF80630ADF843
:1027C00004608DF8075008F045FC1820ADF80400AF
:1027D00001A9204608F03EFC3846314608F090FC3E
:1027E0002046082108F08CFC2046294608F088FC89
:1027F000FEBD00BF0008014000023000000C014097
:102800002DE9F74F974CA38A98B210F0010237D008
:10281000208820F400610B041A0C2280204601213C
:1028200008F05EFD904B91491A7800200870CAB1FB
:102830008F48017819B98F4B1A78FF2A12D10122DB
:1028400002708D480178022905D1864B1A8890B212
:1028500040F400611980894B82481978012208F000
:1028600059FD38E18548002201787E4808F052FD84
:1028700080490B78FF2B00F02E81FF207B4BEFE08F
:1028800000F00201C9B200294DD0BFF35F8F7A4D2D
:102890002E78012E35461AD1734B1978B9B1744888
:1028A0000378A3B12046114608F01AFDBFF35F8FED
:1028B000218B2046CBB231468DF8073008F004FD5D
:1028C0006F4A204616704FF48061324618E0654C1E
:1028D000228BD1B28DF80710BFF35F8F6648037863
:1028E000022B10D1604A117869B1614B1A7852B14C
:1028F0002046002108F0F4FC20464FF480610022BD
:1029000008F0FAFCE7E00078032807D156490B7875
:1029100023B1574A107808B15248EEE751484FF4B6
:1029200080610122ECE700F00406F6B2002E72D0BE
:102930004D4BDFF84C811A78012688F800604C482E
:10294000002A4ED00378002B4BD04B4D20462F78D9
:10295000464D022F4B4F29D908F0C2FC204695F86E
:102960000090D7F800A008F0D2FC4FFA89FB0AF8D3
:102970000B0009EB060031462870204608F0A4FC45
:10298000204688F800603F6895F8008008F0BFFC9A
:102990004FFA88F907F80900B04420464FF48061E7
:1029A000324685F8008008F0A7FC2CE0314608F09C
:1029B0008BFC20462E78D7F8008008F0A8FC4FFA50
:1029C00086F9721C08F80900D1B220464FFA81F846
:1029D0003F68297008F09BFC033607F808002E704A
:1029E00011E0027801211F4812B9274B1A782AB149
:1029F00008F06AFC1D480378591C03E008F058FCF5
:102A00001B4801210170174B1A8802F4807188B2AB
:102A10000028F8D15FE010F04001144D36D0194B7A
:102A200020462F78D3F8008008F071FC7A1CD1B2D0
:102A30004FFA87F92970104D08F8090028784FB22D
:102A40000337B84205D120464FF48061324608F082
:102A500053FC064B28781A7851B288423BD1501C5F
:102A6000187038E000580040E0090020EE0900200E
:102A7000E1090020E3090020E4090020F609002014
:102A8000F4090020E8090020E2090020030622D50D
:102A90002B785AB2501C0ED01B49013308682B709A
:102AA000815C204608F031FC184A95F90000117845
:102AB000814210D130E7164829700178204608F08D
:102AC00024FC14490B78002B7FF426AF0F4A1078B2
:102AD00000283FF421AF0D4A0F49107891F90020EA
:102AE000431C9A420DD10D490D480B78002202700B
:102AF00023B10C484FF4407108F0FEFB0A48002255
:102B00000270BDE8FE8F00BFF0090020E40900203C
:102B1000E3090020E0090020EE090020F40900206C
:102B2000E109002000580040F509002030B51420CC
:102B300087B04FF4406403238DF8070001A948488B
:102B4000ADF804408DF8063008F084FA2146444878
:102B500008F0D6FA082442484FF4806108F0CAFA17
:102B600018B9032000F052FEF5E74FF480613C48AD
:102B700008F0C8FA032000F049FE4FF4806138489D
:102B800008F0BEFA032000F041FE611E11F0FF04C0
:102B9000E1D14FF40061324808F0B4FA032000F0AC
:102BA00035FE4FF480612E4808F0ACFA032000F0A7
:102BB0002DFE4FF480612A4808F0A2FA032000F0AD
:102BC00025FE4FF40061264808F09AFA032000F031
:102BD0001DFE03251C234FF4406201A920488DF8F7
:102BE0000730ADF804208DF8065008F033FA1D4880
:102BF00008F0C0FA02A808F041FB224619484FF439
:102C0000407108F079FB184A4BF6FF704FF4804191
:102C1000ADF80E00ADF81410124802A90292ADF8FA
:102C20000C4008F0C1FA01210E4808F035FB0120E4
:102C300022238DF8030068468DF800308DF801409E
:102C40008DF8024007F0F4FF2121684625468DF8F3
:102C500000108DF8014007F0EBFF07B030BD00BF5A
:102C6000000C014000580040801A060010B54000DA
:102C7000214CC0B220702148017021490020087009
:102C80002048012101702048036020480360204B48
:102C90001A70204A11702049888800F400739AB293
:102CA000A2B9098801F4807083B24BB91A4802882E
:102CB00002F400718BB2002BF8D1012108F0F8FA70
:102CC00015484FF44071012208F016FB47F23051CD
:102CD0001048027812B10139FAD100E049B90F4B1E
:102CE0001888421C91B20C481980FFF71FFF002082
:102CF00010BD012010BD00BFF6090020E30900202F
:102D0000E2090020E0090020E8090020F009002085
:102D1000E4090020F509002000580040EC090020DB
:102D200030B54000284CC5B228482570284D294CA4
:102D3000017001210020297085B02070264C0DEB18
:102D400000052560254C102A2560254C2270254C55
:102D5000217036D8C1B2914204D2195C0DF800102E
:102D60000130F7E7204B9A8802F4007081B2A1B9D4
:102D70001B8803F4807290B248B91B48018801F4A3
:102D800000739AB2002AF8D1012108F091FA16488E
:102D90004FF44071012208F0AFFA47F23053114866
:102DA000017811B1013BFAD100E04BB90F4802881C
:102DB000511C8BB203800C48FFF7B8FE002000E0E6
:102DC000012005B030BD00BFF6090020E309002056
:102DD000E2090020E0090020F0090020E8090020B5
:102DE000E4090020F509002000580040EC0900200B
:102DF00007B502AB03F8012D0122FFF791FF0EBDCD
:102E000037B5244CA38A98B20090009B009911F426
:102E1000E06F33D0228B204693B24FF480610022C2
:102E2000019308F069FA0098820527D4218801F4FB
:102E3000007293B213BB258805F4807085B29DB1F2
:102E40001448018801F4807293B2002BF8D101215B
:102E500008F03AFA0F48018801F4007293B2002B8F
:102E6000F8D1FFF763FE09E02046012108F02CFAB3
:102E700020464FF440712A4608F03EFA0548818A00
:102E800021F470621304190C034A8182002010702F
:102E90003EBD00BF00580040F509002070B500207D
:102EA00088B02A4A431C40F6B83122F81010D8B234
:102EB0000728F6D9264C28210125032220708DF8F9
:102EC00003102448694600248DF80220ADF8005014
:102ED00008F0C0F81C2301A88DF804308DF80540D7
:102EE0008DF806508DF8075007F0A2FE23204FF60C
:102EF000FF72ADF8140005A94FF08040ADF818201E
:102F0000ADF81640ADF81A408DF81C4008F002FBF1
:102F100002A94FF08040ADF80840ADF80A40ADF886
:102F20000C50ADF80E40ADF8104008F08FFC0221B7
:102F30004FF080402A4608F04FFC4FF08040294671
:102F40002E4608F02FFC08B070BD00BFFE0D00201B
:102F5000FC0D002000080140014B33F810007047C1
:102F6000FE0D0020F0B5182089B003214FF4106346
:102F70008DF803008DF802103A4869463A4DADF8D5
:102F8000003008F067F84FF4707238486946ADF8C1
:102F90000020374E08F05EF8B5F89240232096FBEB
:102FA000F4F77B1E0024ADF8040001A93148ADF808
:102FB0000830ADF80A40ADF806408DF80C4008F036
:102FC000A9FA02204FF4807170224FF4FA630127AE
:102FD000ADF81800ADF81C10264804A9ADF8102073
:102FE000ADF81630ADF81270ADF81440ADF81A40D7
:102FF000ADF81E4008F0D8FA1E4804A908F018FBE6
:103000001C4804A908F058FB1A4804A908F096FBCC
:103010001848394608F0C6FB95F8AC2062B9B5F8F7
:10302000B430D5F8BC0096FBF3F6013EADF808606D
:10303000FEF734F8ADF8160001A90F4808F06AFA57
:1030400004A90D4808F0B0FA04A90B4808F076FB73
:103050000121094808F0B2FB0748012108F0A2FB52
:1030600009B0F0BD00080140B01F0020000C014075
:1030700080841E0000080040002C0140024B53F8E1
:1030800020000180704700BF24400108024B53F824
:1030900020000180704700BF3C40010838B5234B39
:1030A0004FF0804093F88810012908D108F06DFC9A
:1030B0001F484278002A37D0511E417038BD022186
:1030C00008F067FC012804460AD11A4D1A482A88DC
:1030D00002804FF0804008F055FC184928800C70A1
:1030E00002214FF0804008F05FFC124B12481A8812
:1030F0000188531A9BB241F218529342104A02D9E6
:103100000023137038BDA3F2DD5080B240F6B63113
:10311000884205D81278072A9CBF0A4921F8123044
:10312000074B1878411C197038BD00BFB01F002034
:1031300004000020F8090020FA090020FD09002001
:10314000FC090020FE0D002048F20100002105F0DE
:103150004BBB48F20300002105F046BBF0B5284BFD
:1031600028491878284A0726284C464328480D78CD
:1031700011880022237804781046B04228DA2549C5
:1031800001EB4003998915B1012D1DD109E0C1F36F
:1031900083230B2B02D90F2B12D116E04FEA815C4F
:1031A00005E0C1F3C3230B2BF5D84FEA415C4FEA8E
:1031B0005C5707F5FA6C184F013227F813C0D2B2EA
:1031C0009C4238BF1C4600E00F230130C0B2D4E758
:1031D0000D4D944229800D490B70104B0C491A700B
:1031E0000F4B0C7018700F4807DA0F4B012101705C
:1031F0001868BDE8F04007F005BD00220270F0BD80
:10320000010A0020FE090020180E00203E0E0020BA
:10321000020A002004000020220E0020200E0020C0
:10322000FC0D0020FD090020100E0020024B0022A2
:103230009A72FFF793BF00BF0400002038B50C4618
:1032400049782378D1F1010138BF0021012B0D46C7
:1032500002D0A37883B941B9002046212070617063
:10326000A070E0702071A07138BD02B10002208111
:103270000123A370032321E019B101222270462308
:103280001CE0012B11D12E4B32B1218942182D485F
:1032900022810178197006E02B4AC0F3001100F07A
:1032A0000300117018700223E3E7022B08D1E278C3
:1032B00060710AB9C109A1710323A370637038BD9D
:1032C000032B10D102256370A172E378A179A57058
:1032D000072505FB0131657904EB410140EA052032
:1032E00001338881E370E17806291ED92079431CD7
:1032F0001348D9B203782171994203D101210020EA
:10330000A17220713AB91049104A08780D4910701D
:103310000B700F4A00E00F4A106807F073FC00239F
:103320004620A370E370A37160700B4A917A11B9C3
:103330000A4B987A18B1BDE83840FFF777BF38BD1F
:10334000000A0020010A0020FF090020FE090020D9
:10335000140E00201C0E0020040000202C00002071
:10336000134A08B5938903F0800081B251B11388E4
:1033700003F0800081B229B1938923F08000010419
:103380000B0C938192890A4802F020018BB26BB139
:10339000028802F020018BB243B108F090FB05498E
:1033A000C0B20022BDE80840FFF748BF08BD00BF1B
:1033B0000044004004000020134A08B5938903F03C
:1033C000800081B251B1138803F0800081B229B12D
:1033D000938923F0800001040B0C938192890A48A1
:1033E00002F020018BB26BB1028802F020018BB297
:1033F00043B108F064FB0549C0B20122BDE80840B2
:10340000FFF71CBF08BD00BF003801402C000020A2
:1034100070B53E488AB001243D4B00251C21022690
:10342000047002A81C708DF808108DF809608DF8E2
:103430000A508DF80B4007F0FBFB10204723632256
:10344000ADF80E0003A94FF08040ADF80C30ADF898
:103450001020ADF812508DF8145008F05BF8224699
:1034600021464FF0804008F0B7F921464FF08040E8
:1034700008F08BFA21464FF0804008F093F926219E
:103480008DF8096002A808268DF808108DF80A50FA
:103490008DF80B4007F0CCFBADF804600426032246
:1034A0000DEB06011B488DF806208DF8076007F02C
:1034B000D1FDADF81C50ADF81E50ADF82050ADF860
:1034C0002450154D4FF4E133284606A90693ADF874
:1034D000226008F06DFA2246284640F2255108F095
:1034E000CBFA2846214608F0BBFA23464FF47A71FE
:1034F0000A4A0B4807F040FB4FF47A71094A234609
:10350000094807F039FB0AB070BD00BF2C0000204D
:103510000400002000080140004400404931000838
:10352000140E002053310008100E0020014B33F818
:1035300010007047220E002037B5482301240325D0
:103540001B4801A98DF80730ADF804408DF80650EE
:1035500007F080FD1648214607F0CCFDA04225D09B
:10356000102008248DF8070001A91148ADF8044087
:103570008DF8065007F06EFD21460D4807F0C0FD9E
:103580003C2000F05FF905240821094807F0BAFD46
:10359000782000F03BF90821054807F0B1FD7820BC
:1035A00000F034F9611E11F0FF04EDD13EBD00BF03
:1035B0000008014010B50A4A52E8003F09490A488C
:1035C0000C68006842E800310029F4D1074A201A4B
:1035D0001168B0FBF1F24FF47A7101FB032010BDCA
:1035E000080A0020041000E0140A0020100A00203D
:1035F000F8B55F4B5F481A685F4902600B685A1C58
:103600000A6007F0D9FA5D480278012A40F0AF80DD
:103610005B490B78002B40F0AA805A4801780029BA
:1036200040F0A580584B1878002840F0A0805749FA
:103630000B78002B40F09B8055480178002940F022
:103640009680544D2B88581C81B2B1F57A7F94BF77
:1036500029802A80FFF7AEFF4F4B05461A681D6090
:103660004C4B801A1A884D49D30708601DD44C4B27
:1036700001205A784B498242087002D1FEF794FC2F
:1036800003E0FEF799F8FEF7B3FB474B47485A882B
:10369000198842809B88464A01808380118845486A
:1036A000538892880180438082803A480A230288A6
:1036B000B2FBF3F103FB112082B2DAB9384F3E4C72
:1036C0000126BF7826703D4CB742237809D11BB93B
:1036D000FEF720FE27700DE0FEF736FE3848077033
:1036E00008E01BB9FEF724F9267003E0FEF736F96F
:1036F00033490E70274A14201388B3FBF0F100FB06
:10370000113290B210B92F4A012111700133642097
:1037100093FBF0F100FB11321AB9FEF7A7FA2A4B1E
:1037200018701C4864220388B3FBF2F102FB1130CD
:1037300082B212B9254801210170C822B3FBF2F10F
:1037400002FB113082B212B92148012101704FF4FD
:103750007A72B3FBF2F102FB113398B210B91D4932
:1037600001220A70FFF726FF1B4B401B1860F8BDB3
:10377000041000E0140A0020080A0020030A0020B8
:103780002D0A0020D60900202E0A00202F0A002032
:10379000D50900201A0A0020740E0020500E0020C7
:1037A000B01F0020040A0020DE0D0020F00D0020D4
:1037B000F60D0020D80D00200D0A0020D4090020AD
:1037C000D7090020060A0020C5090020190A002098
:1037D000180A00200C0A0020400E0020014B186837
:1037E000704700BF080A002008B5074B596A11F05E
:1037F000E05F0CBF4FF480400120090E04F0F4FF9D
:10380000BDE8084007F00EBE0010024010B50B4B9B
:103810001A680023094909688A1AD318084A1468E3
:10382000B3FBF4F4844207D21268001BB3FBF2F43A
:1038300002FB14330A46EDE710BD00BF041000E0A0
:10384000100A002010B504462CB14FF47A70FFF72F
:10385000DDFF013CF8E710BD30B587B001A807F0E7
:103860006BFD019B8A4A8B49B3FBF2F08A4C0860DE
:10387000E5688A4B45F08072E2601868884C40F039
:103880000101196025684FF47A72B5FBF2F3581EF6
:10389000B0F1807F09D2834C834DF02100220723B1
:1038A000606085F82310A260236001214FF400704E
:1038B00007F094FD0120014607F084FD022001215C
:1038C00007F080FD0420012107F088FD0820012178
:1038D00007F084FD1020012107F080FD0120014642
:1038E00007F07CFD01214FF4800007F083FD0121EA
:1038F0004FF4006007F072FD0120014607F07AFDE9
:103900000220012107F076FD0420012107F072FD5D
:1039100001214FF4804007F061FD01214FF4003098
:1039200007F068FD002004F05BFD04F0A1FC5F4897
:1039300090F88840012C01D1FFF7FEFDFFF754FFFE
:103940004FF4A06007F06AF9594D06F07DF8594927
:10395000594C2960594A5A485A49226008605A4AC3
:103960005A485B4D5B4B5C4910604FF4E1300B6093
:103970002B6000F031F9FEF713FFFEF753FE08212C
:10398000564807F0BFFB42F21070FFF75BFF2B6851
:10399000534898472A6853485349904753482468E6
:1039A000016811F4003F14BF51485248A04701A8D4
:1039B00007F0C2FC364C059A2B68B2FBF4F14E4876
:1039C000984702992B68B1FBF4F14C489847039B48
:1039D0002A68B3FBF4F14A48904704992A68B1FB7E
:1039E000F4F148489047019A2B68B2FBF4F146483D
:1039F00098472E48304944780B68012C04460CBF88
:103A0000424843489847A2782B48012A04680CBFD3
:103A100040484148A0472549274B91F888201C6819
:103A20000AB93E4800E03E48A04742F21070FFF756
:103A300009FF1021294807F065FB04F03DFA1B48F7
:103A400090F888100446012902D1FFF7E1FC01E05B
:103A5000FFF724FA3348FFF769F804F049FF06F04E
:103A600039FA6278012A02D1FEF722FC03E0FDF761
:103A700041FFFEF777FAFEF729F90C4B98780128F9
:103A800002D1FEF745FD01E0FEF75AF807B030BD60
:103A900040420F00100A0020F0ED00E0001000E0AE
:103AA0001401002010E000E000ED00E0B01F002055
:103AB000A81E0020193D00089C1E0020753D00082E
:103AC000353D0008A41E002060240020053E0008AB
:103AD000A01E0020873D0008681F0020000C014048
:103AE0004C4001089D400108D740010800100240E9
:103AF000DB400108FF4001082A4101083D4101085F
:103B00004F4101086141010873410108B661010894
:103B10002B62010885640108996401088641010847
:103B20009F4101080058004010B1034A034B1A603E
:103B300003480449C8607047EFBEADDEF04F002077
:103B40000400FA0500ED00E010B5144B18780128C8
:103B500022D0134A134B1068196888421CD01C6885
:103B6000114812492418CC6014681868844205D999
:103B700014681868201A4860116804E01A68C2F5D1
:103B800000604860002119600848044B0121197049
:103B9000BDE8104007F0B6B910BD00BF240A0020F0
:103BA0001C0A0020280A00209C1600204400024025
:103BB00008B54FF4005007F0BBF90548002107F0A5
:103BC000A1F9044B00221A70BDE80840FFF7BCBF02
:103BD00044000240240A00202DE9F043474C93B0F2
:103BE0000646182103204FF400738DF806008DF867
:103BF0000710204601A9ADF80430482507F02AFA3D
:103C00004FF4806201A92046ADF804208DF80750DA
:103C10000E2707F01FFA012502A88DF808708DF80D
:103C200009508DF80A508DF80B5007F001F80396F3
:103C3000334E0C23334F00240DEB03013046ADF817
:103C40001630ADF81040ADF81240ADF81440ADF8A4
:103C5000184007F0ADFE384607F0BCF82A49DFF8F7
:103C6000B4904FF4805020234FF080084FF400624E
:103C700010900891384607A90F930A921194CDF835
:103C80001C9009940B940D94CDF830800E9407F09D
:103C900019F93846294607F035F92A4640213046B9
:103CA00007F004FF384607F040F91849143F086050
:103CB000384607F08FF81020099007A93846CDF84C
:103CC0001C900B940D94CDF830800E940F9407F057
:103CD000F9F8384602212A4607F01FF930464146D6
:103CE0002A467C6007F0E2FE3046294607F0B8FE1F
:103CF000074804F095FD13B0BDE8F08300080140CB
:103D000000380140580002409C0E0020200A00208C
:103D1000B13D00080438014008B5044807F005F932
:103D2000034B1968401A18BF012008BD5800024013
:103D3000200A0020054B06481A68C2F50061013AC6
:103D400008BF4FF40062405C1A607047200A0020F0
:103D50009C0E0020054B06491A6888541868421CBE
:103D60005105480D1860FFF7EFBE00BF1C0A002088
:103D70009C16002010B5441E14F8010F10B1FFF777
:103D8000E9FFF9E710BD0FB400B5C3B044AB53F879
:103D9000042B02A84FF4807101930BF021FC02A8C0
:103DA000FFF7E8FF43B05DF804EB04B07047000094
:103DB000F0B585B004AB03E90300BDF80C603046F4
:103DC00004F07CFD07460298FCF724FFFCF72EFB6D
:103DD00000220A4BFCF7A8FC044630460D4604F0CE
:103DE00075FD0090BDF80E0039460190224604484A
:103DF0002B46FFF7C8FF05B0F0BD00BF00408F4065
:103E0000C741010870B500239AB28A420BD2084A12
:103E1000C65C1468074D01332E55146801346405DF
:103E2000640D1460F0E7BDE87040FFF78DBE00BF81
:103E30001C0A00209C160020F8B5002506460F46F7
:103E40002C460F4B1868804728B90A200135FFF728
:103E5000F9FCEDB206E00B4900250A6890473055A1
:103E60000134E4B224B1331913F8010C3B2803D018
:103E7000042D01D8BC42E4D3002131553046F8BDB1
:103E8000A81E0020A41E002030B5002585B001A882
:103E90002946092200950BF063FA2C46174B186847
:103EA000804730B90A20FFF7CDFC681CC5B2C4B109
:103EB0000DE0134904AD0A6890472B19013414F042
:103EC000FF0403F8100C01D12546E7E7002504A9FB
:103ED0000A1912F8113C3B2B05D0042D03D80B2CEA
:103EE00000E0042DDAD904A804190021684604F87A
:103EF000101C06F011FD05B030BD00BFA81E00204B
:103F0000A41E002038B5104B282505FB0035FFF70F
:103F1000BBFF6860FFF7B8FFA860FFF7B5FFE86078
:103F2000FFF7B2FF2861FFF7AFFFA86100206861CB
:103F3000E86128626862FFF7A7FFFDF7AFF82C1D64
:103F400085F8280038BD00BFC02000202DE9F04FC3
:103F50009A4D91B000230E938DF83C30286880472D
:103F6000002839D096490C78002C35D1954A136831
:103F70009847954908700A78232A2DD12868002887
:103F800000F0B58505210EA8FFF756FF9DF83830E3
:103F9000232B21D19DF8391023291DD19DF83A20DA
:103FA000232A19D19DF83B30232B15D1874B93F849
:103FB00070222AB9012183F87012A3F86E2201E061
:103FC00083F870429DF83C30572B05D18048026839
:103FD0008048904704F09AF9794B7C4A0021197087
:103FE00092F87012002940F08385774C2378232BB8
:103FF00000F07E8522783F3A3B2A00F27985DFE89F
:1040000012F0E304770532043904400449045004F3
:104010005704770577056004770577056904770508
:1040200072047504780477057B04840488048B0487
:104030008E049F04A604AB04AB04770577057705CF
:104040007705770577053C00F7009C01D401120243
:1040500027023E0275028C02A702B402D302E902D3
:104060007705EB02F502A6040C033F037603DB039E
:10407000F7037705A8041C041F04DFF850A1564E6F
:10408000DAF81401FCF7D2F90546DAF818013768B6
:104090000B950A91FCF7CAF90446DAF81C010D46A3
:1040A000FCF7C4F98046DAF820018946FCF7BEF92E
:1040B000CDE90C01DAF82801FCF7B8F9DFF828B1EE
:1040C0009AF83821DFF824C10A9B002A18BFDC4681
:1040D000CDF820C00B9ACDE90289CDE90601CDE9E2
:1040E0000045DDE90C453D48CDE90445B847DAF81F
:1040F0003C01FCF79BF90546DAF8400137680B955F
:104100000A91FCF793F90446DAF844010D46FCF7EE
:104110008DF98046DAF848018946FCF787F9CDE940
:104120000C01DAF85001FCF781F99AF86021DFF808
:10413000BCC00A9B002A18BFDC46CDF820C00B9AF1
:10414000CDE90289CDE90601CDE90045DDE90C455F
:104150002348CDE90445B84730680C90DAF864018B
:10416000FCF764F90646DAF868010B960A91FCF749
:104170005DF98046DAF86C018946FCF757F9064686
:10418000DAF870010F46FCF751F90446DAF87801C5
:104190000D46FCF74BF99AF88831DFF850C0CDE9AD
:1041A0000601002B18BFDC46CDE90089CDE9026786
:1041B000CDE90445CDF820C00A48B9E0A81E00208A
:1041C0002C0A0020A41E002054000020B01F002054
:1041D0009C1E0020F8410108A01E00201842010882
:1041E0005042010887420108E0410108E641010808
:1041F000DFF8ECA2A34EDAF88C01FCF717F90546BC
:10420000DAF8900137680B950A91FCF70FF904462C
:10421000DAF894010D46FCF709F98046DAF89801BE
:104220008946FCF703F9CDE90C01DAF8A001FCF7A7
:10423000FDF8DFF8B0B29AF8B021DFF8ACC20A9B03
:10424000002A18BFDC46CDF820C00B9ACDE90289C0
:10425000CDE90601CDE90045DDE90C458A48CDE907
:104260000445B847DAF8B401FCF7E0F80546DAF897
:10427000B80137680B950A91FCF7D8F80446DAF8CC
:10428000BC010D46FCF7D2F88046DAF8C001894639
:10429000FCF7CCF8CDE90C01DAF8C801FCF7C6F858
:1042A0009AF8D831DFF840C2CDE90045002B18BF9D
:1042B000DC46CDF820C0DDE90C23CDE90289CDE94B
:1042C0000423CDE906010A9B0B9A7048B847306871
:1042D0000C90DAF8DC01FCF7A9F80646DAF8E00100
:1042E0000B960A91FCF7A2F88046DAF8E4018946B9
:1042F000FCF79CF80646DAF8E8010F46FCF796F85A
:104300000446DAF8F0010D46FCF790F89AF800320E
:10431000DFF8D4C1CDE90089CDE90267CDE90445D4
:10432000002B18BFDC46CDE906015948CDF820C066
:104330000B9A0A9B0C9CA04771E0DFF8A4A1514C9A
:10434000DAF80402FCF772F80246DAF80802D4F848
:1043500000B00B920A91FCF769F88046DAF80C027B
:104360008946FCF763F80646DAF810020F46FCF7B8
:104370005DF80446DAF818020D46FCF757F89AF88B
:1043800028A2DFF860C1DFF860E1CDE90601BAF1EB
:10439000000F18BFE646CDE90089CDE90267CDE9F7
:1043A0000445CDF820E03B4836E0DFF834A1354E37
:1043B000DAF82C02FCF73AF80746DAF83002D6F8B9
:1043C00000B00B970A91FCF731F88046DAF8340216
:1043D0008946FCF72BF80646DAF838020F46FCF758
:1043E00025F80446DAF840020D46FCF71FF89AF863
:1043F00050A2DFF8F0C0DFF8F0E0CDE90089CDE9A8
:104400000267CDE90445BAF1000F18BFE646CDE9D1
:1044100006012148CDF820E00B9A0A9BD847782264
:104420001E48027095E21E4C1E4A20681E4B0090EA
:1044300011681E4801911C681249029402681C4BC5
:1044400003921C4A0C681C48196812681B4B13E045
:104450001B4C1C4B20681C4900901A681B48019299
:104460000C68084A0294036819490393194B1468AD
:1044700011481A680968184B1B68A04769E2174E73
:1044800035E000BFA01E0020BE420108FA4201082C
:104490003543010870430108A3430108540000207C
:1044A000880E0020980E0020680E0020440E002088
:1044B000500E00206C0E0020D3430108600E002037
:1044C0008C0E0020580E0020480E0020780E002090
:1044D000400E0020700E00205C0E0020701F002097
:1044E000B01F0020E0410108E64101088B4E306812
:1044F000FBF79CFF044670680D46FBF797FFCDE97C
:104500000001B068FBF792FFCDE90201844A8548BB
:1045100011682B46224688471BE2834E8349706A06
:10452000FCF7D0FBFBF782FF04460D46B06A7F49DB
:10453000FCF7C8FBFBF77AFFCDE900017B49F06A85
:10454000FCF7C0FBFBF772FF794BCDE902011FE0DE
:10455000754E306BFBF76AFF0446706B0D46FBF738
:1045600065FFCDE90001B06BCCE76C4DA868FBF7A7
:104570005DFF6D4A0446D06B0D46FBF757FFCDE952
:1045800000016C480068FBF751FFCDE902016A4B5E
:104590001868FBF74BFFCDE90401614967480968DA
:1045A00022462B468847D4E15F4E6049B069FCF74C
:1045B00089FBFBF73BFF04460D46F0695B49FCF7BE
:1045C00081FBFBF733FFCDE900015849306AFCF766
:1045D00079FB97E75A4E8AE75A4B1868FBF726FF94
:1045E0000B464F4902460968574895E05748C48929
:1045F0000189827A83890094048A0194448A02940E
:10460000848A0394C48A0494048B0594408B444C9C
:10461000069024684E48A0479BE14E4D4E4B2978AA
:1046200011B91A684D4803E0012902D11A684C48B3
:1046300090474C4C2578484C012D21680CBF4A48C6
:104640004A4888474A48236898474A484249027876
:10465000042A00F27E81DFE802F00306090C0F0055
:104660000A6845480AE00A68444807E00A6844487E
:1046700004E00A68434801E00A684348904768E15B
:10468000424890F88820012A1CD1414B1978A9B1E1
:1046900000243F4B224819783E4B4A1E944207DAC9
:1046A000026833F914103C4801349047E4B2F0E753
:1046B000046833F912103948A0474AE126480268D5
:1046C0003748DBE70024164D20462E68FEF744FCF1
:1046D00001340146E4B23348B047072CF3D12046F9
:1046E0002D68FEF739FC01462F48A84731E1002428
:1046F0002E4E0B4DA059FBF799FE043402460B4693
:104700002B48296888471C2CF2D1F069FBF78EFEF4
:1047100002460B462748296888471AE1840A002088
:10472000A01E002022630108701F0020E02E6542B9
:10473000C40D00207C0B00206C240020FD430108E8
:10474000241F0020FC1E00205263010804000020EA
:10475000194401083C0B00209C1E00205544010810
:104760006E440108410B002087440108A34401085E
:10477000BF4401083D0B0020CB440108EA44010876
:104780000C4501082745010849450108B01F0020D4
:10479000020A0020220E00206B450108825D0108FC
:1047A000724501089B450108A1450108BC00002095
:1047B000A6450108AE450108694E6A4F6A4D6B4C2B
:1047C00031783B686A4800290CBF29462146984742
:1047D00073783A686648002B0CBF294621469047FB
:1047E000B1783A68634800290CBF2946214622E087
:1047F000614D5C4CB5F840102368604889B2984719
:10480000AA8F236891B25D489847298F22685B4838
:1048100089B29047A98E2368584889B205F5923528
:104820009847B5F84020554891B223689847A98E1B
:104830002268534889B290478BE001F093FF8BE0E8
:10484000484D2E68FDF772FFFBF7F0FD04464D481A
:104850000D460068FBF7EAFD2246CDE900012B4634
:104860004948B04744E10020FFF74CFB474B48481C
:104870001A680CE00120FFF745FB444945480A68E7
:1048800005E00220FFF73EFB40480268424890479F
:104890006122C5E50320FFF735FB3C4B3F481A6812
:1048A0000CE00420FFF72EFB38493D480A6805E07C
:1048B0000520FFF727FB354802683A4890476222F7
:1048C000AEE50620FFF71EFB304937480B689847D6
:1048D0006322A5E50720FFF715FB2C480368334842
:1048E000984764229CE500F093FB30E000F0C4FDA3
:1048F0002DE000F0ADFF2AE0244B2D481A689047C8
:104900006420FEF79FFF012017E020480168294836
:104910000EE001F099FA1AE000F08AF917E01B4C5A
:10492000254822689047012003F05AFD216823485A
:1049300088476420FEF786FF0020FFF7F5F8D7E0F0
:1049400012491F480B68984703F0E0FC67E578219F
:10495000217000201B4BC8E078222270C8E000BF05
:10496000DC000020A01E0020F2410108EC410108FB
:10497000B54501086C430108000800406B4501087B
:10498000825D0108FC1E0020BA4501089C1E002023
:10499000C8450108E5450108034601081F4601080E
:1049A00040460108624601087D4601089546010817
:1049B000AA460108C4460108DB460108F946010879
:1049C000F84101082C0A00204B4A012414704B4C7A
:1049D0004B482168884723684A48984722684A48D4
:1049E0009047216849488847236849489847226882
:1049F000484890472168484888472368474898476F
:104A000022684748904721684648884723684648B7
:104A10009847226845489047216845488847384864
:104A2000236898472268434890474348016888476D
:104A30000028FAD0414B1A6890474149087008781D
:104A400020283AD12D4C2E482568A84723683D4898
:104A5000984722683C48904721683C488847256829
:104A60003B48A84723683B48984722683A48904704
:104A700021683A48884725683948A8472368394853
:104A8000984722683848904721683848884738480E
:104A90002568A8471A482368984722682548904700
:104AA0002548016888470028FAD0244D2B6898478C
:104AB000234D28702A78202A03D02E4901220A701B
:104AC00011E00E4C0E482168884723682A48984711
:104AD00022682A489047216829488847084823685F
:104AE000984778202870044B0020187000E0FEE7FB
:104AF00011B0BDE8F08F00BF2D0A00209C1E0020E1
:104B0000C46D0108114701087A470108E34701080D
:104B10004C480108B54801081E49010887490108A9
:104B2000C0490108F9490108624A01089B4A010885
:104B3000D44A01083D4B0108A81E0020A41E0020F5
:104B4000540000206F4B0108A84B0108E24B0108FC
:104B50001F4C01085A4C0108934C0108DE4C010817
:104B6000144D0108524D01088D4D0108D54D010825
:104B70001D4E01082C0A0020564E01088F4E0108D8
:104B8000C84E0108A0F13003D9B2092901D8C8B232
:104B90000DE0A0F16102052A01D8573804E0A0F128
:104BA0004103052B02D83738C0B200E0FF2040B2E5
:104BB000704700002DE9F84300210446D0F87472D4
:104BC00003F04EFB94F87232C4F87402DB0704D58C
:104BD00044F20300002103F007FE0025142D1BD032
:104BE0004FEA4519C9F51E79B9F1200FA8BF4FF05A
:104BF000200904EB451800264E4507DA084A18F844
:104C000006101368074898470136F5E7064801354E
:104C1000016806488847E1E7C4F87472BDE8F88384
:104C2000A01E0020084F01089C1E0020C46D010832
:104C30002DE9F0419048914B012204689048ADF570
:104C40001E7D1A70A0478C498E480C68A0478E4D77
:104C50002A6890470028FAD08C4B874D1868804707
:104C6000296804468A488847572C00F0AE8137D817
:104C7000462CE8D029D8432C00F0A780452C00F022
:104C80009E813F2CDFD1834C81482568A84722684C
:104C90008148904723688148984721688048884721
:104CA00025688048A84722687F48904723687F4846
:104CB000984721687E48884725687548A847226834
:104CC0007C48904724687248BCE7482C71D0562C29
:104CD000B9D12D687848A847012003F081FBB2E7DD
:104CE000652C00F0728104D8612C10D0632CAAD1FD
:104CF00043E0662CA7D0782CA5D170482968884756
:104D00005E4A002010700DF51E7DBDE8F0816C4DEF
:104D1000604CD5F8747205F0ABF905F0CDF90021BF
:104D2000284603F09DFA22680646664890472368A5
:104D300029786548984765484FF41E712568A8474B
:104D4000226863483946904723686248314698474D
:104D5000B74202D021686048884725685F48A84765
:104D600057485F4B90F872225E4912F0010F246899
:104D70005D4818BF1946A04765E7464C05F078F92D
:104D800005F09AF92268424890474D48FFF712FF14
:104D900021683F4888470121494803F061FA534B95
:104DA00098423FF450AF2C685148A0472C685148B6
:104DB00048E73848026850489047414991F87232B4
:104DC00023F0010481F872423DE7FEF707FD314E02
:104DD0004FF41E710A464FF49E6337688046474879
:104DE000B847316846488847356846486421A8472F
:104DF000684600214FF41E720AF0B2FA00273D46C1
:104E00006E46214C2068804748B1FEF7E7FC2368D6
:104E10008046984750B11D490C68A04706E0FEF750
:104E2000DDFCC8EB0002632AEBD9EEE70446FFF78E
:104E3000A9FE202C0AD00A2C08D00D2C06D0B4F1E3
:104E40005F035A4252EB030114B100E00121013724
:104E500059B9421C58D032780DB90001C0B240EAAD
:104E600002033370761985F001059EAA9642C8D3D5
:104E7000002C60D149E000BF9C1E00202D0A0020BC
:104E80000D4F0108284F0108A81E0020A41E002075
:104E9000C46D0108A01E00208E520108B552010801
:104EA000045301084953010899530108E3530108C9
:104EB0003254010871540108615201082652010858
:104EC000B01F0020374F0108564F01086D4F0108F1
:104ED000844F01089D4F0108B64F0108ED4F0108AE
:104EE000ED410108F2410108FA4F01081CDF44219D
:104EF000115001085A50010894500108B05001089F
:104F0000EC5001082751010854B96A46324BB11AD6
:104F10001C68324805EB41014FF49E62A0473CE01B
:104F20009EA98E4207D22C483946056822462C4855
:104F30002346A84731E0002DF5D10121684603F052
:104F40008FF9284CA0420AD0234D27482B68984758
:104F50002C682648A0476846FFF72CFE1DE005F0A8
:104F600087F805F0A9F822481DF805102B5C994236
:104F700007D10135B5F51E7FF5D1174801681D48E9
:104F80000AE0154C69464FF41E720AF03BF91A48C4
:104F900022689047216819488847FEF71FFC05469C
:104FA000FEF71CFC401B63283FF64DAE144A116807
:104FB00088470028F4D0134B1C68A047F0E72B6803
:104FC0001148984703F054F93DE62D680F48A8476B
:104FD00003F09CF937E600BFA01E002057510108DE
:104FE000905101081CDF4421C6510108F651010807
:104FF000B01F0020B7540108F15401080C550108F6
:10500000A81E0020A41E00201252010840520108D0
:105010002DE9FF419A4B9B48012201681A709A487A
:10502000884700247826974D98482A689047984BDF
:105030001868804710B9002CF9D004E01CB9954ECF
:105040003168884706468F4D93482A689047482E16
:1050500000F05C8113D8442E00F0ED8008D8412E7A
:1050600000F0D180422E00F0D8803F2EDBD1A7E1A6
:10507000462E8A4D00F0FA8000F24081E9E04B2E86
:1050800000F0728105D8492E00F04F814A2ECAD116
:105090005CE1612E0BD0782E00F0AD80572EC2D18E
:1050A0002A687F48904703F031F90024BBE77B4C26
:1050B0002D687C48A84794F8AC30032B13D8DFE860
:1050C00003F002060A0E6F4C774821680AE06D4D26
:1050D0007648296806E06B480168754802E0694A2D
:1050E000744811688847744A744C6C4D1178236871
:1050F00073489847B5F89210236872489847B5F8F6
:105100009410714822689047D5F8B0504FF07E5106
:105110002846FBF76BFF10B121686C4808E06C492A
:105120002846FBF763FF216808B16A4800E06A4837
:105130005A4C884794F8AC0030BB604DB4F8B410BA
:105140002B6866489847D4F8B800FBF7A7FF2A6891
:1051500081B263489047D4F8BC00FBF79FFF2B68EF
:1051600081B260489847D4F8C000FBF797FF2A68DF
:1051700081B25D489047D4F8C400FBF757F9024666
:105180000B465A4829688847444C94F8AC000328D9
:105190008BD14A4F56483D6894F8C810A84700275D
:1051A0003E4B93F8C820BA4220D94FF00C0808FBB8
:1051B0000738D8F8CC00FBF739F90446D8F8D00006
:1051C0000D46FBF733F9CDE90001D8F8D400FBF721
:1051D0002DF9CDE9020139483946D0F800C0224600
:1051E00044482B460137E047FFB2D9E725492A4812
:1051F0000C68A04759E740482B6898472048002191
:105200000170BDE8FF81FEF73FFEFBF747FF234E2D
:1052100086F8AC0004F018FC25E0FEF735FEFBF73D
:105220003DFF1E4CA4F89200FEF72EFEFBF736FF62
:10523000A4F8940017E0FEF727FE0021FBF7F4FE28
:1052400010B14FF07E5100E02149144CC4F8B01069
:10525000B3E095F8AC00002872D1FEF715FEFBF71D
:105260001DFFA5F8B400FDF77DFEA6E095F8AC3073
:10527000002B65D1FEF708FEC5F8B8004EE000BF70
:105280002D0A00209C1E0020435501085D55010891
:10529000A81E0020A41E0020C46D0108B01F00201D
:1052A000405201086B5501088355010895550108C6
:1052B000A7550108B955010864240020A01E00204C
:1052C000CB550108F55501081E560108485601083E
:1052D000000080BF715601089A560108C3560108A4
:1052E000EC560108145701083C570108655701089E
:1052F0008F570108D1570108F057010895F8AC20E5
:10530000F2B9FEF7C1FDC5F8BC0007E0474E96F8BC
:10531000AC30ABB9FEF7B8FDC6F8C000FBF7BEFE77
:1053200081B20520FDF7AAFE47E0404C94F8AC009E
:1053300030B9FEF7A9FDC4F8C40003F0D9FA3CE087
:10534000FEF7A2FD3A4A3B48136835E0374E96F81F
:10535000AC50032D2BD1FEF797FDFBF79FFE86F88F
:10536000C80004F071FB28E0304C94F8AC50032DD9
:1053700019D1FEF789FD8046FEF786FD0746FEF748
:1053800083FD06463846FBF789FE421E4046D7B2EB
:10539000FBF784FE411EC8B205FB007504EB8504D3
:1053A000C4F8CC6009E0FEF76FFDFEF76DFD204EFE
:1053B000FEF76AFD3368204898470124612632E6EB
:1053C0002B681E48984729681D4888472A681D4849
:1053D00090471D482B689847144890F8AC1071B955
:1053E0002A681A4890472B6819489847296819482D
:1053F00088472A68184890472D681848A8470B48DE
:10540000174D90F8AC30032B05D116482968884712
:105410002A68154890472B6814489847296814480B
:1054200088472D680548A847FDE500BFB01F00204C
:10543000A01E0020095801082E580108C46D01085B
:105440004B580108BD5801081D5901087C59010835
:10545000D7590108315A01088B5A0108E55A010849
:105460009C1E0020485B0108A35B0108075C010843
:105470004F5C0108000000002DE9FF41A44BA54846
:10548000012201681A70A448884700267824A14D9B
:10549000A2482A689047A24B1868804710B9002E8E
:1054A000F9D004E01EB99F4C216888470446994D05
:1054B0009D482A689047452C00F0648124D8422CEE
:1054C00000F0118105D83F2C00F08781412CDED1FE
:1054D000E4E0432C00F00F81442CD8D1FEF7D4FC3B
:1054E000924EC6F89800FEF7CFFCC6F89C00FEF777
:1054F000CBFCC6F8A000FEF7C7FCC6F8A400FEF778
:10550000C3FCC6F8A8005EE1572C00F05F8110D8FC
:10551000462C00F04581472CB9D1FEF7B5FC8449F3
:10552000FBF784FC8349FBF7CDFB804BC3F880007D
:1055300049E1612C09D0782CA9D17F482968884796
:10554000734800220270BDE8FF81784E2F687B48C7
:10555000B84796F8883023B1012B05D12D687848DB
:1055600001E02D687748A8476A4977480A6890475C
:1055700000236E4F7549D81990F88A6004AD585CC5
:105580000133AA19082B02F80C0CF2D1614E4FF02E
:105590000008356801A88DF80C80A8476C4D32686A
:1055A0006148904729686B4888472B686A48984744
:1055B000D7F89800FBF772FD2E6881B26748B047B4
:1055C000D7F89C00FBF76AFD2A6881B264489047CF
:1055D000D7F8A000FBF762FD2B6881B261489847BD
:1055E000D7F8A400FBF75AFD2E6881B25E48B04799
:1055F000D7F8A800FBF752FD2A6881B25B489047B4
:10560000B86FFAF713FF3EA3D3E90023FAF762FF5E
:105610003DA3D3E90023FBF787F8FBF7F5F9FAF789
:1056200005FF02460B46524829688847F86FFAF78B
:10563000FDFE33A3D3E90023FAF74CFF32A3D3E9ED
:105640000023FBF771F8FBF7DFF9FAF7EFFE2E689E
:1056500002460B464748B047D7F88000FAF7E6FE07
:1056600027A3D3E90023FAF735FF27A3D3E90023C3
:10567000FBF75AF8FBF7C8F9FAF7D8FE02460B46D3
:105680003D48296888472B6897F86C123B48984733
:105690002D683B4897F86D12A8479CE01C26234DC7
:1056A0008DF800600024684601268DF801408DF8D1
:1056B00002608DF8034005F0BBFA95F888204FF0A2
:1056C00080403AB9022106F087F885F88860FDF736
:1056D0009FFE79E03146224606F07EF885F8884044
:1056E000FDF7DCFB70E001A80821FEF7A5FB01A88F
:1056F00002F09EFD67E00D4C002084F8890062E016
:105700000000000000F9054100000060FB21094095
:105710002D0A00209C1E00208E5C0108AB5C010855
:10572000A81E0020A41E0020C46D0108B01F002088
:1057300000C82F48DB0F4940DA5E0108BC5C010855
:10574000E35C0108DE5C0108ED5C01080E740108F1
:10575000A01E00200E5D01082F5D01083C5D0108C0
:10576000625D0108885D0108AE5D0108D45D010835
:10577000FB5D0108265E0108515E0108815E01089B
:10578000AD5E0108FEF780FBFBF788FC224C84F835
:105790006C02FEF779FBFBF781FC84F86D0212E0E6
:1057A000FEF772FB1D49FBF741FB1D49FBF78AFA27
:1057B000194DA867FEF768FB1849FBF737FB184936
:1057C000FBF780FAE8670126612460E62A6815483D
:1057D000904702F09BFD002659E62B681248984737
:1057E0002968124888472A68114890472B68114851
:1057F00098472968104888472A68104890472B68BE
:105800000F48984729680F4888472A680E489047EC
:105810002D680548A8473AE6B01F002000C82F4869
:10582000DB0F494040520108C46D0108F65E0108D3
:10583000435F0108A25F01081F6001088A60010838
:10584000FE600108075C01084B610108AFF30080AE
:105850002DE9FF41494B4A48012201681A70494825
:10586000884700247826464D47482A689047474B8A
:105870001868804710B9002CF9D004E01CB9444ED8
:105880003168884706463E4D42482A689047572E61
:1058900000F083821ED8442E00F04F820AD8422E98
:1058A00000F03E8200F241823F2E00F07D82412EC8
:1058B000D9D115E24E2E00F04882562E00F05B82C0
:1058C000452ED0D1FEF7E0FA334DE866FEF7DCFA5C
:1058D00028675FE2642E00F0908107D8622E00F006
:1058E0007F8100F28781612EBDD113E0702E00F020
:1058F000DE8102D86D2EB6D1CAE1762E00F0E481A9
:10590000782EB0D12A68254890471C4B0021197089
:10591000BDE8FF81204F2C687878012848D12048C5
:10592000A047F869FAF782FD0446386A0D46FAF78F
:105930007DFDCDE90001786AFAF778FDDFF86C802B
:1059400022462B46CDE90201D8F8001015488847B9
:10595000B86AFAF76BFD0446F86A0D46FAF766FD79
:10596000CDE90001386BFAF761FDD8F80070CDE998
:10597000020122460C482B46B8471BE02D0A0020A6
:105980009C1E00208B610108A6610108A81E002052
:10599000A41E0020C46D0108B01F0020D1650108BD
:1059A000B5610108CA610108FA610108A01E002062
:1059B0009648A047964FDFF8BC823869FAF736FD63
:1059C000044678690D46FAF731FDCDE90001B86962
:1059D000FAF72CFD22462B46CDE90201D8F800103B
:1059E0008C4888477868FAF721FD0446B8680D4668
:1059F000FAF71CFDCDE90001F868FAF717FD224619
:105A00002B46CDE90201D8F8001083488847786B0F
:105A1000FAF70CFD0446B86B0D46FAF707FDCDE921
:105A20000001F86BFAF702FD22462B46CDE9020190
:105A3000D8F8001079488847386CFAF7F7FC044624
:105A4000786C0D46FAF7F2FCCDE90001B86CFAF774
:105A5000EDFC22462B46CDE90201D8F80010704833
:105A60008847F86CFAF7E2FC0446386D0D46FAF701
:105A7000DDFCCDE90001786DFAF7D8FC2246CDE9CE
:105A800002012B46D8F8001066488847664B186814
:105A9000FAF7CCFCD8F8004002460B466348A04712
:105AA000B86DFAF7C3FCD8F8005002460B466048C0
:105AB000A847F86DFAF7BAFC02460B465D48D8F8DD
:105AC00000108847386EFAF7B1FCD8F8004002465B
:105AD0000B465948A047786EFAF7A8FCD8F8005052
